:10000000E3C200000C940D0C07C3000005C3000000
:1000100003C3000001C30000FFC20000FDC20000D6
:10002000FBC20000F9C20000F7C20000F5C20000E8
:10003000F3C20000F1C20000EFC20000EDC20000F8
:100040000C94900CE9C20000E7C20000E5C2000079
:10005000E3C20000E1C20000DFC20000DDC2000018
:10006000DBC20000D9C20000C007C507A507A90769
:10007000AD07B207B707BC076E616E00696E660018
:10008000000000000000002F00000007000700141F
:100090007F147F14242A7F2A123234081626364908
:1000A0005522500005030000001C2241000041229F
:1000B0001C0014083E081408083E080800005030D0
:1000C00000101010101000606000002010080402E2
:1000D0003E5149453E00427F400042615149462120
:1000E00041454B311814127F1027454545393C4A8C
:1000F00049493001710905033649494936064949DC
:10010000291E003636000000563600000814224131
:100110000014141414140041221408020151090699
:10012000324959513E7E1111117E7F494949363E6F
:10013000414141227F4141221C7F494949417F0978
:100140000909013E4149497A7F0808087F00417F3B
:1001500041002040413F017F081422417F40404040
:10016000407F020C027F7F0408107F3E4141413EE8
:100170007F090909063E4151215E7F09192946463A
:100180004949493101017F01013F40403F001F20A3
:1001900040201F3F4038403F631408146307087035
:1001A00008076151494543007F414100552A552ABE
:1001B000550041417F00040201020440404040409C
:1001C000000102040020545454787F4844443838D5
:1001D00044444420384444487F3854545418087EDA
:1001E0000901020C5252523E7F0804047800447DFB
:1001F00040002040443D007F1028440000417F40E3
:10020000007C041804787C0804047838444444389A
:100210007C14141408081414187C7C08040408487E
:1002200054545420043F4440203C4040207C1C2037
:1002300040201C3C4030403C44281028440C505086
:10024000503C4464544C44007F3E1C08081C3E7FD4
:1002500000087C7E7C08103E7E3E103E3E3E3E3EC8
:10026000007F3E1C087F415D55554949495D494124
:1002700041417F1C7F415D5D5D5D5D5D5D5D5D5DFF
:10028000417F1C7F415D5D5D5D5D59514141414153
:100290007F1C7F415D595141414141414141417F75
:1002A0001C403C101C0004263826046715601763A8
:1002B0007C7C0C0C0C0C0C0C7C7C7F7F0000000008
:1002C00000007F7F0C0C0C0C0C0F0F0C0C0C0C0C9A
:1002D0000C0F0F00000000000000000000000000F4
:1002E00000000000000000008080C0C0E0E0F0F0EE
:1002F000F8F8F8FCFCFCFCFEFE7E7E7E3F3FBFBFB4
:10030000BF9FDFDFDF5F5F5FDF9F1E1E1E1E1E1CA5
:100310001C1C1C18183838303030606040C0808099
:10032000800000000000000000000000000000004D
:10033000000080C0E0F0F8FCFCFEFFFFFFFFFF7F45
:100340003FBFDF4F6F27131B090D050C1E7EFFFFFC
:10035000FFFFFFFF3F1F0701000000000001030E29
:100360003CF0C000000000000000000000000000A1
:1003700000000000010100020000000000000080F9
:10038000E0F0F8FCFEFFFFFFFFFFFF7F3F1F0F07BE
:100390000301FCFEE3E1E0E0E0E0E0E0E0E0E0F0CB
:1003A000FCFEFFFFFFFFFFFFFEF8E0E0E0E0E0E023
:1003B000E0E0E0E0E0E0FFFE000000000000000000
:1003C000000000000000000000000000000000002D
:1003D00070FCFFFFFFFFFFFFFFFFFF7F0F07010024
:1003E000000000000000010F3FFFFFFFFFFFFFFFC5
:1003F000FFFFFF3F0F03030303030303071F7FFFF9
:10040000FFFFFFFFFFFFFFFF7F3F0700000000002F
:1004100000000000000000000000000000000000DC
:1004200000000000000000010103030707070F0F91
:100430000E1E1C3830306060404080000000010318
:10044000070F1F1F373160606040C0C0C0C0C0C010
:1004500040606020333F1F0F0F07030100000000C2
:10046000000000000000000000000000000000008C
:10047000000000000000000000000000000000007C
:10048000000000384040380000007E324C00601C04
:10049000121C6000007E42241800000078063840DC
:1004A00038067800003048483000007808087000AE
:1004B0007A0000087E0800003048483000007808C4
:1004C000000000000000000000000000407A10F36F
:1004D0005A00A0724E18090010A5D4E80000E87672
:1004E00048170000E40B54020000CA9A3B000000C9
:1004F000E1F505000080969800000040420F0000E2
:1005000000A08601000000102700000000E80300A2
:100510000000006400000000000A0000000000016C
:1005200000000000002C76D888DC674F0823DFC16C
:10053000DFAE59E1B1B796E5E3E453C63AE6519927
:100540007696E8E6C28426EB898C9B62ED407C6F50
:10055000FCEFBC9C9F40F2BAA56FA5F490055A2A07
:10056000F75C936B6CF9676DC11BFCE0E40D47FE13
:10057000F520E6B500D0ED902E0300943577050008
:1005800080841E080000204E0A000000C80C33338F
:1005900033330F986E12831141EF8D2114893BE69E
:1005A0005516CFFEE6DB18D1844B381BF77C1D9027
:1005B0001DA4BBE424203284725E228100C9F12490
:1005C000ECA1E53D27005D1011241FBECFEFD8E060
:1005D000DEBFCDBF12E0A0E0B1E0E8EEF9E202C07C
:1005E00005900D92AA35B107D9F722E0AAE5B2E04D
:1005F00001C01D92A33BB207E1F715E0C8ECD5E0BE
:1006000004C02297FE010E94D910C63CD107C9F749
:100610000E94C60D0C94F214F3CCA3E1B0E0E3E128
:10062000F3E00C94E7107C011B016A01FC011782C6
:100630001682838181FF66C3BE016F5F7F4F4B01CE
:10064000F7019381F10193FD859193FF81911F0142
:10065000882309F453C3853239F493FD859193FFC0
:1006600081911F01853239F4B70190E00E9438145E
:1006700056016501E5CF10E0512C20E02032A0F4B6
:100680008B3269F030F4803259F0833269F42061A2
:100690002CC08D3239F0803339F4216026C02260BD
:1006A000246023C0286021C027FD27C030ED380F0B
:1006B0003A3078F426FF06C0FAE01F9F300D11246F
:1006C000132F13C06AE0569E300D1124532E206262
:1006D0000CC08E3221F426FD11C3206406C08C3676
:1006E00011F4206802C0883641F4F10193FD859130
:1006F00093FF81911F018111C1CF9BEB980F933024
:1007000018F42061805E06C09BE9980F933008F0D2
:10071000AAC12F7E26FF16E02F73722E853621F494
:10072000F22FF0647F2E08C0863621F4622F6068B5
:10073000762E02C01111115077FE07C01C3348F409
:1007400044244394410E27E00BC0183030F4212F8D
:1007500006C027E04CE3442E03C027E017E0412CFD
:10076000560174E0A70EB11CF6016081718182818F
:100770009381042DA4010E9443136C01098100FFA1
:1007800002C003FF06C071FC07C072FC08C0612CE8
:1007900008C03DE2632E05C02BE2622E02C090E24B
:1007A000692E802F8C7099F1662011F084E001C0D1
:1007B00083E0851510F0512C0BC0581A73FC08C04B
:1007C000B70180E290E00E9438145A94C9F7F3CF41
:1007D000662029F0B701862D90E00E94381403FDB1
:1007E00003C00CE710E002C008E710E0F72DF0713D
:1007F0007F2EF8018491882309F476C2711080520B
:10080000B70190E00E9438140F5F1F4FF2CF77FEC0
:100810000FC04C0C04FF04C08A81813309F44A9450
:10082000141474F5F8E0F41578F588E0482E2CC01F
:1008300076FC2AC0812F90E08C159D059CF06CEF12
:10084000C6166FEFD60674F0772D7068772E0AC043
:10085000E2E0F0E0EC0FFD1FE10FF11D808180333D
:1008600019F411501111F4CF77FE0EC044244394B3
:10087000410E812F90E0C816D9062CF41C1904C033
:100880004424439401C010E077FE07C01C141D04EB
:100890003CF496012F5F3F4F05C025E030E002C0D9
:1008A00021E030E0662011F02F5F3F4F112331F03F
:1008B000412F50E04F5F5F4F240F351F452D50E013
:1008C0002417350714F4521A01C0512C872D897052
:1008D00049F4552039F0B70180E290E00E943814C5
:1008E0005A94F7CF662029F0B701862D90E00E9438
:1008F000381473FC09C0552039F0B70180E390E04B
:100900000E9438145A94F7CF77FE5FC09C2D8D2D2E
:10091000D7FE02C090E080E0692E782E40E050E0E3
:10092000C601841991099D878C879601261937097C
:10093000280D391D812F90E0EE27FF27E81BF90BCA
:10094000FF87EE87FFEF6F167F0669F4B7018EE22F
:1009500090E02B8B3A8B488B598B0E943814598925
:1009600048893A892B89C614D70454F06C857D8553
:10097000661577052CF4F901E40FF51F818101C09C
:1009800080E371E0671A71084F5F5F4FEE85FF8566
:100990006E167F066CF0B70190E02B8B3A8B488B7C
:1009A000598B0E9438142B893A8948895989CACFB2
:1009B0006C147D0439F49A81963318F4953311F44C
:1009C00004FF81E3B70190E04BC08A81813309F0D5
:1009D0000F7EB70190E00E943814111105C074FE1B
:1009E00018C085E490E017C0B7018EE290E00E9445
:1009F000381482E066246394680EF401E80FF11D58
:100A00008081B70190E00E943814115041F3862D87
:100A1000F1CF85E690E0B7010E943814D7FC05C0FD
:100A2000C114D10439F404FF05C0D194C194D10894
:100A30008DE201C08BE2B70190E00E94381480E3A0
:100A40006AE0C616D1042CF08F5FFAE0CF1AD10805
:100A5000F7CFB70190E00E943814B701C601C096E5
:100A60000E94381441C1833631F0833779F08335E1
:100A700009F058C021C0560172E0A70EB11CF60162
:100A80008081898301E010E0640114C05601F2E026
:100A9000AF0EB11CF601C080D18026FF03C0612FCC
:100AA00070E002C06FEF7FEFC6012B8B0E942D1408
:100AB0008C012B892F7715C05601F2E0AF0EB11CC7
:100AC000F601C080D18026FF03C0612F70E002C014
:100AD0006FEF7FEFC6012B8B0E941B148C012B89BB
:100AE0002068722E23FD1AC0852D90E00817190783
:100AF000A8F4B70180E290E00E9438145A94F4CF31
:100B0000F60177FC859177FE81916F01B70190E046
:100B10000E94381451105A94015011090115110501
:100B200079F7E2C0843611F0893651F5560127FF76
:100B300009C0F4E0AF0EB11CF601608171818281C1
:100B400093810AC0F2E0AF0EB11CF60160817181A1
:100B5000882777FD8095982F022F0F7697FF08C082
:100B600090958095709561957F4F8F4F9F4F00684E
:100B70002AE030E0A4010E949414C82EC8183EC098
:100B8000022F853721F40F7E2AE030E01DC0097F57
:100B90008F3691F018F4883559F0B0C0803719F0CD
:100BA000883711F0ABC0006104FF09C0046007C0C2
:100BB00024FF08C0066006C028E030E005C020E140
:100BC00030E002C020E132E0560107FF09C0F4E046
:100BD000AF0EB11CF601608171818281938108C0E2
:100BE000F2E0AF0EB11CF6016081718180E090E00F
:100BF000A4010E949414C82EC8180F7706FF0BC0DA
:100C0000202F2E7FC11650F404FF0AC002FD08C039
:100C1000202F2E7E05C0DC2C202F03C0DC2C01C031
:100C2000D12E24FF0DC0FE01EC0DF11D808180331B
:100C300011F4297E09C022FF06C0D394D39404C0C6
:100C4000822F867809F0D39423FD13C020FF06C0BD
:100C50001C2DD51418F4150D1D19D52CD51468F4B8
:100C6000B70180E290E02B8B0E943814D3942B893B
:100C7000F5CFD51410F45D1801C0512C24FF12C01B
:100C8000B70180E390E02B8B0E9438142B8922FF60
:100C900017C021FF03C088E590E002C088E790E01C
:100CA000B7010CC0822F867859F021FD02C080E286
:100CB00001C08BE227FD8DE2B70190E00E9438145D
:100CC000C11638F4B70180E390E00E943814115047
:100CD000F7CFCA94F401EC0DF11D8081B70190E0CB
:100CE0000E943814C110F5CF552009F4C2CCB701C9
:100CF00080E290E00E9438145A94F6CFF701868182
:100D0000978102C08FEF9FEF6396E2E10C9403118D
:100D1000FC017387628755874487EEE6F0E08081A7
:100D200081608083789485B5836085BD0895FC01DA
:100D300062817381848195812CE330E040E050E052
:100D40000E949910862F0895CF92DF92EF92FF9222
:100D5000FC0162817381848195812CE3C22ED12CA8
:100D6000E12CF12CA70196010E949910CA01B9014A
:100D7000A70196010E949910862FFF90EF90DF90B7
:100D8000CF900895FC01628173818481958120E177
:100D90003EE040E050E00E949910CA01B90128E10C
:100DA00030E040E050E00E949910862F0895809333
:100DB0007C008FEC97E00197F1F700C0000084EC15
:100DC00080937A008FEC97E00197F1F700C0000064
:100DD00080917A0086FDFCCF809178002091790087
:100DE00090E0922B08958EE480937C008FEC97E046
:100DF0000197F1F700C0000084EC80937A008FEC3B
:100E000097E00197F1F700C0000080917A0086FD1D
:100E1000FCCF209178008091790030E0382B40E0C1
:100E200050E060E070E381E190E00E94BB10C901F6
:100E300008954F925F926F927F928F929F92AF929E
:100E4000BF92CF92DF92EF92FF920F93CF93DF93F7
:100E50006B017C015A01E901802FA9DFBC0180E010
:100E600090E00E942A1220E030E040E85AE30E941D
:100E7000E0122B013C01B5016C0F7D1F80E090E07A
:100E80000E942A129B01AC01C301B2010E94E01230
:100E90004B015C01BE0180E090E00E942A129B01A0
:100EA000AC01C501B4010E949611A70196010E94F0
:100EB000E0120E94FE11CB01DF91CF910F91FF90C4
:100EC000EF90DF90CF90BF90AF909F908F907F90EA
:100ED0006F905F904F9008958F929F92AF92BF92C4
:100EE000CF92DF92EF92FF924A015B0124D06B0117
:100EF0007C01C501B4010E942A129B01AC01C7010B
:100F0000B6010E94E012FF90EF90DF90CF90BF906B
:100F1000AF909F908F9008958150883048F4E82FCB
:100F2000F0E0EE0FFF1FE65BFE4F80819181089598
:100F300081E191E0089590E0FC013197E830F105FE
:100F400048F5EC5CFF4F0C94D71036EA2BE994EC93
:100F500007C036E72EE69AED16C03CE428EA90EE8C
:100F60008AE317C039E12FEA91E28FE312C036EA33
:100F70002BE994E48DE30DC036EA2BE994EC03C031
:100F80003FE02EEE9EEC8BE304C03AE027ED93E2C7
:100F90008CE3AC01632F722F852F942F0895FC01F1
:100FA000408121E030E0062E01C0220F0A94EAF7CA
:100FB0002095242320830895452B61F0FC01408176
:100FC00021E030E0062E01C0220F0A94EAF7422BFE
:100FD00040830895E4CF24E5429FA0011124E6E078
:100FE0006E9F400D511D1124FC01508B47870895C1
:100FF0008F929F92AF92BF92CF92DF92EF92FF9229
:101000000F931F93CF93DF931F92CDB7DEB74C01A1
:10101000A62EDC011B96ED91FC911C97529181E06C
:1010200090E09C0113960C90139702C0220F331F7F
:101030000A94E2F7522B50831996ED91FC911A977E
:10104000229112960C90129702C0880F991F0A9451
:10105000E2F7282B20836C9115968D919C91169721
:1010600049839DDF81E090E04981413011F080E0CB
:1010700090E0AC01F4016281818592859DDF07E0FB
:1010800010E0B12CCC24C394D12CA501002E02C0B9
:10109000559547950A94E2F741705527D401139668
:1010A0006C9113971B968D919C911C9785DFD401B1
:1010B0001D96ED91FC911E972081EE24E394F12C76
:1010C000C60114960C90149702C0880F991F0A94B9
:1010D000E2F7282B208314966C9114971D968D911E
:1010E0009C911E975CDF0150110978F6D40115968A
:1010F000ED91FC9116972081C7010C9002C0880FDA
:10110000991F0A94E2F7282B20831B968D919C91BE
:101110001C9713966C91019742DFF40181859285AB
:10112000628101973CDFD4011B96ED91FC911C97E5
:101130002081C70113960C90139702C0880F991F46
:101140000A94E2F7282B20831996ED91FC911A97C7
:10115000808112960C9002C0EE0CFF1C0A94E2F7FC
:101160008E2980830F90DF91CF911F910F91FF9077
:10117000EF90DF90CF90BF90AF909F908F900895A9
:101180001F93CF93DF93EC01CB0164E570E0AAD706
:10119000162F682F606840E0CE012ADF612F60645F
:1011A00040E0CE01DF91CF911F9122CF0F931F938B
:1011B000CF93DF93EC01188A1F8660E070E0E0DFD8
:1011C00008EF11E041E060E0CE0112DF01501109AB
:1011D00001151105B9F7DF91CF911F910F91089576
:1011E0006F927F928F92AF92BF92CF92EF92FF92C7
:1011F0000F93CF93DF93CDB7DEB73C018E859F85EC
:101200005889D30118967C936E93179711964C9337
:10121000119716963C932E9315970C931A96FC9261
:10122000EE9219971296CC9212971C96BC92AE929F
:101230001B9713968C9213971E969C938E931D97D3
:1012400014965C93FB01208181E090E0DC0102C0F8
:10125000AA0FBB1F4A95E2F72A2B2083D3011796CA
:10126000ED91FC91189742919C0111960C90119769
:1012700002C0220F331F0A94E2F7422B40831596D7
:10128000ED91FC91169742919C010C9002C0220FA7
:10129000331F0A94E2F7422B40831996ED91FC919B
:1012A0001A9742919C0112960C90129702C0220F3D
:1012B000331F0A94E2F7422B40831B96ED91FC9179
:1012C0001C9742919C0113960C90139702C0220F19
:1012D000331F0A94E2F7422B40831D96ED91FC9157
:1012E0001E97229114960C9002C0880F991F0A94A1
:1012F000E2F7282B2083EFE2F5E73197F1F700C002
:101300000000D30111966C91119717968D919C91C5
:10131000189745DEBFEFEFE8F1E0B150E040F04054
:10132000E1F700C00000D3011796ED91FC911897EA
:10133000208181E090E011960C90119702C0880FF7
:10134000991F0A94E2F7282B20836C9115968D91B2
:101350009C91169724DE40E061E2C30149DE40E043
:1013600068ECC30145DE40E066E0C30141DE40E0D9
:1013700063E1C3013DDE40E060E2C30139DE40E0ED
:101380006CE0C30135DEC30111DF40E061E2C3015F
:101390002FDE40E060ECC3012BDE40E060E2C301E1
:1013A000DF91CF910F91FF90EF90CF90BF90AF90D2
:1013B0008F907F906F901CCEEF92FF920F931F93B0
:1013C000CF93DF93EC01162F8F8598896A3059F4FB
:1013D0009C012C5A3F4F64E570E098D6281B390BCE
:1013E000388B2F8723C0BC01CE01CADE85E0189F51
:1013F0007001112400E010E0C701805290407C0190
:10140000F701E00FF11F6491660F41E0CE01F0DDBE
:101410000F5F1F4F0530110599F741E060E0CE01E5
:10142000E7DD8F8598890696988B8F87DF91CF911E
:101430001F910F91FF90EF9008950F931F93CF93FB
:10144000DF938C01EB016991662319F0C801B4DFC9
:10145000FACFDF91CF911F910F910895CF93DF9332
:10146000CDB7DEB7C456D1090FB6F894DEBF0FBEB4
:10147000CDBF9E0123593F4FAD964EAD5FADAD97A9
:1014800063E670E0CE0101960E946A14BE016F5FB0
:101490007F4FAB968EAD9FADAB97CFDFCC59DF4F73
:1014A0000FB6F894DEBF0FBECDBFDF91CF91089588
:1014B0001F93CF93DF93EC01162F6F85788960DE41
:1014C00041E0612FCE0194DD8F8598890196988B3C
:1014D0008F87DF91CF911F910895EF92FF920F9325
:1014E0001F93CF93DF938C017B01FC01108A178639
:1014F000C0E0D0E0F701EC0FFD1F6491C801D8DF18
:101500002196C83FF1E0DF07A9F7DF91CF911F9146
:101510000F91FF90EF900895FC01628373834583E0
:10152000FB01229181E090E0042E01C0880F0A9413
:10153000EAF78095822380830895DC011296ED916D
:10154000FC9113973297208130E015960C9002C0E1
:10155000359527950A94E2F7822F81700895FC0152
:10156000628373834583FB01229181E090E0042E26
:1015700001C0880F0A94EAF7282B20830895DC0124
:1015800014966C9314971296ED91FC9113971596FF
:101590003C91208181E090E0032E01C0880F0A94E5
:1015A000EAF7662319F0282B20830895809582237B
:1015B0008083089561E0FC012481621BE0CFCF921B
:1015C000DF92EF92FF92CF93DF93EB01FC017183E7
:1015D0006083609186007091870080E090E03AD748
:1015E0006B017C01BE0180E090E034D79B01AC012F
:1015F000C701B601E5D720E030E04AE754E496D6CB
:10160000FDD67093890060938800DF91CF91FF90A1
:10161000EF90DF90CF900895CF93DF93C0E8D0E0B4
:101620001882219A2CEB31E03093870020938600BA
:101630006BE070E0C4DF89E180938100888182687B
:101640008883DF91CF910895EF92FF920F931F93BC
:10165000CF93DF93EC018B017A01CA0105966817DD
:10166000790748F0688179816B30710520F061500D
:101670007109CE01A4DF85E0E81AF108E016F10651
:1016800050F0688179816A3E91E0790720F46F5FBC
:101690007F4FCE0194DF81E0288139812A3E31409D
:1016A00009F480E0DF91CF911F910F91FF90EF90AF
:1016B0000895FC0180819181089580917C02909130
:1016C0007D02A0917E02B0917F0280937802909378
:1016D0007902A0937A02B0937B02409178025091F4
:1016E000790260917A0270917B02809174029091EC
:1016F0007502A0917602B091770284179507A6072C
:10170000B70780F48091780290917902A0917A02D3
:10171000B0917B028093740290937502A09376023D
:10172000B093770210927C0210927D0210927E029A
:1017300010927F02409178025091790260917A0272
:1017400070917B0281E0C8DB20E030E040E752E4AA
:10175000EDD59B01AC0160916502709166028091AC
:101760006702909168027AD5609365027093660271
:1017700080936702909368020895CF9383E992E083
:10178000D6DAC5E06C2FA2D4911133C083E992E080
:10179000CEDA882371F183E992E0C9DA40917C02C4
:1017A00050917D0260917E0270917F02452B462B05
:1017B000472BF9F020917C0230917D0240917E020E
:1017C00050917F026C2F82D4E82FACE3B0E0F5D4C7
:1017D00045E0E49F90011124442737FD4095542FA4
:1017E000A8D4209378023093790240937A025093E0
:1017F0007B0281E080936A0280916902882331F044
:101800008DEA92E0D7DE87EA92E0D4DE8091100183
:101810008F5F80931001CF9108951F920F920FB6A2
:101820000F921124CF92DF92EF92FF922F933F936A
:101830004F935F936F937F938F939F93AF93BF93D8
:10184000EF93FF9380917C0290917D02A0917E02A4
:10185000B0917F028F3F9F4FAF4FBF4F99F0809164
:101860007C0290917D02A0917E02B0917F02019650
:10187000A11DB11D80937C0290937D02A0937E02F6
:10188000B0937F028091700290917102A0917202D8
:10189000B09173020196A11DB11D809370029093C7
:1018A0007102A0937202B0937302C0909502D0901F
:1018B0009602E0909702F0909802C114D104E104DE
:1018C000F104B1F0209170023091710240917202E6
:1018D00050917302ACE3B0E070D4A701960129D413
:1018E00020936C0230936D0240936E0250936F020E
:1018F00081E080936B02FF91EF91BF91AF919F9137
:101900008F917F916F915F914F913F912F91FF90B8
:10191000EF90DF90CF900F900FBE0F901F90189513
:101920001F920F920FB60F9211242F933F934F9354
:101930005F936F937F938F939F93AF93BF93EF9337
:10194000FF93809193029091940201969093940258
:1019500080939302883E914008F447C060919502BD
:101960007091960280919702909198026F5F7F4FDD
:101970008F4F9F4F609395027093960280939702CA
:1019800090939802611571058105910519F12CE379
:1019900030E040E050E0CDD3672B682B692BD1F4C9
:1019A0008091990290919A02A0919B02B0919C0221
:1019B0000196A11DB11D8093990290939A02A09364
:1019C0009B02B0939C02E0919F02F091A00230979D
:1019D00009F00995E0919D02F0919E02309709F07F
:1019E00009951092940210929302FF91EF91BF918A
:1019F000AF919F918F917F916F915F914F913F91A7
:101A00002F910F900FBE0F901F9018958D312CE0E5
:101A1000920754F4813F2AE092074CF4853C9940A8
:101A20004CF088E091E0089580E091E0089584E032
:101A300091E008958CE091E00895CF92DF92EF92CB
:101A4000FF926B017C0120E030E040E251E46AD477
:101A500087FD0EC020E030E44CE156E4C701B6013A
:101A600061D487FF0AC06FE672E183E89AE309C098
:101A700060E070E080E89FE304C06DEB77E386E808
:101A800095E3FF90EF90DF90CF900895CF92DF9293
:101A9000EF92FF926B017C0120E030E040E251E4E4
:101AA00041D487FD0BC020E030E44CE156E4C7018F
:101AB000B60138D487FF04C08DE603C08DE801C0AD
:101AC00080E2FF90EF90DF90CF900895683E23E092
:101AD00072078105910510F4CB010895603422E46A
:101AE00072072FE08207910528F428EE33E040E0EA
:101AF00050E004C020E432E44FE050E01AD3C901C2
:101B00000895683E23E072078105910538F060343E
:101B100072448F40910520F48BE4089580E208958B
:101B20008DE40895CF92DF92EF92FF926B017C01DA
:101B30002DEC3CEC4CEC5DE3F5D387FF03C06AE58C
:101B400071E01AC02DEC3CEC4CE45EE3C701B60139
:101B5000E9D387FF03C065E671E00EC020E030E006
:101B600040E85FE3C701B601DDD387FF03C060E74C
:101B700071E002C06BE771E08AE592E067D68AE522
:101B800092E0FF90EF90DF90CF900895CF93DF9396
:101B9000CDB7DEB767970FB6F894DEBF0FBECDBFE7
:101BA00043E06BE270E08DEA92E0D9DC43E068E26A
:101BB00070E081EA92E0B0DC44E06BE270E087EA3A
:101BC00092E0CDDC81E08F931F9288E28F9385E0D5
:101BD000882E9BE2A92EB12C26E0C22E3BE2E32EFA
:101BE000F12C07E02BE230E040E065E270E080E8B5
:101BF00092E0F6DA80E892E0D9DA63ED72E080E80C
:101C000092E06BDC2FEF39E688E1215030408040D4
:101C1000E1F700C0000080E892E0C8DA8091690036
:101C2000836080936900E89A4DE55BE06DEB7BE0B3
:101C300083E992E06DD881E992E0EEDC61E087EA29
:101C400092E09DDC109210010F900F900F904FE8E2
:101C5000242EC9D89C838B83BC01882777FD80956F
:101C6000982FFAD320E030E04AE754E45FD3762E91
:101C7000672E582E492E02E02FE230E040E157E275
:101C8000D301F2016B2F7A2F8F2F9E2FD2D88F8BFB
:101C9000392E4CE751E0682F792F81E992E0D4DCAE
:101CA00081EA92E04ADC91E098279D834091780296
:101CB0005091790260917A0270917B0281E00CD997
:101CC0006B017C0180916A02882309F488C110921B
:101CD0006A0240E060E080E892E07DD98091640291
:101CE0008111F2C0609178027091790280917A023C
:101CF00090917B0206DF8E83609178027091790269
:101D000080917A0290917B02E1DE8887998781E950
:101D100092E0CFDC6AE070E0E5D16C877D87C70197
:101D2000B60100DF8A879B8720E030E0A901C70168
:101D3000B60142D418163CF0A6E8B1E0BA83A983F4
:101D400000E210E009C0EBE8F1E0FA83E983C701A3
:101D5000B6019CDE082F10E0C701B6016EDE9B01C4
:101D6000AC01C701B6012CD46E877F87888B998B15
:101D70008090650290906602A0906702B090680221
:101D8000C501B40183DE8F83C501B40156DE9B011A
:101D9000AC01C501B40114D45C018B819C816D8BB5
:101DA0007E8B34DE9C016D897E89FD81FF2311F0DD
:101DB00048E701C040E283E992E02B8B3A8B4C8BE1
:101DC0006D8B7E8B0E949706882E83E992E00E949D
:101DD000A406982E83E992E00E94C2061F922F92D9
:101DE0001F929E819F93A985AF93B885BF93ED8580
:101DF000EF93FC85FF933F929F899F931F92A6E9E3
:101E0000AF931F92B4E9BF93EB85EF93FA85FF93ED
:101E10001F92BF931F9295E99F931F92A3E9AF93DF
:101E2000BA81BF93E981EF931F930F93F989FF93D1
:101E300098899F93AF85AF93BE85BF931F92E2E9C8
:101E4000EF931F9291E99F931F92F4E9FF931F92E2
:101E5000FF931F92FF931F92FF931F92FF931F9276
:101E6000FF931F92FF931F92FF931F92FF931F9266
:101E7000FF931F92FF931F92FF931F9290E99F93EE
:101E80004F925F926F927F921F929F819F93BF921A
:101E9000AF927E897F936D896F933A893F932B89A7
:101EA0002F931F924C894F931F928F921F929F9254
:101EB0001F928F93A0E9B1E0BF93AF9380E892E0C7
:101EC0009F938F93CBDA7EC0813009F081C040911F
:101ED0006C0250916D0260916E0270916F02809160
:101EE000740290917502A0917602B09177028417E6
:101EF0009507A607B70780F480916C0290916D0258
:101F0000A0916E02B0916F0280937402909375025B
:101F1000A0937602B093770281E00E948C07082F8D
:101F2000392E409174025091750260917602709141
:101F3000770240906C0250906D0260906E0270903B
:101F40006F028090700290907102A0907202B09027
:101F5000730283E992E04C8B5A8B6D8B7E8B0E94CF
:101F60009706182F83E992E00E94A406282F83E9A0
:101F700092E02B8B0E94C2063F920F934C895A89A4
:101F80006D897E897F936F935F934F931F922F92FA
:101F90007F926F925F924F921F922F92BF92AF9259
:101FA0009F928F921F921F931F922B892F931F92A4
:101FB0008F93AFEFB1E0BF93AF9380E892E09F9330
:101FC0008F934CDA0FB6F894DEBF0FBECDBF07C0BB
:101FD000823029F46CE472E080E892E02EDA80919D
:101FE00010018B3030F060E087EA92E0C8DA10929E
:101FF00010013D81332321F180916902882371F022
:102000001092690260E08DEA92E0B9DA10927802EB
:102010001092790210927A0210927B0261E087EAB4
:1020200092E0ADDA109210018091640290E0019686
:1020300063E070E06BD08093640280E892E0B6D8F1
:1020400020E030E040E85FE3C701B601B5D287FD8C
:1020500006C081E0809369021092640206C010926B
:10206000690260E08DEA92E08ADA80916B0288234F
:1020700009F4EFCD8091640281111CC040E069E059
:1020800080E892E00E94EB076EE880E892E094D945
:102090008091690281110EC061E08DEA92E06FDAF1
:1020A000AFE1BEE41197F1F700C0000060E08DEAF7
:1020B00092E065DA10926B02CCCD10929E021092E3
:1020C0009D021092A00210929F020895991B79E040
:1020D00004C0991F961708F0961B881F7A95C9F7B8
:1020E00080950895AA1BBB1B51E107C0AA1FBB1F07
:1020F000A617B70710F0A61BB70B881F991F5A9594
:10210000A9F780959095BC01CD01089597FB072E06
:1021100016F4009406D077FD08D0E4DF07FC05D064
:102120003EF4909581959F4F0895709561957F4FEE
:102130000895A1E21A2EAA1BBB1BFD010DC0AA1F08
:10214000BB1FEE1FFF1FA217B307E407F50720F020
:10215000A21BB30BE40BF50B661F771F881F991F9B
:102160001A9469F760957095809590959B01AC01E4
:10217000BD01CF010895052E97FB16F400940FD0F2
:1021800057FD05D0D6DF07FC02D046F408C05095B5
:102190004095309521953F4F4F4F5F4F0895909553
:1021A0008095709561957F4F8F4F9F4F0895EE0FEB
:1021B000FF1F0590F491E02D099440D0A59F900D4C
:1021C000B49F900DA49F800D911D112408952F920E
:1021D0003F924F925F926F927F928F929F92AF92B7
:1021E000BF92CF92DF92EF92FF920F931F93CF9304
:1021F000DF93CDB7DEB7CA1BDB0B0FB6F894DEBF9B
:102200000FBECDBF09942A88398848885F846E84C0
:102210007D848C849B84AA84B984C884DF80EE800A
:10222000FD800C811B81AA81B981CE0FD11D0FB613
:10223000F894DEBF0FBECDBFED010895A29FB0019F
:10224000B39FC001A39F700D811D1124911DB29FEA
:10225000700D811D1124911D08955058BB27AA2788
:102260000ED070C161D130F066D120F031F49F3FC3
:1022700011F41EF456C10EF4E095E7FB4CC1E92FB2
:1022800072D180F3BA17620773078407950718F0B5
:1022900071F49EF58AC10EF4E0950B2EBA2FA02D95
:1022A0000B01B90190010C01CA01A0011124FF2703
:1022B000591B99F0593F50F4503E68F11A16F040FE
:1022C000A22F232F342F4427585FF3CF46953795FD
:1022D0002795A795F0405395C9F77EF41F16BA0BC2
:1022E000620B730B840BBAF09150A1F0FF0FBB1F70
:1022F000661F771F881FC2F70EC0BA0F621F731FB9
:10230000841F48F4879577956795B795F7959E3F15
:1023100008F0B3CF9395880F08F09927EE0F9795A3
:1023200087950895D4D008F481E008950CD00AC1AF
:1023300002D140F0F9D030F021F45F3F19F0EBC04A
:10234000511134C1EEC00FD198F39923C9F355232D
:10235000B1F3951B550BBB27AA2762177307840798
:1023600038F09F5F5F4F220F331F441FAA1FA9F34E
:1023700033D00E2E3AF0E0E830D091505040E69540
:10238000001CCAF729D0FE2F27D0660F771F881FA1
:10239000BB1F261737074807AB07B0E809F0BB0B90
:1023A000802DBF01FF2793585F4F2AF09E3F5105B4
:1023B00068F0B1C0FBC05F3FECF3983EDCF386955C
:1023C00077956795B795F7959F5FC9F7880F911D2A
:1023D0009695879597F90895E1E0660F771F881F16
:1023E000BB1F621773078407BA0720F0621B730BC9
:1023F000840BBA0BEE1F88F7E0950895BCD088F0E7
:102400009F5790F0B92F9927B751A0F0D1F0660FE0
:10241000771F881F991F1AF0BA95C9F712C0B130FB
:1024200081F0C3D0B1E00895C0C0672F782F88270E
:10243000B85F39F0B93FCCF3869577956795B3953A
:10244000D9F73EF490958095709561957F4F8F4FA9
:102450009F4F0895E89409C097FB3EF490958095AE
:10246000709561957F4F8F4F9F4F9923A9F0F92F5A
:1024700096E9BB279395F695879577956795B795D8
:10248000F111F8CFFAF4BB0F11F460FF1BC06F5FBE
:102490007F4F8F4F9F4F16C0882311F096E911C0D0
:1024A000772321F09EE8872F762F05C0662371F0F1
:1024B00096E8862F70E060E02AF09A95660F771F05
:1024C000881FDAF7880F9695879597F90895990FE1
:1024D0000008550FAA0BE0E8FEEF16161706E807EE
:1024E000F907C0F012161306E407F50798F0621B0F
:1024F000730B840B950B39F40A2661F0232B242BE4
:10250000252B21F408950A2609F4A140A6958FEF02
:10251000811D811D089597F99F6780E870E060E054
:1025200008959FEF80EC089500240A94161617066C
:1025300018060906089500240A94121613061406B4
:1025400005060895092E0394000C11F4882352F017
:10255000BB0F40F4BF2B11F460FF04C06F5F7F4FCF
:102560008F4F9F4F089557FD9058440F551F59F0B6
:102570005F3F71F04795880F97FB991F61F09F3F70
:1025800079F087950895121613061406551FF2CF99
:102590004695F1DF08C0161617061806991FF1CFE9
:1025A00086957105610508940895E894BB27662710
:1025B0007727CB0197F908958ADF08F48FEF089504
:1025C0000BD0C0CFB1DF28F0B6DF18F0952309F0AB
:1025D000A2CFA7CF1124EACFC6DFA0F3959FD1F3F6
:1025E000950F50E0551F629FF001729FBB27F00DC1
:1025F000B11D639FAA27F00DB11DAA1F649F662716
:10260000B00DA11D661F829F2227B00DA11D621F64
:10261000739FB00DA11D621F839FA00D611D221F1E
:10262000749F3327A00D611D231F849F600D211D02
:10263000822F762F6A2F11249F5750408AF0E1F0A5
:1026400088234AF0EE0FFF1FBB1F661F771F881FEE
:1026500091505040A9F79E3F510570F05CCFA6CF36
:102660005F3FECF3983EDCF3869577956795B795D9
:10267000F795E7959F5FC1F7FE2B880F911D969503
:10268000879597F90895283008F027E03327DA0175
:10269000990F311D87FD916000966105710539F430
:1026A00032602E5F3D9330E32A95E1F708959F3F16
:1026B00030F080387105610509F03C5F3C5F3D9367
:1026C000913008F08068911DDF93CF931F930F9393
:1026D000FF92EF92192F987F9695E92F96959695F0
:1026E000E90FFF27EB5DFA4F99273327EE24FF24EC
:1026F000A701E70105900894079428F4360FE71E18
:10270000F81E491F511D660F771F881F991F0694D9
:10271000A1F70590079428F4E70EF81E491F561FED
:10272000C11D770F881F991F661F0694A1F705909A
:10273000079428F4F80E491F561FC71FD11D880F94
:10274000991F661F771F0694A1F70590079420F440
:10275000490F561FC71FD81F990F661F771F881F65
:102760000694A9F784911095177041F0D695C795F6
:1027700057954795F794E7941A95C1F7EBECF4E079
:1027800068941590159135916591959105907FE22A
:102790007395E118F10A430B560BC90BD009C0F72A
:1027A000E10CF11E431F561FC91FD01D7EF470336C
:1027B00011F48A95E6CFE894015030F0080F0AF43E
:1027C0000027021708F4202F2395022F7A3328F0D0
:1027D00079E37D932A95E9F710C07D932A9589F6D0
:1027E000069497956795379517951794E118F10A10
:1027F000430B560BC90BD00998F023957E91739526
:102800007A3308F070E37C932013B8F77E917061FF
:102810007D9330F0839571E37D9370E32A95E1F722
:102820001124EF90FF900F911F91CF91DF91992785
:1028300087FD90950895FC0105906150704001104E
:10284000D8F7809590958E0F9F1F0895FB01DC01AE
:1028500001900D920020E1F70895FC016150704055
:1028600001900110D8F7809590958E0F9F1F0895C5
:102870000F931F93CF93DF93182F092FEB018B81B9
:1028800081FD03C08FEF9FEF20C082FF10C04E81FB
:102890005F812C813D81421753077CF4E881F981E7
:1028A0009F012F5F3F4F39832883108306C0E8853F
:1028B000F985812F0995892B29F72E813F812F5F7B
:1028C0003F4F3F832E83812F902FDF91CF911F9118
:1028D0000F910895AEE0B0E0EFE6F4E186CC8C0114
:1028E000CA0146E04C831A83098377FF02C060E087
:1028F00070E8615071097E836D83A901BC01CE012E
:1029000001960E940D034D815E8157FD0AC02F8103
:102910003885421753070CF49A01F801E20FF31FB0
:1029200010822E96E4E07DCCFA01AA27283051F1DE
:10293000203181F1E8946F936E7F6E5F7F4F8F4FF0
:102940009F4FAF4FB1E03ED0B4E03CD0670F781F4F
:10295000891F9A1FA11D680F791F8A1F911DA11D34
:102960006A0F711D811D911DA11D20D009F468946D
:102970003F912AE0269F11243019305D3193DEF615
:10298000CF010895462F4770405D4193B3E00FD0CB
:10299000C9F7F6CF462F4F70405D4A3318F0495DB6
:1029A00031FD4052419302D0A9F7EACFB4E0A69599
:1029B0009795879577956795BA95C9F700976105BB
:1029C000710508959B01AC010A2E06945795479511
:1029D00037952795BA95C9F7620F731F841F951F06
:0829E000A01D0895F894FFCF3B
:1029E8008182830084858600878889008A8B8C0091
:1029F80001756E6B6E6F776E0053424D3230005327
:102A080049323942470053424D313900205354531B
:102A18003500534932324700534933424700534245
:102A28004D32310020534931470019011F01260159
:102A38002C01320138013E0144012020204C4F571F
:102A4800202020200020204E4F524D414C202000B5
:102A58002020204849474820202000202044414E7B
:102A6800474552202000776169740053762F68002B
:102A7800253032643A253032643A253032642025D4
:102A88006320257325312E33662563537620202055
:102A980025312E3166256325632563256325632546
:102AA80063256325632563256325632563256325DE
:102AB80063256320252E3266202563257320256330
:102AC80025632563257325632563253364562025EF
:102AD8003032642525202530336425632563004181
:102AE80062732E202072656164696E677354696D24
:102AF800653A20253032643A253032643A2530323E
:102B08006450753A20253031306C754176672563FD
:102B18003A202530386C754D617825633A20253088
:102B2800386C752573207475626520004E6F2045DA
:0A2B3800746865726E65742E00006B
:00000001FF
