:10000000EFC500000C94ED2914C6000012C60000D4
:1000100010C600000EC600000C9481290AC600001C
:1000200008C6000006C6000004C6000002C60000A4
:1000300000C60000FEC50000FCC50000FAC50000B7
:100040000C94C729F6C50000F4C50000F2C50000F5
:10005000F0C50000EEC50000ECC50000EAC50000D8
:10006000E8C50000E6C50000CF20D420B420D92088
:10007000D920BC20B820C120C620D920CB206E6159
:100080006E00696E66000D0A436F6E74656E742DA6
:10009000547970653A206170706C69636174696F3E
:1000A0006E2F782D7777772D666F726D2D75726C48
:1000B000656E636F6465640D0A0D0A00436F6E74AC
:1000C000656E742D4C656E6774683A2000416363F9
:1000D0006570743A202A2F2A0D0A000D0A5573659F
:1000E000722D4167656E743A20755241444D6F6EB2
:1000F00069746F722F312E310D0A0020485454500C
:100100002F312E310D0A486F73743A2000504F532F
:100110005420000D0A557365722D4167656E743A5F
:1001200020755241444D6F6E69746F722F312E31BC
:100130000D0A4163636570743A20746578742F68A2
:10014000746D6C0D0A0D0A0020485454502F312E46
:10015000310D0A486F73743A20004745542000005F
:100160000108000604000145000082000040002054
:10017000000000000000002F00000007000700142E
:100180007F147F14242A7F2A123234081626364917
:100190005522500005030000001C224100004122AE
:1001A0001C0014083E081408083E080800005030DF
:1001B00000101010101000606000002010080402F1
:1001C0003E5149453E00427F40004261514946212F
:1001D00041454B311814127F1027454545393C4A9B
:1001E00049493001710905033649494936064949EB
:1001F000291E003636000000563600000814224141
:1002000000141414141400412214080201510906A8
:10021000324959513E7E1111117E7F494949363E7E
:10022000414141227F4141221C7F494949417F0987
:100230000909013E4149497A7F0808087F00417F4A
:1002400041002040413F017F081422417F4040404F
:10025000407F020C027F7F0408107F3E4141413EF7
:100260007F090909063E4151215E7F091929464649
:100270004949493101017F01013F40403F001F20B2
:1002800040201F3F4038403F631408146307087044
:1002900008076151494543007F414100552A552ACD
:1002A000550041417F0004020102044040404040AB
:1002B000000102040020545454787F4844443838E4
:1002C00044444420384444487F3854545418087EE9
:1002D0000901020C5252523E7F0804047800447D0A
:1002E00040002040443D007F1028440000417F40F2
:1002F000007C041804787C080404783844444438AA
:100300007C14141408081414187C7C08040408488D
:1003100054545420043F4440203C4040207C1C2046
:1003200040201C3C4030403C44281028440C505095
:10033000503C4464544C44007F3E1C08081C3E7FE3
:1003400000087C7E7C08103E7E3E103E3E3E3E3ED7
:10035000007F3E1C087F415D55554949495D494133
:1003600041417F1C7F415D5D5D5D5D5D5D5D5D5D0E
:10037000417F1C7F415D5D5D5D5D59514141414162
:100380007F1C7F415D595141414141414141417F84
:100390001C403C101C0004263826046715601763B7
:1003A0007C7C0C0C0C0C0C0C7C7C7F7F0000000017
:1003B00000007F7F0C0C0C0C0C0F0F0C0C0C0C0CA9
:1003C0000C0F0F1C1C3E7F001A142E5F2007755D5A
:1003D000577005725D507000070507001F057228F1
:1003E000704E6F2045746865726E65742E0A436F97
:1003F0006E6E656374206361626C6520616E64205B
:10040000726573746172742E002533752E253375F1
:100410002E2533752533752533752E2533752E25F9
:1004200033752533752533752E2533752E25337594
:100430002533752533752E2533752E2533752533D4
:10044000752534752F2534752F25347555706C6FCF
:1004500061642025303464736563004B4954312056
:10046000202530386C5854696D653A202530326447
:100470003A253032643A2530326420202020202072
:10048000202020202020202020202020202020206C
:10049000202020202020202020202020202020205C
:1004A0002020202025732074756265202564002596
:1004B0003032643A253032643A2530326425632084
:1004C000256325732530352E3166202530346C7533
:1004D000202530332E30662563256343256325634D
:1004E00025632563682563256325635248256325B5
:1004F0006320252E3266202563257320256325631E
:100500002563257325632563253364562025303202
:10051000642525202530336425632563002020448D
:10052000414E47455220200020202048494748207E
:1005300020200020204E4F524D414C2020002020F2
:10054000204C4F572020202000485454502F312E4B
:10055000302034303120556E617574686F72697A5D
:1005600065640D0A436F6E74656E742D5479706501
:100570003A20746578742F68746D6C0D0A0D0A3C0E
:1005800068313E34303120556E617574686F726920
:100590007A65643C2F68313E003C68723E3C6120C5
:1005A000687265663D222F6A223E4A534F4E3C2FA9
:1005B000613E205B253033755D00696E746572762F
:1005C000616C3A257520687474703A25752025751C
:1005D0002F25750069703A25752E25752E25752EE7
:1005E00025753C62723E7365727665723A25752E8A
:1005F00025752E25752E25753C62723E007570742A
:10060000696D653A256C7573207764743A25757346
:100610002F2575733C62723E3C62723E00766F6CB1
:10062000746167653A2575563C62723E64757479EB
:100630003A257525253C62723E6672657175656E58
:1006400063793A252E32666B487A3C62723E0068C6
:10065000756D696474793A252E326652483C62722F
:100660003E0074656D70657261747572653A252E11
:100670003266433C62723E70726573737572653A9E
:10068000256C7550613C62723E00726164696174F0
:10069000696F6E3A256C7543504D3C62723E007432
:1006A0007970653A25582068773A25752073773A2E
:1006B00025752025733C68723E003C623E755241B0
:1006C000444D6F6E69746F72202530386C583C2F22
:1006D000623E3C62723E00485454502F312E30200E
:1006E000323030204F4B0D0A436F6E74656E742D9F
:1006F000547970653A20746578742F68746D6C0D48
:100700000A507261676D613A206E6F2D6361636894
:10071000650D0A0D0A0022757074696D65223A2014
:10072000256C757D7D002274656D706572617475D0
:100730007265223A252E32662C22707265737375AB
:100740007265223A256C752C2268756D696469742E
:1007500079223A252E32662C002274797065223A6D
:10076000222558222C226465746563746F72223AC4
:10077000222573222C2263706D223A256C752C0081
:100780007B2264617461223A7B20226964223A22CE
:100790002530386C58222C00485454502F312E30BC
:1007A00020323030204F4B0D0A436F6E74656E74EB
:1007B0002D547970653A20746578742F68746D6C67
:1007C0000D0A507261676D613A206E6F2D6361632F
:1007D00068650D0A0D0A002F6170692F76312F753B
:1007E000706C6F61642F6578702F00646174612E86
:1007F000757261646D6F6E69746F722E636F6D00D8
:1008000030312F256C752F30452F25752F30462F11
:1008100025752F30422F256C752F30432F25752FCE
:1008200030442F25752F30322F252E32662F30334E
:100830002F256C752F30342F252E32662F31302F17
:10084000257500582D557365722D69643A25730D11
:100850000A582D557365722D686173683A25730DBA
:100860000A582D4465766963652D69643A253038E8
:100870006C580D0A00755241444D6F6E69746F7269
:100880002D2530325800496E697420455448455230
:100890004E45540A2D2D2D2D2D2D2D2D2D2D2D2D4B
:1008A0002D2D436F6E6E656374206361626C650A03
:1008B000616E642077616974313573206F722070C6
:1008C0007265737320627574746F6E0A746F20673B
:1008D0006F206F66666C696E652E00726573657455
:1008E00000616C61726D006265657000000000005F
:1008F00000000000000000000000000000000000F8
:10090000008080C0C0E0E0F0F0F8F8F8FCFCFCFCEF
:10091000FEFE7E7E7E3F3FBFBFBF9FDFDFDF5F5FAC
:100920005FDF9F1E1E1E1E1E1C1C1C1C1818383844
:10093000303030606040C0808080000000000000E7
:10094000000000000000000000000080C0E0F0F89F
:10095000FCFCFEFFFFFFFFFF7F3FBFDF4F6F271352
:100960001B090D050C1E7EFFFFFFFFFFFF3F1F074A
:1009700001000000000001030E3CF0C00000000078
:100980000000000000000000000000000001010065
:10099000020000000000000080E0F0F8FCFEFFFF15
:1009A000FFFFFFFF7F3F1F0F070301FCFEE3E1E0B6
:1009B000E0E0E0E0E0E0E0E0F0FCFEFFFFFFFFFF52
:1009C000FFFEF8E0E0E0E0E0E0E0E0E0E0E0E0FFB3
:1009D000FE00000000000000000000000000000019
:1009E00000000000000000000070FCFFFFFFFFFFA0
:1009F000FFFFFFFF7F0F0701000000000000000164
:100A00000F3FFFFFFFFFFFFFFFFFFFFF3F0F03034E
:100A10000303030303071F7FFFFFFFFFFFFFFFFF2A
:100A2000FF7F3F0700000000000000000000000002
:100A300000000000000000000000000000000000B6
:100A4000010103030707070F0F0E1E1C383030602B
:100A5000604040800000000103070F1F1F37316016
:100A6000606040C0C0C0C0C0C040606020333F1F55
:100A70000F0F07030100000000000000000000004D
:100A80000000000000000000000000000000000066
:100A90000000000000000000000000003840403866
:100AA0000000007E324C00601C121C6000007E4280
:100AB00024180000007806384038067800003048D6
:100AC0004830000078080870007A0000087E0800AE
:100AD00000304848300000780800000000000000A6
:100AE0000000000000407A10F35A00A0724E18096E
:100AF0000010A5D4E80000E87648170000E40B5485
:100B0000020000CA9A3B000000E1F5050000809653
:100B10009800000040420F000000A0860100000085
:100B2000102700000000E80300000000640000003F
:100B300000000A00000000000100000000002C7608
:100B4000D888DC674F0823DFC1DFAE59E1B1B79623
:100B5000E5E3E453C63AE651997696E8E6C2842680
:100B6000EB898C9B62ED407C6FFCEFBC9C9F40F25C
:100B7000BAA56FA5F490055A2AF75C936B6CF967D8
:100B80006DC11BFCE0E40D47FEF520E6B500D0ED9D
:100B9000902E0300943577050080841E0800002005
:100BA0004E0A000000C80C333333330F986E1283A3
:100BB0001141EF8D2114893BE65516CFFEE6DB1877
:100BC000D1844B381BF77C1D901DA4BBE42420323C
:100BD00084725E228100C9F124ECA1E53D27342F07
:100BE00011241FBECFEFD8E0DEBFCDBF6DD411E022
:100BF000A0E0B1E0E2E4FBE602C005900D92A83D62
:100C0000B107D9F726E0A8EDB1E001C01D92AD37DC
:100C1000B207E1F71BE0C0EEDBE004C02297FE0163
:100C20000E94C130CE3DD107C9F70E94262A0C94FC
:100C30009F35E6C9A3E1B0E0E0E2F6E00C94E430D1
:100C40007C011B016A01FC0117821682838181FFEE
:100C500066C3BE016F5F7F4F4B01F7019381F101C6
:100C600093FD859193FF81911F01882309F453C35C
:100C7000853239F493FD859193FF81911F0185326F
:100C800039F4B70190E00E94823456016501E5CF46
:100C900010E0512C20E02032A0F48B3269F030F4C7
:100CA000803259F0833269F420612CC08D3239F0E2
:100CB000803339F4216026C02260246023C028607C
:100CC00021C027FD27C030ED380F3A3078F426FFD9
:100CD00006C0FAE01F9F300D1124132F13C06AE0E5
:100CE000569E300D1124532E20620CC08E3221F4FA
:100CF00026FD11C3206406C08C3611F4206802C0A2
:100D0000883641F4F10193FD859193FF81911F0194
:100D10008111C1CF9BEB980F933018F42061805E56
:100D200006C09BE9980F933008F0AAC12F7E26FFDA
:100D300016E02F73722E853621F4F22FF0647F2E89
:100D400008C0863621F4622F6068762E02C0111129
:100D5000115077FE07C01C3348F444244394410EDD
:100D600027E00BC0183030F4212F06C027E04CE3F9
:100D7000442E03C027E017E0412C560174E0A70E73
:100D8000B11CF6016081718182819381042DA401DF
:100D90000E94E9326C01098100FF02C003FF06C016
:100DA00071FC07C072FC08C0612C08C03DE2632ED4
:100DB00005C02BE2622E02C090E2692E802F8C705B
:100DC00099F1662011F084E001C083E0851510F0F0
:100DD000512C0BC0581A73FC08C0B70180E290E098
:100DE0000E9482345A94C9F7F3CF662029F0B701E4
:100DF000862D90E00E94823403FD03C002E810E0DB
:100E000002C00EE710E0F72DF0717F2EF8018491FB
:100E1000882309F476C271108052B70190E00E94D5
:100E200082340F5F1F4FF2CF77FE0FC04C0C04FFD0
:100E300004C08A81813309F44A94141474F5F8E0EB
:100E4000F41578F588E0482E2CC076FC2AC0812F56
:100E500090E08C159D059CF06CEFC6166FEFD606E2
:100E600074F0772D7068772E0AC0E2E0F0E0EC0FA6
:100E7000FD1FE10FF11D8081803319F41150111114
:100E8000F4CF77FE0EC044244394410E812F90E0AE
:100E9000C816D9062CF41C1904C04424439401C07C
:100EA00010E077FE07C01C141D043CF496012F5F70
:100EB0003F4F05C025E030E002C021E030E0662071
:100EC00011F02F5F3F4F112331F0412F50E04F5F62
:100ED0005F4F240F351F452D50E02417350714F4BC
:100EE000521A01C0512C872D897049F4552039F0D0
:100EF000B70180E290E00E9482345A94F7CF6620D6
:100F000029F0B701862D90E00E94823473FC09C05D
:100F1000552039F0B70180E390E00E9482345A9462
:100F2000F7CF77FE5FC09C2D8D2DD7FE02C090E0DD
:100F300080E0692E782E40E050E0C60184199109C6
:100F40009D878C87960126193709280D391D812F19
:100F500090E0EE27FF27E81BF90BFF87EE87FFEFF6
:100F60006F167F0669F4B7018EE290E02B8B3A8B07
:100F7000488B598B0E948234598948893A892B8938
:100F8000C614D70454F06C857D85661577052CF45E
:100F9000F901E40FF51F818101C080E371E0671A58
:100FA00071084F5F5F4FEE85FF856E167F066CF010
:100FB000B70190E02B8B3A8B488B598B0E9482347F
:100FC0002B893A8948895989CACF6C147D0439F430
:100FD0009A81963318F4953311F404FF81E3B70135
:100FE00090E04BC08A81813309F00F7EB70190E019
:100FF0000E948234111105C074FE18C085E490E08F
:1010000017C0B7018EE290E00E94823482E066242D
:101010006394680EF401E80FF11D8081B70190E040
:101020000E948234115041F3862DF1CF85E690E085
:10103000B7010E948234D7FC05C0C114D10439F431
:1010400004FF05C0D194C194D1088DE201C08BE2A8
:10105000B70190E00E94823480E36AE0C616D104B2
:101060002CF08F5FFAE0CF1AD108F7CFB70190E0EC
:101070000E948234B701C601C0960E94823441C1E9
:10108000833631F0833779F0833509F058C021C0B9
:10109000560172E0A70EB11CF6018081898301E040
:1010A00010E0640114C05601F2E0AF0EB11CF6016D
:1010B000C080D18026FF03C0612F70E002C06FEFB7
:1010C0007FEFC6012B8B0E9432348C012B892F7746
:1010D00015C05601F2E0AF0EB11CF601C080D18000
:1010E00026FF03C0612F70E002C06FEF7FEFC601E3
:1010F0002B8B0E94CF338C012B892068722E23FD0D
:101100001AC0852D90E008171907A8F4B70180E2EE
:1011100090E00E9482345A94F4CFF60177FC8591D6
:1011200077FE81916F01B70190E00E9482345110E7
:101130005A94015011090115110579F7E2C084365E
:1011400011F0893651F5560127FF09C0F4E0AF0EC2
:10115000B11CF60160817181828193810AC0F2E045
:10116000AF0EB11CF60160817181882777FD8095F3
:10117000982F022F0F7697FF08C090958095709555
:1011800061957F4F8F4F9F4F00682AE030E0A401A8
:101190000E94FE34C82EC8183EC0022F853721F4A5
:1011A0000F7E2AE030E01DC0097F8F3691F018F4E1
:1011B000883559F0B0C0803719F0883711F0ABC0CE
:1011C000006104FF09C0046007C024FF08C0066076
:1011D00006C028E030E005C020E130E002C020E198
:1011E00032E0560107FF09C0F4E0AF0EB11CF60172
:1011F000608171818281938108C0F2E0AF0EB11CE1
:10120000F6016081718180E090E0A4010E94FE34CB
:10121000C82EC8180F7706FF0BC0202F2E7FC116CF
:1012200050F404FF0AC002FD08C0202F2E7E05C026
:10123000DC2C202F03C0DC2C01C0D12E24FF0DC0DC
:10124000FE01EC0DF11D8081803311F4297E09C06F
:1012500022FF06C0D394D39404C0822F867809F06D
:10126000D39423FD13C020FF06C01C2DD51418F401
:10127000150D1D19D52CD51468F4B70180E290E046
:101280002B8B0E948234D3942B89F5CFD51410F484
:101290005D1801C0512C24FF12C0B70180E390E01B
:1012A0002B8B0E9482342B8922FF17C021FF03C0A1
:1012B00088E590E002C088E790E0B7010CC0822F7B
:1012C000867859F021FD02C080E201C08BE227FD43
:1012D0008DE2B70190E00E948234C11638F4B70164
:1012E00080E390E00E9482341150F7CFCA94F40159
:1012F000EC0DF11D8081B70190E00E948234C11095
:10130000F5CF552009F4C2CCB70180E290E00E94ED
:1013100082345A94F6CFF7018681978102C08FEF0D
:101320009FEF6396E2E10C940031FC01778B668BB2
:10133000518F408FEEE6F0E0808181608083789469
:1013400085B5836085BD0895FC01628173818481C8
:1013500095812CE330E040E050E00E948130862F00
:101360000895CF92DF92EF92FF92FC016281738128
:10137000848195812CE3C22ED12CE12CF12CA70184
:1013800096010E948130CA01B901A70196010E940D
:101390008130862FFF90EF90DF90CF900895FC0171
:1013A000628173818481958120E13EE040E050E0DC
:1013B0000E948130CA01B90128E130E040E050E0EC
:1013C0000E948130862F0895CF93DF93EC018881AE
:1013D0009981019699838883883E914098F16A812A
:1013E0007B818C819D816F5F7F4F8F4F9F4F6A8381
:1013F0007B838C839D836115710581059105D9F0EF
:101400002CE330E040E050E00E948130672B682BF5
:10141000692B89F44E815F81688579854F5F5F4FC5
:101420006F4F7F4F4E835F8368877987E88DF98D93
:10143000309709F00995EE89FF89309709F00995F1
:1014400019821882DF91CF910895CF93DF93633093
:1014500008F060E0FC0124E0629FE00DF11D112422
:10146000EC018A819B81AC81BD8182879387A487AF
:10147000B587DF91CF9108950F931F93633008F0E4
:1014800060E0FC0104E0609FE00DF11D1124428545
:10149000538564857585FC0182819381A481B58122
:1014A000481759076A077B0748F48C019D01041B04
:1014B000150B260B370BC901B80103C060E070E0C3
:1014C000CB011F910F91089514BE88E10FB6F894D7
:1014D00080936000109260000FBE0895FC0114829A
:1014E000158216821782408351836283738384B787
:1014F000877F84BFE0E6F0E088E1808386E4808334
:1015000078940895FC014083518362837383089526
:10151000FC0160817181828193810895FC01848145
:1015200095810895FC011482158216821782A89570
:101530000895E0E6F0E088E1808389E08083089503
:101540000F931F93CF93DF93CDB7DEB76A970FB694
:10155000F894DEBF0FBECDBF8C012AE1AE014F5F14
:101560005F4F68E88CEE0E9423208A8190E0982FDC
:1015700088272981822BF801918380838C8190E0D8
:10158000982F88272B81822B938382838E8190E0F2
:10159000982F88272D81822B95838483888590E0DE
:1015A000982F88272F81822B978386838A8590E0C6
:1015B000982F88272985822B918780878C8590E0BA
:1015C000982F88272B85822B938782878E8590E0A2
:1015D000982F88272D85822B95878487888990E08E
:1015E000982F88272F85822B978786878A8990E076
:1015F000982F88272989822B918B808B8C8990E06A
:10160000982F88272B89822B938B828B8E8990E051
:10161000982F88272D89822B958B848B888D90E03D
:10162000982F88272F89822B978B868B8A8D808F86
:1016300027E0AE014F5F5F4F61EE8CEE0E942320EA
:101640008A8190E0982F88272981822BF801928F38
:10165000818F8B81838F2D81322F3F708C81F0E1C0
:101660008F9FC0011124832BF801958F848F8E8169
:10167000F0E18F9FC001112422952F70822BF80179
:10168000978F868F8F8180A36A960FB6F894DEBFFE
:101690000FBECDBFDF91CF911F910F9108950F9392
:1016A0001F93CF93DF931F92CDB7DEB78C011982C2
:1016B00021E0AE014F5F5F4F60ED8CEE0E94232072
:1016C0008981803671F4C8013BDF43E062EF8CEE24
:1016D0000E9406204FE364EF8CEE0E94062081E01A
:1016E00001C080E00F90DF91CF911F910F9108957D
:1016F0002F923F924F925F926F927F928F929F9222
:10170000AF92BF92CF92DF92EF92FF920F931F930F
:10171000CF93DF93CDB7DEB767970FB6F894DEBFF0
:101720000FBECDBF8C017B015B8B4A8B3D8B2C8B1D
:1017300028E0AE014F5F5F4F67EF8CEE0E942320E1
:101740008D8190E0A0E0B0E024E0880F991FAA1FEF
:10175000BB1F2A95D1F74C8150E060E070E03CE07F
:10176000440F551F661F771F3A95D1F7842B952B91
:10177000A62BB72B4E8150E064E0559547956A95AE
:10178000E1F7662757FD6095762F842B952BA62BC6
:10179000B72BF80180809180A12CB12C2C013D0148
:1017A00074E075946794579447947A95D1F74818E4
:1017B00059086A087B089C01AD01A3E0559547953F
:1017C00037952795AA95D1F7880C991CAA1CBB1CA4
:1017D000281939094A095B09A281B3810E94DE30C8
:1017E0004B015C018BE0B594A794979487948A95FC
:1017F000D1F7A3019201C301B2010E944B309B01BA
:10180000AC019CE055954795379527959A95D1F76A
:10181000A481B5810E94DE302EE09595879577955D
:1018200067952A95D1F7860E971EA81EB91EA5E0CA
:10183000B0E0A50194010E94D43060587F4F8F4FD3
:101840009F4F672F782F892F992787FD9A950E94A0
:10185000B53120E030E048EC52E40E941F31D7015E
:101860006D937D938D939C931397E981EE8BFA8111
:10187000FF8BEB81ED87A501940155954795379531
:1018800027953A5F4109510929873A874B875C8739
:10189000CA01B901E2E09595879577956795EA9534
:1018A000D1F79B01AC010E944B306B017C01D80148
:1018B00050960D90BC91A02DBF87AE87F80106848D
:1018C000F785E02DF98BE88BD8011C962D903C9084
:1018D0001D971A960D90BC91A02D9B01AC01FDE0C7
:1018E0005595479537952795FA95D1F70E94DE30A3
:1018F0002B013C01A3E07594679457944794AA95F3
:10190000D1F7F801A085B18529853A854B855C859D
:101910000E94DE309595879577956795460E571E00
:10192000681E791E82E175946794579447948A954E
:10193000D1F7F0E85F0E611C711CF801A681B78138
:10194000A30192010E94D4302B013C019FE07594C9
:101950006794579447949A95D1F7411451046104C0
:10196000710409F4E9C0A70196016BE0559547950C
:10197000379527956A95D1F7AE85BF850E94DE30F1
:101980006B017C01A889B98929853A854B855C85DD
:101990000E94DE30660F771F881F991FC60ED71E64
:1019A000E81EF91EF2E0F594E794D794C794FA95EF
:1019B000D1F7FF898F2F90E0A0E0B0E024E0880FFE
:1019C000991FAA1FBB1F2A95D1F7EE894E2F50E011
:1019D00060E070E03CE0440F551F661F771F3A95AA
:1019E000D1F7842B952BA62BB72BFD854F2F50E0DD
:1019F00060E070E0E4E07595679557954795EA9546
:101A0000D1F7842B952BA62BB72B22273327A9019F
:101A1000281B390B4A0B5B0BC101AA2797FDA09528
:101A2000BA2FDC0199278827C80ED91EEA1EFB1E93
:101A3000ACE0F594E794D794C794AA95D1F72C1904
:101A40003D094E095F09A5E3BCE00E94D430805BEC
:101A50009C4397FD0BC0660F771F881F991FA3013A
:101A600092010E94813029013A010AC0A30192012A
:101A70000E94813029013A01440C551C661C771CD8
:101A8000C301B20133E096958795779567953A95AE
:101A9000D1F7D8015696ED91FC9157979B01AC0177
:101AA0000E944B309B01AC016DE0569547953795F0
:101AB00027956A95D1F7DF010E94DE306B017C012A
:101AC0007CE0F594E794D794C7947A95D1F7A30175
:101AD0009201E2E05695479537952795EA95D1F71B
:101AE000F801A489B5890E94DE30ADE0959587950F
:101AF00077956795AA95D1F7C60ED71EE81EF91EF1
:101B000082899389AA2797FDA095BA2FC80ED91E5E
:101B1000EA1EFB1EB4E0F594E794D794C794BA95F7
:101B2000D1F7C40CD51CE61CF71CAA89BB89CD9241
:101B3000DD92ED92FC921397BCE29B1AB1E0AB0AE6
:101B4000B108CF80D12CE12CF12CFE2CED2CDC2C1B
:101B5000CC248885C82AAEE0CC0CDD1CEE1CFF1C12
:101B6000AA95D1F7F801848D958DAA2797FDA095A8
:101B7000BA2F24E1880F991FAA1FBB1F2A95D1F7FE
:101B8000C81AD90AEA0AFB0AA68DB78DA5019401E5
:101B90000E94DE30C61AD70AE80AF90AF0E4DF0E1E
:101BA000E11CF11C6FE0F594E794D794C7946A9513
:101BB000D1F7F801A0A1BB27A7FDB0950E94DE30A8
:101BC0002B013C017AE075946794579447947A9579
:101BD000D1F7A38DB0E00E94D430ABE09595879506
:101BE00077956795AA95D1F770588F4F9F4FA301AE
:101BF00092010E944B309B01AC01BAE0559547958C
:101C000037952795BA95D1F7405E5F4FA18DB28D7C
:101C10000E94DE30705E8F4F9F4F1EE09595879536
:101C2000779567951A95D1F7A70196010E944B30D9
:101C30006B017C010FE095958795779567950A95DF
:101C4000D1F79B01AC010E944B309B01AC0187E0B6
:101C500055954795379527958A95D1F7A08DB0E092
:101C60000E94D43024E095958795779567952A95BD
:101C7000D1F7A7019601261B370B480B590BDA0148
:101C8000C90157FF03C080E090E0DC01813091057D
:101C9000A10539E1B30724F080E090E0A0E0B9E1CC
:101CA000BC01CD01E6E19595879577956795EA9515
:101CB000D1F70E94B531AC89BD896D937D938D9329
:101CC0009C93139767960FB6F894DEBF0FBECDBFF7
:101CD000DF91CF911F910F91FF90EF90DF90CF9008
:101CE000BF90AF909F908F907F906F905F904F903C
:101CF0003F902F900895DF92EF92FF920F931F93E2
:101D0000CF93DF9300D000D000D0CDB7DEB77C01F9
:101D1000D62E86E0E0E2F1E0DE01119601900D9210
:101D20008A95E1F78E010F5F1F4F23E430E0A80191
:101D300064E470E0C7010E948218D7015A961D9290
:101D40001D921D921C925D9781E09A968C939A97B2
:101D50009B968C939B9796E09C969C939C979E96C3
:101D60008C932D2D30E040E061E071E081E00E9435
:101D70004230F70167A770AB81ABF29684E1DF01D7
:101D80001D928A95E9F7D701AA5BBF4FBC9786E001
:101D900001900D928A95E1F7F701E45BFF4F8AEC21
:101DA000DF011D928A95E9F7E653FF4F83E68083B2
:101DB000319692E89083319693E5908331968083B3
:101DC00026960FB6F894DEBF0FBECDBFDF91CF9140
:101DD0001F910F91FF90EF90DF9008950F931F9345
:101DE000CF93DF93EC0187DFFE01E65EFE4F85E3D4
:101DF0008083319681E0808331968083319697E3AA
:101E00009083319692E0908331968083319683E07F
:101E100080836091D8017091D901FB01019000206D
:101E2000E9F78F0101501109061B170B0932110543
:101E300024F41016110694F402C008E210E08CE0BD
:101E4000FE01EF5DFE4F808331960083A801CE0135
:101E50008D5D9E4F0E9401340E5F1F4FCE01800F9B
:101E6000911FFC01EF5DFE4F2FEF20833196108212
:101E7000B80168507F4FCE010E94FB1880E0DF91CF
:101E8000CF911F910F9108956D3121E0720700F1FC
:101E90002AE131E0A9014E5F5F4F46175707C0F4B2
:101EA000FC01E20FF31FA181AA2391F02A0F311D3B
:101EB000D90111966A177B0758F0E081E53329F4C0
:101EC000FC01E40FF51F808108952E5F3F4FE2CFA4
:101ED00080E008956F3F710599F090F0FC0122AD0C
:101EE000222371F082AD93ADA4ADB5AD8093EA012C
:101EF0009093EB01A093EC01B093ED0181E0089584
:101F000080E00895FC016F3F710569F060F083A1E6
:101F1000833449F482A5823031F497A5941303C029
:101F200081E020A9291380E00895FC016F3F71052D
:101F300029F020F081E096A5923009F080E0089524
:101F40008F929F92AF92BF92CF92DF92EF92FF92C9
:101F50000F931F93CF93DF93EB016D3111E0710766
:101F600008F4CEC02091DA013091DB01D090DD0180
:101F700040E050E0BA01EAE1F1E04F0112E0810EE9
:101F8000911C8C169D0658F47F01AFEFEA1AFA0AED
:101F90008C010E0D1F1DD801BC90B11008C03093EC
:101FA000DB012093DA01D092DD0181E0AAC00B2D84
:101FB00010E0E00EF11ECE15DF0588F37C01EE0E79
:101FC000FF1ED701CC90B3E0CB1659F1BC1538F009
:101FD000CC2009F486C0A1E0CA1669F08CC0B5E334
:101FE000CB1609F463C0A6E3CA1609F464C0B3E3D0
:101FF000CB1281C02CC0A4E0BA127DC07C01E80CD9
:10200000F91CA2EEAA2EA1E0BA2ED701CD907D0137
:10201000D501CD925D01B6EEAB16B1E0BB06A9F7D6
:102020006AC0A4E0BA1267C07C01E80CF91CB6EEE5
:10203000AB2EB1E0BB2ED701CD907D01D501CD9265
:102040005D01BAEEAB16B1E0BB06A9F754C024E0BF
:10205000B21249C020E030E0762F652F542F44277C
:10206000D701A20FB31F1296AC914A2B2F5F3F4F9F
:102070002430310589F74F3FAFEF5A076A077A07D7
:10208000A9F1B6E07695679557954795BA95D1F73A
:102090004E3FBFEF5B076105710528F445305105E0
:1020A00040F19A0128C02DEF3FEF25C0D401A80FC1
:1020B000B91FDC9020C0A4E0BA121DC07C01E80C5E
:1020C000F91CAEEDAA2EA1E0BA2ED701CD907D016C
:1020D000D501CD925D01B2EEAB16B1E0BB06A9F71A
:1020E0000AC0FE0108C020EA35E005C02FEF3FEF2F
:1020F00002C025E030E00E5F1F4FE00FF11F3DCF23
:1021000080E0DF91CF911F910F91FF90EF90DF90D2
:10211000CF90BF90AF909F908F900895EF92FF92D5
:102120000F931F93CF93DF93EC01E5DDFE01E65E95
:10213000FE4F85E38083319681E08083319683E092
:1021400080838091DE018823A9F086E33196808325
:1021500084E0319680834091DE015091DF016091EF
:10216000E0017091E1013196408351836283738372
:1021700029E001C023E08091EA018823C9F0CE0163
:10218000820F911DFC01E65EFE4F32E330833196F3
:1021900034E0308331964091EA015091EB01609137
:1021A000EC017091ED0140835183628373832A5F58
:1021B000E22EF12CCE018E0D9F1DFC01E65EFE4F3E
:1021C00027E32083319622E02083319621E020838B
:1021D000319623E02083E091D801F091D901DF010D
:1021E0000D900020E9F78D01015011090E1B1F0B06
:1021F0000932110524F410161106C4F402C008E2D5
:1022000010E0FC01E25EFE4F2CE02083319600835B
:102210006091D8017091D901A801C701805E9E4FDD
:102220008C0F9D1F0E9401340E5F1F4FCE01800F47
:10223000911F8E0D9F1DFC01E25EFE4F2FEF20834C
:1022400031961082B7016B507F4F600F711FCE0126
:10225000D2D780E0DF91CF911F910F91FF90EF9047
:102260000895CF92DF92FF920F931F93CF93DF9346
:102270001F92CDB7DEB76C018B013093D90120934B
:10228000D8014983FDD24981882309F461C0011531
:10229000110519F58091000190910101823091059D
:1022A00059F481E090E09093010180930001109235
:1022B000EE014093DC013EC02091EA01211140C0B3
:1022C0002091EE01263008F43BC08091DC018F5F45
:1022D0008093DC011092EE012DC0F090DC014F2DB7
:1022E000B801C6010FDE882399F1B801C6011DDED1
:1022F000813071F1B801C601C7DD823081F481E01F
:1023000090E09093010180930001B801C601E2DDE5
:10231000B801C60115DE6F2DC60100DF19C085307A
:10232000B9F481E090E09093010180930001A2D282
:1023300081E00FC099D26091DC01C6014FDD08C079
:102340008330910528F0019790930101809300015B
:1023500080E00F90DF91CF911F910F91FF90DF9060
:10236000CF9008950F931F93009769F00091EA01B1
:102370001091EB012091EC013091ED01FC01008303
:102380001183228333836115710569F08091E20125
:102390009091E301A091E401B091E501FB018083FC
:1023A0009183A283B3834115510569F08091E601C1
:1023B0009091E701A091E801B091E901FA018083D1
:1023C0009183A283B3831F910F9108958091F401AB
:1023D0000895E0EFF1E02191DC012D93CD01B1E012
:1023E000E43FFB07C1F70895EF92FF920F931F930D
:1023F000CF93DF93EC01F62EE72E8A011092F401C1
:102400003FD2811105C084E08093EF0181E067C075
:102410001092EF018091F5018F5F8093F501682F95
:1024200070E0706E25E330E042E051E0CE016AD604
:102430008091F5018BA781E08CA7FE01BD9683E01A
:1024400011928F5F8C30E1F781E08FA7EF2DFE2D89
:1024500021E03CE04DE04F19642F6E0F5081862F34
:1024600090E0552391F05E3241F4DE01A30FB11DDF
:1024700021509A962C93362F20E05191DE01A80F1F
:10248000B91F9A965C932F5FE7CFFE01E30FF11D12
:10249000215022A7FE01E80FF91F12A681E0860F46
:1024A000FE01E80FF11D12A682E0860FFE01E80F83
:1024B000F11D81E082A793E0960FFE01E90FF11D67
:1024C00012A694E0960FFE01E90FF11D82A789EF95
:1024D000860F8AA76B5F70E0CE018DD680E0DF911A
:1024E000CF911F910F91FF90EF900895CF93DF93BD
:1024F000FC016634710508F466C083A1853309F0D8
:1025000062C084A1803E09F05EC085A19091F50172
:10251000891359C093A5981356C085A58F78803824
:1025200011F081E039C022A5245F61537109DF01F8
:10253000A20FB11D9A968C91807C61F02E5F0FC026
:1025400081E0820FDF01A80FB11D9A969C9199231B
:10255000A9F3282F822F90E08617970788F3DF01D1
:10256000A20FB11D9B968C919B97813081F088E0E2
:10257000820FDF01A80FB11D9B968C91265F280F5B
:10258000822F90E08617970790F283E005C0D396DC
:102590008C91843021F082E08093EF0114C0265F9B
:1025A000A0EFB1E080E090E0E20FF11DEF01C80F75
:1025B000D91F2AA52D93019684309105B9F781E0A2
:1025C0008093F40101C080E0DF91CF9108952A98B3
:1025D000962F9F71982B9EBD0DB407FEFDCF1EBC9C
:1025E0000DB407FEFDCF67FD03C02A9A8EB508958E
:1025F0001EBC0DB407FEFDCFF8CF2A986F71682B73
:102600006EBD0DB407FEFDCF4EBD0DB407FEFDCF70
:102610002A9A0895FB012A982AE32EBD0DB407FEDD
:10262000FDCF8E0F9F1FE817F90739F01EBC0DB4C0
:1026300007FEFDCF2EB52193F6CF10822A9A08957A
:102640002A982AE72EBD0DB407FEFDCF860F971FEF
:102650006817790741F0FB012191BF012EBD0DB430
:1026600007FEFDCFF5CF2A9A08951F93CF93DF93EE
:10267000182F1076C12FD0E02091F80130E0C2175A
:10268000D30779F043E06FE180EAB7DFAE0185E080
:10269000559547958A95E1F76FE180E8AEDF109395
:1026A000F801DF91CF911F910895CF93DF931F928F
:1026B000CDB7DEB7682F6983D8DF698180E00F90DE
:1026C000DF91CF9184CF1F93CF93DF931F92CDB72C
:1026D000DEB7182F6983C9DF4981612F80E40F902D
:1026E000DF91CF911F9189CFCF93682F84EDEBDFDE
:1026F00061E082EDE8DF8AEED8DF80FDFCCF60E0AC
:1027000082EDE1DF89EDD1DFC82F88EDCEDF2C2F00
:1027100030E0322F2227A901482BCA01CF9108951A
:102720001F93CF93DF931F92CDB7DEB7162F682F7D
:1027300084ED7983C8DF612F86EDC5DF7981672F4E
:1027400087EDC1DF18E28AEEB0DF80FF04C0812F81
:102750008A95F1F7F8CF0F90DF91CF911F910895EF
:10276000CF93DF93EC01229A2A9A84B1886284B9CC
:1027700024982B982D9880E58CBD8DB581608DBDFA
:102780004FEF60E08FEF39DF80E090E00197F1F7E5
:102790001092F7011092F60160E088E094DF60E0AB
:1027A00089E091DF60E08CE08EDF60E08DE08BDF20
:1027B0006FEF8AE088DF69E18BE085DF60E084E02D
:1027C00082DF6AE185E07FDF6FEF86E07CDF6FE12B
:1027D00087E079DF60EB88E376DF6FE388E273DF21
:1027E00060E389E270DF69EF80E36DDF67EF81E32B
:1027F0006ADF6DE080EC67DF60E081EC64DF42E37C
:1028000062EC80E8FADE62E186EC5DDF6CE087EC8A
:102810005ADF62E184EC57DF6CED8AEC54DF65E04F
:102820008BEC51DF688184EE4EDF698185EE4BDFF2
:102830006A8182EE48DF6B8183EE45DF6C8180EE3A
:1028400042DF6D8181EE3FDF60E071E080E168DFB3
:102850008FE10BDF40EC6BE180E8CFDE44E06FE11D
:1028600080E8DF91CF91C9CE88E31FDF682F6160D8
:1028700088E329CF88E319DF682F6E7F88E323CFB1
:1028800081E132DF92FB882780F908950F931F932F
:10289000CF93DF93EC018B016FE180E098DE83FD45
:1028A000FBCF8CE102DF81FF10C040E86FE180E8E0
:1028B000A4DE40E86FE180EAA0DE42E06CE180EA5D
:1028C0009CDE80E395E70197F1F760E082E0FBDEB4
:1028D0006AE183E0F8DE6C2F86E0F5DECE01965EDD
:1028E000692F87E0F0DE40E060E08AE786DEB8012D
:1028F000CE01A6DE48E06FE180E8DF91CF911F9125
:102900000F917BCE9F92AF92BF92CF92DF92EF92C8
:10291000FF920F931F93CF93DF937C016B0189E3A9
:10292000C4DE882309F44EC06091F601C091F7011E
:1029300080E0C9DE6C2F81E0C6DE60E08AE347DE1E
:10294000082F60E08AE343DE10E0182B1093F701B4
:102950000093F60160E08AE33ADEC82F60E08AE384
:1029600036DE982E60E08AE332DEA82E60E08AE34D
:102970002EDEA7FE0EC0970121503109D0E0D929E3
:1029800024972C173D0708F4E901B601CE0142DE79
:1029900002C0C0E0D0E06FEF01308AE1180724F0F8
:1029A0008CE091DE69E106C0600F8CE08CDE0150A6
:1029B0001109612F8DE087DE40E46EE180E81DDEC5
:1029C000CE0102C080E090E0DF91CF911F910F9186
:1029D000FF90EF90DF90CF90BF90AF909F900895C1
:1029E00044E06FE180EA09DE84E05FDE8111FCCF24
:1029F0008FE15BDE83FDFCCF48E06EE180E8FDDD2A
:102A000040E26EE180E8F9CDAF92BF92CF92DF92C3
:102A1000EF92FF920F931F93CF93DF936A015901B7
:102A200090911302891759F0E0911002F091110270
:102A300040E050E060E070E084EF91E03DC0611163
:102A40003CC02D303105C8F1E0901002F090110229
:102A5000E114F10491F1C0910402D0910502C40F78
:102A6000D51F888590E00E94C133892B01F18985AB
:102A700090E0C0978A309105D0F40B8510E00053A8
:102A800011090A30110598F44AE0489F9001499FC6
:102A9000300D1124AA85B0E0D097A20FB31F4A9F32
:102AA000C0014B9F900D1124800F911F02C080E048
:102AB00090E0A501B601F701099580E0DF91CF9183
:102AC0001F910F91FF90EF90DF90CF90BF90AF904C
:102AD0000895FF920F931F93CF93DF93FB01413033
:102AE00051F4AB014850510960E070E04F5E5F4F18
:102AF0006F4F7F4F0FC0423051F4AB014850510926
:102B000060E070E04A5F5F4F6F4F7F4F03C040E06F
:102B100050E0BA01EF01DC01C230D10598F00C9110
:102B200010E020E030E0322F212F102F00271196E7
:102B3000FC9011970F29400F511F621F731F1296AF
:102B40002297EACFDF01AE7FA80FB91FE0FF0CC0CC
:102B50008C9190E0A0E0B0E0BA2FA92F982F8827A1
:102B6000480F591F6A1F7B1FCB01AA27BB2700975D
:102B7000A105B10519F066277727F2CFCA01809524
:102B80009095DF91CF911F910F91FF90089500973D
:102B900041F026E0FC01ACE2B2E001900D922A95F2
:102BA000E1F70895009721F46115710559F408952E
:102BB000DC01E8E2F2E08D91819382E0EC32F807EB
:102BC000D1F7F2CFDB01E7E0F1E08D91819381E075
:102BD000EB30F807D1F70895DC015A96FB0180E04D
:102BE0002D919191291305C08F5F8430C9F781E041
:102BF000089580E0089569327105A8F0FC012485EC
:102C0000283089F42585263071F4DC019696E8E2B7
:102C1000F2E09D918191981306C082E0EC32F807B2
:102C2000C1F781E0089580E00895FC016A327105E2
:102C3000B0F08485883099F48585811110C086852F
:102C4000853469F47E96A8E2B2E091918D91981353
:102C500006C082E0AC32B807C1F781E0089580E099
:102C60000895CF93DF93ECE2F2E0DC0116962C910D
:102C7000EC012993CE0121912D93D2E0E233FD079F
:102C8000B1F7DF91CF910895CF93DF93EC01188EC8
:102C9000198E80E48C8B1D8A8E8B40E064E170E09D
:102CA000CE010E9616DF988F898FDF91CF91089510
:102CB000CF93DF93EC016E96E8E2F2E0DC015A96E6
:102CC0002C91299321912D9322E0EC32F207C1F748
:102CD000DF91CF91D9CFFC01BA96DC019E96869602
:102CE0002291620F711D2E916C93442311F0208369
:102CF00001C01082672F7727E817F90789F7089531
:102D0000CF93DF93EC018CA19AA19CA38AA38DA100
:102D10009BA19DA38BA3CE01DEDF1AAA1BAA80E58F
:102D20008EA7DF91CF910895CF93DF93EC0199DFC8
:102D30001C8A82E08D8BCE0180964CE252E0DE014F
:102D400056962C91FC012193CF01FA012191AF01FC
:102D50002D93F2E042335F07A1F7CE01869648E259
:102D600052E0DE015C962C91FC012193CF01FA0127
:102D70002191AF012D93F2E04C325F07A1F7BE0124
:102D80008AE290E0DF91CF9181CD0F931F93CF9393
:102D9000DF93EC018B0165DFCE018ADF1AA29CA1D3
:102DA000983F18F08DA18F5F8DA3985F9CA3BE0103
:102DB000C801DF91CF911F910F9168CDFC018089EF
:102DC00090E0982F88272189822B449726A530E010
:102DD00044E0359527954A95E1F7220F331F220FDE
:102DE000331F821B930B97FF02C080E090E0089591
:102DF0009C01CB01461B570BFA01E80FF91FE49128
:102E0000EE2339F0D901A80FB91FD696EC9301969D
:102E1000F3CF0895DB01D696A80FB91FFA01420F30
:102E20004E1719F081918D93FBCFCB01820F911D2D
:102E30000895FA0101900020E9F79F01215031091E
:102E4000241B350BE7CFEF92FF920F931F93CF9385
:102E5000DF9300D000D01F92CDB7DEB79091130260
:102E6000891391C080911202009104021091050211
:102E7000811126C04AE551E060E070E0C801B8DF8A
:102E800040910A0250910B02BC01C801B1DF409190
:102E9000080250910902BC01C801CBDF48E451E0AF
:102EA000BC01C801A5DF4091060250910702BC0198
:102EB000C8019EDF43E151E0BC01C80199DF65C054
:102EC0004DE051E060E070E0C80192DF40910A02FD
:102ED00050910B02BC01C8018BDF40910802509158
:102EE0000902BC01C801A5DF4BEF50E0BC01C801DD
:102EF0007FDF4091060250910702BC01C80178DFD4
:102F00004BED50E0BC01C80173DF40910E025091BF
:102F10000F024115510519F0BC01C8018ADF4DECC3
:102F200050E0BC01C80164DF4CEB50E0BC01C801BB
:102F30005FDF7C01A0910C02B0910D02FD010190B8
:102F40000020E9F731974AE0BE016F5F7F4FCF0164
:102F50008A1B9B0B0E9457340091040210910502BA
:102F6000AE014F5F5F4FB701C80163DF46E850E035
:102F7000BC01C8013DDF40910C0250910D02BC0123
:102F8000C80157DF02C080E090E00F900F900F90D3
:102F90000F900F90DF91CF911F910F91FF90EF90C5
:102FA00008950F931F93CF93DF9300D01F92CDB757
:102FB000DEB78C014B8369837A8353DE4B81842F88
:102FC0008061F80187A769817A81443029F0611511
:102FD000710511F461E070E041E0C80191DEF80193
:102FE000108A88E2818BC80163DE84E0F80180AB3F
:102FF00011AA42E06CE170E0C8014A966ADDF8016E
:1030000092AB83ABB80186E390E00F900F900F90E6
:10301000DF91CF911F910F9139CC0F931F93CF93D5
:10302000DF93EC018B01CB018896988B898BCE01C5
:103030002BDE1AAA1BAAB801645E7F4F42E0CE01C4
:103040004A9647DD9AAB8BABBE01C801C696DF91AD
:10305000CF911F910F911ACCCF93DF93EC0101DE3A
:10306000188A8CE2898BCE0123DE82E18FA740E0B3
:1030700061E070E0CE0144DE1EA21FA280910F012C
:1030800088A719A68D5F80930F0182E08EAB84E044
:103090008FAB85E088AF19AE80E68EA78AE088AB5B
:1030A00019AA42E060E270E0CE014A9612DD9AABC6
:1030B0008BABBE018AE390E0DF91CF91E7CB0F931A
:1030C0001F93CF93DF93EC018B016091F901709115
:1030D000FA0140E066DF89E18FA7B801CE01DF91F8
:1030E000CF911F910F9199CF640F751F4617570706
:1030F00041F0FA012491FC012193CF014F5F5F4F12
:10310000F5CF0895AF92BF92CF92DF92EF92FF92E8
:103110000F931F93CF93DF9300D0CDB7DEB75C0141
:10312000F62EE72E6A01ECE2F2E0B5016A5F7F4F0E
:10313000D8014D918D01DC014D93CD014191DB0111
:103140004D93BD01B2E0E233FB0791F788E0F50152
:103150008487158647E651E069E070E0C5010E9668
:1031600029833A83C1DF80910601D50153968C9360
:1031700053978F5F8093060150961C92509781E180
:1031800057968C938601C5014E96A8E2B2E03A812B
:103190002981F80141918F01FC014193CF016D918B
:1031A000AF0145505109FA016083F2E0AC32BF072C
:1031B00081F7D50194963C93949795962C93959787
:1031C0009296EC9292979396FC92939796961C9275
:1031D000969798961C92989799961C920F900F909C
:1031E000DF91CF911F910F91FF90EF90DF90CF90E3
:1031F000BF90AF9008950F931F93CF93DF93EC018F
:103200008B01CB014C96898B988BCE013DDDC8019B
:1032100008968FA39EA3B801605F7F4F41E0CE0167
:103220004A9657DC89A798A7BE01C8018A96DF9104
:10323000CF911F910F912ACB0F931F93CF93DF93C1
:10324000EC018B0180912802882309F44AC0CE0149
:10325000AE014A5F5F4FECE2F2E03FEFDC013D93ED
:10326000CD012191DA012D93AD01B2E0E233FB07EC
:10327000A9F788E08C8786E08D874FE551E068E00C
:1032800070E0CE010E9630DFDE0190964CE252E007
:10329000FA012191AF01CD010A97FC0120831D9213
:1032A000F2E042335F07A1F7B801CE018696A8E2AB
:1032B000B2E0FB012191BF01FC012193CF014D91AF
:1032C0009F012B503109F9014083F2E0AC32BF0776
:1032D00081F7BE018AE290E0DF91CF911F910F91BB
:1032E000D5CADF91CF911F910F91089581E0909100
:1032F000FD01923009F480E0089550930302409359
:10330000020221E02093FD016093FC01EEEFF1E069
:10331000DC012D91CD012193B2E0E230FB07C1F732
:103320000895FF920F931F93CF93DF93EC01162F15
:10333000042FF52EEBE1F2E09C018CE292E0BE015D
:103340006A5F7F4F4191D9014D939D01DC014D9101
:10335000CD01DB014D93BD01B2E0E132FB0791F7F6
:1033600088E08C871D8647E651E069E070E0CE0179
:103370000E96BADE8CE2898B809106018B8B8F5F73
:103380008093060186E08F8B61E272E0DE015E963B
:1033900088E292E0FB012191BF012D93FC01419154
:1033A000CF019D0125503109F9014083F2E06532DA
:1033B0007F0781F7CE0168DCFCA20DA38BE08AA316
:1033C0001BA3FE01B69688E011928150E9F7809127
:1033D0000F0188A78D5F80930F0180E68EA782E0A2
:1033E0008FA793E098AB19AA1AAA1BAA1CAA1DAA18
:1033F0008EAB94E09FAB88AF8EEE89AF42E060E287
:1034000070E0CE014A9665DB9AAB8BABBE018AE3D6
:1034100090E0DF91CF911F910F91FF9037CA0F93EA
:103420001F93909317028093160270931502609376
:103430001402F901A1E2B2E081918D9382E0A532FC
:10344000B807D1F7F801ABE1B2E081918D9382E04A
:10345000A132B807D1F7509319024093180281E0C6
:1034600080931A02809125028F5F883018F4809330
:10347000250202C010922502809125021F910F9112
:1034800008954F925F926F927F928F929F92AF9228
:10349000BF92CF92DF92EF92FF920F931F93CF9341
:1034A000DF93EC014B013A012901EAD9882331F17C
:1034B000D0930B02C0930A02709207026092060238
:1034C000909209028092080250920F0240920E02DE
:1034D00010930D0200930C0281E080931202F0928F
:1034E0001102E09210028501960140E550E063E28E
:1034F00077E184E095E193DF80931302DF91CF9130
:103500001F910F91FF90EF90DF90CF90BF90AF9001
:103510009F908F907F906F905F904F9008959093C1
:103520002702809326020895CF92DF92EF92FF92B6
:103530000F931F93CF93DF931F92CDB7DEB76C012C
:103540008B016115710509F041C08091FD01893041
:1035500069F480910C0190910D01892B39F490D977
:10356000882321F06EEF71E0C60166DE8091FD01D7
:10357000813019F485D981117BC180910C01909122
:103580000D01019690930D0180930C0180911A0218
:10359000813009F07BC174D9882309F477C182E0B6
:1035A00080931A0260910E016F5F60930E0140914B
:1035B0001802509119026F7180912502F0E28F9FDD
:1035C000C0011124682BC601ACDE60C114DB882366
:1035D00051F1D60155968C91813011F4C601A4DBCE
:1035E0008091FD0183FF52C1F6011589123009F067
:1035F0004DC144E050E06EEF71E0C6014C960E9470
:10360000F433892B09F042C1A6014A5E5F4FE09175
:103610000202F09103026091FC018EEF91E00995A6
:103620001093FD0133C1B801C601FFDA882309F404
:103630002DC1D60157968C915797813091F492966F
:103640008C91883009F022C1E0912602F091270286
:10365000309719F0C6014A960995B801C60195DB65
:1036600015C10633110508F411C1863009F00EC1E9
:10367000F60184A18B3009F0C5C0D0920502C0923A
:10368000040261E272E0C601A7DA882309F4FEC0F1
:10369000D6019F962C919F9722FF13C0E0911602AE
:1036A000F0911702309709F489C095968C9120E02B
:1036B00030E040E050E063E08295869587700995A0
:1036C0007DC0C60129837ADB7C0180911A022981A1
:1036D000823089F5822F807122712231F9F440E025
:1036E00060E070E0C6015DDC88E1F60187A7E0914B
:1036F0001402F0911502309741F0D60193968C9107
:10370000829586958770099502C080E090E023E05D
:1037100020931A02BC01C60180DCB8C091E09093EE
:103720001A02811104C0B7016F5F7F4F02C060E0D1
:1037300070E044E085C08330C9F5E114F104B1F1D3
:1037400084E080931A02E0911602F09117023097FC
:1037500069F1D6019E964C9150E0A4E055954795AD
:10376000AA95E1F7440F551F440F551FC80108974C
:103770004E5D5F4F8417950708F4AC01C701840FB5
:10378000951F0817190720F49801241B350B01C059
:103790009701D60195968C9160E082958695877009
:1037A0000995882319F049E0B7011FC090911A02CA
:1037B000F60187A5953021F484FF68C086E018C023
:1037C000963069F484FD04C0B7016F5F7F4F02C07B
:1037D00060E070E044E0C601E4DB87E009C080FF00
:1037E0000AC0B7016F5F7F4F41E0C601DADB85E0B9
:1037F00080931A024BC0E114F10409F447C040E081
:10380000B7011EC09091FB01891340C095A1809122
:103810000B0198133BC0F7A4F1FE03C0C6011CDCEA
:1038200035C0F4FE33C0C601C9DA9093FA01809323
:10383000F901892B41F4F0FE29C040E060E070E01E
:10384000C601AFDB23C0F60126A530E064E0359564
:1038500027956A95E1F7220F331F220F331F2E5D44
:103860003F4F085011090217130780F0C90110C01B
:103870006EEF71E0C601E0DC8091FD01886080930D
:10388000FD0110920D0110920C0177CE80E090E0C6
:103890000F90DF91CF911F910F91FF90EF90DF90EC
:1038A000CF9008951F93CF93DF93EC01162F6623DB
:1038B00079F06695F7DF113059F010FF03C0EA8107
:1038C000FB8102C0E881F981DF91CF911F910994BA
:1038D000DF91CF911F910895CF93DF93EC01862F55
:1038E000603269F4EC81FD810995EC81FD810995D7
:1038F000EC81FD810995EC81FD81099514C09FE95A
:10390000960F9A3108F480529FEB980F9A31B0F4D9
:1039100060E06F5FE62FF0E0EA5DFE4F9081981364
:10392000F8CFCE01BFDFEC81FD810995EC81FD81EF
:103930000995EC81FD81DF91CF910994DF91CF91C1
:1039400008950F931F93CF93DF938C01EB0169913F
:10395000662319F0C801C0DFFACFDF91CF911F9124
:103960000F910895FC0171836083538342833583F3
:10397000248308950C940000089580937C008FECBC
:1039800097E00197F1F700C0000084EC80937A0083
:103990008FEC97E00197F1F700C0000080917A006A
:1039A00086FDFCCF809178002091790090E0922BE9
:1039B00008954F925F926F927F928F929F92AF92F3
:1039C000BF92CF92DF92EF92FF920F93CF93DF934C
:1039D0006B017C015A01E901802FCFDFBC0180E03F
:1039E00090E00E94B33120E030E040E85AE30E94CA
:1039F00069322B013C01B5016C0F7D1F80E090E026
:103A00000E94B3319B01AC01C301B2010E94693233
:103A10004B015C01BE0180E090E00E94B3319B014C
:103A2000AC01C501B4010E941F31A70196010E949B
:103A300069320E948731CB01DF91CF910F91FF90C6
:103A4000EF90DF90CF90BF90AF909F908F907F903E
:103A50006F905F904F9008958EE480937C008FEC80
:103A600097E00197F1F700C0000084EC80937A00A2
:103A70008FEC97E00197F1F700C0000080917A0089
:103A800086FDFCCF209178008091790030E0382BC2
:103A900040E050E060E070E381E190E00E94A330FC
:103AA000C9010895BF92CF92DF92EF92FF920F93D8
:103AB0001F93CF93DF93EB017A01B22E0E943D3426
:103AC0008C01FE0101900020E9F73197EC1BFD0B02
:103AD0000115110521F1EE2311F16F01DD24E6013D
:103AE0002396C00FD11F62E270E0CE010E940A341B
:103AF0000097A9F0BC01601B710B6C197D09CB010B
:103B000002974B2D50E0481759071CF0AB0143506A
:103B10005109BE01C7010E94233481E001C080E049
:103B2000DF91CF911F910F91FF90EF90DF90CF9099
:103B3000BF900895FC0160E070E0CB012191222349
:103B4000D9F030ED320F3A3060F03FE9320F3630C5
:103B500010F4275507C03FEB320F363018F42753C7
:103B600001C0232F34E0660F771F881F991F3A95F5
:103B7000D1F72F70622BE2CF0895CF92DF92EF92B0
:103B8000FF920F931F93FC01118210827383628353
:103B9000558344833783268311870087F386E28623
:103BA000D586C4861F910F91FF90EF90DF90CF9044
:103BB000089524E5429FA0011124E6E06E9F400D88
:103BC000511D1124FC01518340830895CF92DF924F
:103BD000EF92FF920F931F93CF93DF931F92CDB776
:103BE000DEB76C01E62E60E0FC018481958149839B
:103BF00075D261E04981413009F060E0F6018681CB
:103C000097816CD207E010E0F12CB701002E02C0C2
:103C1000759567950A94E2F76170F6018085918544
:103C20005DD261E0F6018285938558D260E0F601AD
:103C30008285938553D20150110938F761E0F6016E
:103C4000848195810F90DF91CF911F910F91FF900B
:103C5000EF90DF90CF9042C21F93CF93DF93EC01A0
:103C6000CB0164E570E00E945A30162F682F60681F
:103C700040E0CE01ABDF612F606440E0CE01DF9118
:103C8000CF911F91A3CF0F931F93CF93DF93EC019D
:103C90001982188260E070E0DFDF08EF11E041E098
:103CA00060E0CE0193DF0150110901151105B9F74C
:103CB000DF91CF911F910F910895CF93DF93EC0186
:103CC00061E08A819B810AD28FE295E70197F1F743
:103CD00000C0000060E08A819B8100D29FEF2FE846
:103CE00081E0915020408040E1F700C0000061E099
:103CF0008A819B81F3D160E08C819D81EFD140E08E
:103D000061E2CE0163DF40E068ECCE015FDF40E0BE
:103D100066E0CE015BDF40E063E1CE0157DF40E0CB
:103D200060E2CE0153DF40E06CE0CE014FDFCE0118
:103D3000AADF40E061E2CE0149DF40E060ECCE0165
:103D400045DF40E060E2CE01DF91CF913FCFEF92BF
:103D5000FF920F931F93CF93DF93EC01162F88816F
:103D600099816A3061F49C012C5A3F4F64E570E000
:103D70000E945A30281B390B3983288323C0BC0189
:103D8000CE016ADF85E0189F7001112400E010E089
:103D9000C70180539F4F7C01F701E00FF11F649131
:103DA000660F41E0CE0112DF0F5F1F4F0530110596
:103DB00099F741E060E0CE0109DF8881998106969C
:103DC00099838883DF91CF911F910F91FF90EF909E
:103DD00008950F931F93CF93DF938C01EB016991AB
:103DE000662319F0C801B3DFFACFDF91CF911F919D
:103DF0000F9108950F931F93CF93DF93CDB7DEB745
:103E000009851A859E01215F3F4F4D855E856B8533
:103E10007C85C8010E94D434B8018F819885D9DF90
:103E2000DF91CF911F910F9108950F931F93CF931F
:103E3000DF938C01EB01BE01FE018491882331F0F8
:103E40002196FB016491C80182DFF5CFDF91CF910C
:103E50001F910F9108951F93CF93DF93EC01162FBD
:103E600068817981F9DE41E0612FCE01AFDE888182
:103E70009981019699838883DF91CF911F9108954D
:103E8000EF92FF920F931F93CF93DF938C017B01EF
:103E9000FC0111821082C0E0D0E0F701EC0FFD1FA1
:103EA0006491C801D8DF2196C83FF1E0DF07A9F788
:103EB000DF91CF911F910F91FF90EF900895FC013A
:103EC000848595850BC11092B90080E28093B8007B
:103ED000089594EA9093BC002AEE33E09091BC00E0
:103EE00097FD07C02150310921153105B9F781E04F
:103EF00008959091B900987F983011F09031B9F7FA
:103F00008093BB0084E88093BC008AEE93E020910C
:103F1000BC0027FD04C001970097C9F7E8CF809146
:103F2000B900887F883111F0803409F780E0089566
:103F300044EA54E84093BC002AEE33E09091BC0080
:103F400097FD07C02150310921153105B9F781E0EE
:103F500008959091B900987F9830C9F78093BB007D
:103F60005093BC002AEE33E09091BC0097FD06C050
:103F70002150310921153105B9F7E9CF9091B900E8
:103F8000987F9831B9F680E0089584E98093BC0069
:103F90008AEE93E02091BC0024FF03C001970097B4
:103FA000C9F708958093BB0084E88093BC008AEE33
:103FB00093E02091BC0027FD05C001970097C9F749
:103FC00081E008C09091B900987F81E0983211F4A7
:103FD00080E00895089584EC8093BC008091BC003B
:103FE00087FFFCCF8091BB00089584E88093BC00DC
:103FF0008AEE93E02091BC0027FD05C00197009751
:10400000C9F781E008958091BB0008951F93CF9375
:10401000DF931F92CDB7DEB7142F698389DF6981E3
:10402000882311F081E00AC0862FBCDF8111FACF0E
:10403000812FB8DF8111F6CFA8DF80E00F90DF91EC
:10404000CF911F910895CF92DF92EF92FF920F933D
:104050001F93CF93DF931F92CDB7DEB7E82E142FB7
:10406000F52E022F698364DF6981882311F081E0D6
:1040700018C0862F97DF8111FACF8E2D816029DF3E
:104080008111F5CFE12EC12EDF2C8C2D8E198017DA
:1040900028F4A1DFF60181936F01F7CFA6DF75DF6A
:1040A00080E00F90DF91CF911F910F91FF90EF90E3
:1040B000DF90CF900895DC019C9111968C9111971F
:1040C000E92FF82F8291611104C014969C918923E5
:1040D00003C013969C91892B80830895FC01A081D5
:1040E000B1818C91662319F09381892B02C0948150
:1040F00089238C9366830895FC018581813011F4B6
:1041000086810895A081B18112979C918381982323
:1041100081E009F480E008951F93CF93DF93EC01D1
:10412000EBDF11E01827612FCE01D8DF812FDF915F
:10413000CF911F91089581508B3048F4E82FF0E023
:10414000EE0FFF1FE058FE4F80819181089587E4B4
:1041500091E0089590E0FC013197EB30F10548F5CE
:10416000EC5CFF4F0C94BF3036EA2BE994EC07C0AF
:1041700036E72EE69AED16C03CE428EA90EE8AE394
:1041800017C039E12FEA91E28FE312C036EA2BE93A
:1041900094E48DE30DC036EA2BE994EC03C03FE0D4
:1041A0002EEE9EEC8BE304C03AE027ED93E28CE325
:1041B000AC01632F722F852F942F08958F929F92B9
:1041C000AF92BF92CF92DF92EF92FF924A015B01D2
:1041D000C1DF6B017C01C501B4010E94B3319B01B9
:1041E000AC01C701B6010E946932FF90EF90DF90E9
:1041F000CF90BF90AF909F908F900895CF92DF9215
:10420000EF92FF92CF93DF93EB01FC017183608308
:10421000609186007091870080E090E00E94B33149
:104220006B017C01BE0180E090E00E94B3319B01F4
:10423000AC01C701B6010E94693220E030E04AE7D4
:1042400054E40E941F310E9487317093890060936B
:104250008800DF91CF91FF90EF90DF90CF9008958D
:10426000CF93DF93C0E8D0E01882219A27E632E0AE
:1042700030938700209386006BE070E0BFDF89E118
:1042800080938100888182688883DF91CF9108952F
:10429000EF92FF920F931F93CF93DF93EC018B016B
:1042A0007A01CA0105966817790748F06881798113
:1042B0006B30710520F061507109CE019FDF85E000
:1042C000E81AF108E016F10650F068817981643847
:1042D00093E0790720F46F5F7F4FCE018FDF81E09D
:1042E000288139812438334009F480E0DF91CF916F
:1042F0001F910F91FF90EF900895FC0180819181B3
:104300000895CF92DF92EF92FF920F931F93FC01DB
:10431000128671836083538342833583248317839A
:104320000683F186E086D486C3861F910F91FF90A5
:10433000EF90DF90CF9008956D318CE0780750F4C6
:10434000613F8AE0780748F4653C794048F088E1AD
:1043500091E0089580E191E0089584E191E008956D
:104360008CE191E008950F931F93CF93DF938A011F
:10437000D62FC72F20E030E040E251E4B8018D2F66
:104380009C2F0E941B3187FD1CC020E030E44CE1D3
:1043900056E4B8018D2F9C2F0E941B3187FF05C06A
:1043A00020E030E04AE754E404C020E034E244E78F
:1043B00059E4B8018D2F9C2F0E941F318B01D82FFB
:1043C000C92FB8018D2F9C2FDF91CF911F910F9195
:1043D0000895CB01BA01683E23E07207810591057B
:1043E00010F4CB010895603422E472072FE08207B5
:1043F000910528F428EE33E040E050E004C020E4CA
:1044000032E44FE050E00E948130C9010895CF921C
:10441000DF92EF92FF926A017B012DEC3CEC4CECB9
:104420005DE3C701B6010E941B3187FF03C06EE345
:1044300075E01CC02DEC3CEC4CE45EE3C701B6011A
:104440000E941B3187FF03C063E375E00FC020E0CB
:1044500030E040E85FE3C701B6010E941B3187FFEF
:1044600003C068E275E002C06DE175E082E392E0AE
:104470000E94C83382E392E0FF90EF90DF90CF90EC
:1044800008952F923F924F925F926F927F928F92F8
:104490009F92AF92BF92CF92DF92EF92FF920F93D3
:1044A0001F93CF93DF93CDB7DEB769970FB6F8941C
:1044B000DEBF0FBECDBF998F888F40E060E0DC018A
:1044C0008D919C9176DBE88DF98D8285813009F4A0
:1044D00093C120F0823009F4E1C1F4C2A88DB98DF6
:1044E00016968D919C91179777D4683EB3E07B0721
:1044F0008105910538F0603472448F40910520F4B5
:104500008BE403C080E201C08DE4282F30E03C83BF
:104510002B83A88DB98D16968D919C9117975CD49D
:10452000AB01BC01888D998D54DF882E792EE88DE2
:10453000F98D8681978160D46AE070E00E945A30DC
:10454000A62E972EA88DB98D16968D919C911797B2
:104550004FD4C82EB92EE88DF98D868197812CD441
:10456000AB01BC01888D998D52DFE82ED92EA88D24
:10457000B98D16968D919C9117971ED420E030E04E
:10458000A9010E94653218162CF4E6E9F1E0FA83DD
:10459000E98304C02BE931E03A832983A88DB98DE2
:1045A00016968D919C91179707D420E030E0A901D1
:1045B0000E94653218160CF5E88DF98D8681978179
:1045C000FBD31B012C0120E030E040E251E40E94CB
:1045D0001B3187FD0CC020E030E44CE156E4C20101
:1045E000B1010E941B3187FF04C08DE603C08DE836
:1045F00001C080E2082F10E002C000E210E0A88DA8
:10460000B98D16968D919C911797D6D3AB01BC01AD
:10461000888D998DA8DE662E7D838E83F92EE88D98
:10462000F98D46805780F201EF58FF4F208128878F
:104630003181398752815A8783818B873497608192
:1046400071818281938124E630E040E050E00E9455
:1046500081302E873F87488B598BF201E759FF4FF6
:1046600020812C872180328033813D87C201A0D3F5
:10467000BC01888D998D60DE8F83492EA88DB98D00
:1046800016968D919C9117976FD3882319F099E90D
:10469000592E02C08AE9582EE88DF98D86819781BE
:1046A00057D3882311F027E901C028E9A88DB98DD7
:1046B00016968D919C9117972F8B2FD30E94A4094A
:1046C000482FE88DF98D868197814D8B26D30E94E6
:1046D000B109382FA88DB98D16968D919C91179799
:1046E0003E8B1BD30E94CF091F929FE89F93BC81F2
:1046F000BF93EB81EF937F928F929F92AF92BF9285
:10470000CF921F9296E99F931F9294E99F93DF9215
:10471000EF921F929F931F9255E95F931F9253E967
:104720005F93FA81FF9359815F931F930F93FF92D9
:10473000AE81AF93BD81BF936F921F9252E95F9399
:104740001F9251E95F931F929F931F929F931F9215
:104750005CE95F931F929F931F929F931F929F9379
:104760001F929F931F929BE99F931F9290E99F93A3
:10477000EB85EF93FA85FF9359855F9398859F9317
:1047800059895F9398899F93AF85AF93BE85BF93F7
:104790005D855F933F922F925C855F934F925F811F
:1047A0005F931F925F921F922F892F931F924D89C3
:1047B0004F931F923E893F931F928F938FEA94E00D
:1047C0009F938F93A88DB98D1C968C911C978F9376
:1047D0001B968C911B978F9319968C9119978F9399
:1047E00018968C9118978F9311968C9111978F939F
:1047F0008C918F93FFDA41C181E09DDC082FF92E67
:10480000A88DB98D16968D919C91179786D20E948E
:10481000A409182FE88DF98D868197817ED20E9498
:10482000B109D82EA88DB98D16968D919C911797A8
:1048300074D20E94CF09E82EE88DF98D8681978188
:1048400074D21F922BE72F93FF920F931F921F9307
:104850001F92DF921F92EF929F938F937F936F939C
:104860008BE594E09F938F93A88DB98D1C968C91C6
:104870001C978F931B968C911B978F9319968C91F5
:1048800019978F9318968C9118978F9311968C91F6
:1048900011978F938C918F93ADDAEFC0A88DB98D5E
:1048A00016968D919C9117975FD2882309F4EBC0DF
:1048B000E88DF98D86819781BBD2382E292EA88D5F
:1048C000B98D16968D919C911797AED2582E492E80
:1048D000E88DF98D86819781A3D2782E692EA88DD7
:1048E000B98D16968D919C91179796D2982E892EF8
:1048F000E88DF98D8681978185D2DC011396AC9085
:10490000E88DF98D868197817DD2DC011296BC906D
:10491000E88DF98D8681978175D2DC011196CC9056
:10492000E88DF98D868197816DD2DC01DC90E88D70
:10493000F98D868197816AD2DC011396EC90E88D1F
:10494000F98D8681978162D2DC011296FC90E88D08
:10495000F98D868197815AD2DC0111960C91E88DF0
:10496000F98D8681978152D2DC013C91E88DF98DD9
:10497000868197813E8B48D2DC0113962C91E88D7D
:10498000F98D868197812F8B3FD2DC0112961C9185
:10499000E88DF98D8681978137D2DC0111966C9173
:1049A000E88DF98D868197816C8B2ED2DC015C912C
:1049B000E88DF98D868197815B8B22D2DC0113967D
:1049C0004C91E88DF98D868197814D8B19D2DC0150
:1049D00012968C918983E88DF98D8681978110D20A
:1049E000DC0111967C91E88DF98D868197817A8B17
:1049F00007D22F923F924F925F926F927F928F9247
:104A00009F921F92AF921F92BF921F92CF921F92BE
:104A1000DF921F92EF921F92FF921F920F931F92AD
:104A20003E893F931F922F892F931F921F931F92AE
:104A30006C896F931F925B895F931F924D894F938F
:104A40001F9229812F931F927A897F93DC018C9189
:104A50001F928F9389E094E09F938F93E88DF98D57
:104A600084858F9383858F9381858F9380858F93A2
:104A700081818F9380818F93BDD90FB6F894DEBF6B
:104A80000FBECDBF1FC061EE73E0A88DB98D8D91B3
:104A90009C9169960FB6F894DEBF0FBECDBFDF9133
:104AA000CF911F910F91FF90EF90DF90CF90BF902B
:104AB000AF909F908F907F906F905F904F903F90BE
:104AC0002F90B3C969960FB6F894DEBF0FBECDBF65
:104AD000DF91CF911F910F91FF90EF90DF90CF90DA
:104AE000BF90AF909F908F907F906F905F904F900E
:104AF0003F902F9008950F931F93CF93DF93EC0176
:104B00008B018E819F81C8D18E819F813FD1882367
:104B100039F08E819F81EED160E08E819F8139D105
:104B20008E819F8149D120E030E040E85FE30E9420
:104B300065322E813F8187FD05C061E0C90123D127
:104B40001A8607C060E0C9011ED160E08A819B819E
:104B5000C5DA8E819F810ED181114DC08C819D81DE
:104B6000CBDA811148C061E08E819F8106D18E81B0
:104B70009F81D3D060E00E94250AF80180818823BC
:104B800011F0CE017EDC8E819F81FAD081110CC0A4
:104B90008E819F81C2D061E00E943C0A6B3071051A
:104BA0008105910508F07EC08E819F81D7D0882332
:104BB000D9F08A85811114C040E069E0888199812B
:104BC0000E94D91D6EE888819981C1D88E819F810C
:104BD000D7D0811105C08E819F81BAD0811167C065
:104BE00060E08E819F81BDD0F8011082DF91CF916E
:104BF0001F910F9108958E819F81BCD0882309F465
:104C0000BCCF8C819D8178DA882309F4B6CF60E02F
:104C10008E819F81B2D08E819F817FD060E00E9483
:104C20003C0A2E813F81633071058105910588F032
:104C3000C9018ED061E068278E819F818CD08E81E2
:104C40009F8186D0811199CF60E08A819B8146DA6D
:104C500094CFC90195D0882371F060E08E819F8147
:104C600092D060E08A819B8139DA40E050E0BA015D
:104C70008E819F81B7D061E08881998120D98E8112
:104C80009F814BD061E00E94250A8A8590E00196C1
:104C900063E070E00E946E308A87888199810E946B
:104CA000431E6BCF60E08881998109D97DCF61E097
:104CB0008A819B8113DA8FE19EE40197F1F700C0AE
:104CC000000060E08A819B8109DA8ACFFC0175834C
:104CD00064831386148611861586168610861286BE
:104CE00014AE15AE16AE17AEDC01A05CBF4F1D9220
:104CF0001D921D921C92139715A614A617A616A610
:104D000011AA10AA108211821282138217AA16AA5F
:104D100015AA14AA13AA12AA0895FC0184819581E8
:104D20000895FC01868197810895FC01608171815D
:104D3000828193810895FC01408351836283738350
:104D400082E0878F10A271A362A353A344A30895A6
:104D5000FC0180850895FC0160870895FC0184852D
:104D60000895FC0164870895FC0181850895FC0184
:104D700061870895FC0182850895FC01628708958A
:104D8000FC0183850895FC0163870895FC018585F6
:104D90000895FC0165870895FC0186850895FC014E
:104DA00066870895FC0163A70895FC0183A5089513
:104DB000FC0184A595A50895805C9F4FFC0160814E
:104DC0007181828193810895805C9F4FFC014083B3
:104DD0005183628373830895FC0164AD75AD86AD24
:104DE00097AD0895FC0144AF55AF66AF77AF089516
:104DF000FC0186A597A50895FC0180A991A90895B5
:104E00000F96089543960895479608954B960895F2
:104E10004F96089585960895FC0182A993A9089557
:104E2000FC0184A995A90895FC0186A997A9089574
:104E3000FC0180AD91AD0895FC0171AF60AF0895A4
:104E4000FC0182AD93AD0895FC0173AF62AF08958C
:104E5000FC0122A933A92F5F3F4F33AB22AB08954A
:104E6000FC0124A935A92F5F3F4F35AB24AB089532
:104E7000FC0126A937A92F5F3F4F37AB26AB08951A
:104E8000CF93DF93EC011FD86CEECE018C5B9F4F6C
:104E9000DF91CF910C944F0B0F931F93CF93DF9320
:104EA000EC010E942C1D9DA78CA7BC0180E090E026
:104EB0000E94B33120E030E04AE754E40E941F3101
:104EC00002E02FE230E040E157E20E94D91C9FA7A8
:104ED0008EA78E010A5F1F4F4CE751E0BC01C8014D
:104EE000D7D9C8010ADA99AB88ABDF91CF911F916E
:104EF0000F9108959C012F583F4FAC0143595F4FCC
:104F0000BC0167597F4F8C5B9F4F0C94780B0895C1
:104F1000CF92DF92EF92FF92CF93DF9300D000D039
:104F2000CDB7DEB76091A7057091A8058091A9055E
:104F30009091AA05611571058105910509F44DC08F
:104F400025E030E040E050E00E948130672B682B84
:104F5000692B09F03DC062E085EA95E00E943C0AB9
:104F6000672B682B692B81F120910D0530910E057F
:104F700040910F055091100562E085EA95E0298384
:104F80003A834B835C830E943C0A6B017C01ACE357
:104F9000B0E029813A814B815C810E94D430A70125
:104FA00096010E948130BA01A90180E395E01ADFE1
:104FB00080E395E011DFAB01BC0181E0FFD8AB01DC
:104FC000BC0180E395E000DF61E080E395E0E1DE95
:104FD00080E395E02DDF892BF1F480E395E0D0DECE
:104FE000882359F080E395E0B3DE882319F08EEF33
:104FF00095E092D887EF95E08FD881E080930C05FB
:105000000F900F900F900F90DF91CF91FF90EF9046
:10501000DF90CF900895C090A705D090A805E090AC
:10502000A905F090AA0580E395E002DF9C0140E02D
:1050300050E0C701B6010E948130672B682B692BB5
:1050400061F620910D0530910E0540910F055091AC
:10505000100580E395E029833A834B835C83E8DE87
:105060007C01ACE3B0E029813A814B815C810E94F4
:10507000D430970140E050E00E948130BA01A9018C
:1050800080E395E0AFDE80E395E0A6DEAB01BC01F6
:1050900081E094D8AB01BC0180E395E095DE1092ED
:1050A0000D0510920E0510920F051092100562E08A
:1050B00085EA95E00E94250A80E395E055DE81119E
:1050C00005C08BE195E00E94920A87CF60E070E016
:1050D00080E395E0B9DE61E080E395E060DE7DCFBE
:1050E00080E395E0B5CE2FEF89EF90E0215080402E
:1050F0009040E1F700C000000895EF92FF920F93F7
:105100001F93CF93DF93CDB7DEB72A970FB6F894EE
:10511000DEBF0FBECDBF8C017B01BC0180E395E0FB
:1051200093DE083C110509F081C080E395E098DE2C
:105130008BE195E00E94920A8E010F5F1F4F8AE07B
:10514000F80111928A95E9F7C7018C549D4F7C01B3
:1051500067EE78E00E94DA33892B29F061E080E382
:1051600095E0FFDD63C061EE78E0C7010E94DA33AD
:10517000892B29F061E080E395E005DE57C02AE045
:10518000A80160EA71E0C7010E94521D882381F0E6
:10519000F999FECFC8010E949A1DAB01BC0180E0C5
:1051A00090E00E946635F999FECF0E94BA1C3EC07D
:1051B0002AE0A80166EA71E0C7010E94521D882317
:1051C000F1F0C8010E94CC32BC0180E395E034DEEE
:1051D000F999FECF80E395E02BDEBC0184E090E0FE
:1051E0000E946B3580E395E023DE8C549F4FAC0129
:1051F00060E070E08BE195E00E94820A17C02AE02F
:10520000A8016EEA71E0C7010E94521D882331F0A7
:10521000B80185E195E00E94A11C08C06BED78E023
:10522000C7010E94DA33892B09F0BFCF2A960FB647
:10523000F894DEBF0FBECDBFDF91CF911F910F91CC
:10524000FF90EF900895CF93DF93EA016A3051F415
:1052500080E395E0DFDD26E0FE01DC0101900D92A8
:105260002A95E1F7DF91CF91089561E08EEF95E007
:105270000E946E202FEF89EF90E0215080409040F7
:10528000E1F700C000002FEF89EF90E0215080404F
:105290009040E1F700C000002FEF89EF90E021502F
:1052A00080409040E1F700C0000060E08EEF95E0A4
:1052B0000E946E202FEF89EF90E0215080409040B7
:1052C000E1F700C00000089561E08EEF95E00E94D4
:1052D0006E202FEF89EF90E0215080409040E1F761
:1052E00000C0000060E08EEF95E00E946E202FEF7E
:1052F00089EF90E0215080409040E1F700C000002D
:1053000008951F920F920FB60F9211242F933F937F
:105310004F935F936F937F938F939F93AF93BF93BD
:10532000EF93FF9380911F0590912005A091210597
:10533000B09122050196A11DB11D80931F05909388
:105340002005A0932105B093220540911B055091A3
:105350001C0560911D0570911E0584179507A60711
:10536000B70710F4A89502C00E94990AFF91EF9127
:10537000BF91AF919F918F917F916F915F914F916D
:105380003F912F910F900FBE0F901F9018951F9275
:105390000F920FB60F9211242F933F934F935F9369
:1053A0006F937F938F939F93AF93BF93EF93FF93ED
:1053B00085EA95E00E94E409FF91EF91BF91AF91DA
:1053C0009F918F917F916F915F914F913F912F911D
:1053D0000F900FBE0F901F9018951F920F920FB64F
:1053E0000F9211242F933F934F935F936F937F936B
:1053F0008F939F93AF93BF93EF93FF9380910D058E
:1054000090910E05A0910F05B09110050196A11D78
:10541000B11D80930D0590930E05A0930F05B093D9
:10542000100561E080E395E09CDCFF91EF91BF9176
:10543000AF919F918F917F916F915F914F913F912C
:105440002F910F900FBE0F901F901895CF93DF9361
:1054500000D000D000D0CDB7DEB748E552E060E024
:1054600070E08BE195E00E946E0AF999FECF80E032
:1054700090E00E945C356093110570931205809353
:1054800013059093140584E090E00E946135BC01FF
:1054900080E395E0D1DC80E395E0CADC019609F475
:1054A000D0C480E395E0C4DC059708F4CAC480E367
:1054B00095E0BEDC81319E4008F0C3C480E395E0F6
:1054C000B7DC8C549F4FAC0160E070E08BE195E05D
:1054D0000E94820A409111055091120560911305B6
:1054E000709114057727736180E395E024DC809147
:1054F0006900836080936900E89A47E857E268E8AA
:1055000077E285EA95E00E94950962E085EA95E0F8
:105510000E94250A80E395E004DC9A838983CE010A
:1055200001960E94302123E738E245E359E264E620
:1055300079E285E195E00E94B21C80E395E0A0DC71
:105540008FEB95E00E945D1E8FEB95E00E94431E5D
:105550006CEE78E08FEB95E00E94401F8FEF99E6AC
:10556000A8E181509040A040E1F700C000008FEB1F
:1055700095E00E94431E66E878E08FEB95E00E947C
:10558000151F61E08FEB95E00E945F1F80E395E0BF
:105590003FDC0E94B01366E774E084E10E94901340
:1055A00080E395E035DC0E94C71561E080E395E07B
:1055B000DEDB05E718E03CE3E32E32E0F32E64EB9C
:1055C00072E088E592E00E9482146C0180E395E02D
:1055D0001FDCFC0185811F928F931F930F93FF9215
:1055E000EF920E94B43480E395E012DC2CE332E0C9
:1055F000DC0115964C91B60184EB92E00E943111CA
:10560000D82E80EF95E00E947C200F900F900F9095
:105610000F900F900F90811105C060E080E395E03E
:10562000A6DB02C0DD2059F280E395E09DDB8823F4
:1056300009F442C080E395E0E7DB7C0180E395E07C
:10564000E5DB8C0180E395E0DBDBA701B8010E947C
:10565000B21180E395E0DADB8C0180E395E0D0DBEA
:10566000B8010E94D21580E395E0CEDBFC01808179
:10567000811105C060E080E395E079DB1FC080E325
:1056800095E0C2DB43E259E26AE00E947D190E9484
:105690007619882361F064EB72E088E592E00E945D
:1056A0008214BC0184EB92E00E94941AF0CF80E750
:1056B00098E20E948F1A02C00E94F01480E395E0E5
:1056C00053DB61E0682780E395E045DB61E08FEB29
:1056D00095E00E945F1F95E0892E96E0992E20E8C4
:1056E000622E27E0722E6CE075E083E295E003DA2B
:1056F00080E395E039DB8823B1F364EB72E088E561
:1057000092E00E9482147C01BC0184EB92E00E9432
:10571000941A8C01E114F10409F0D4C080E395E0FF
:1057200044DB823069F180E395E03FDB811113C0F7
:105730000E9440148823B9F261E080E395E032DBF7
:1057400080E395E067DBAC0164EB71E084EB92E011
:105750000E94F411C8CF80E395E027DB813021F46B
:105760000E94E611811174C385EA95E00E94A409A4
:105770008C3309F0B8CF60E080E395E013DBB3CF62
:1057800080E395E009DB882309F4ADCF80E395E061
:10579000CCDA9F938F937F936F9387ED91E09F93E4
:1057A0008F9388E791E09F938F9383E498E09F9392
:1057B0008F939F928F920E94B4342091A1053091D3
:1057C000A2054091A3055091A40550909D054090DD
:1057D0009E0530909F052090A005D0909905C0901F
:1057E0009A05B0909B05A0909C0580E395E02B83E3
:1057F0003C834D835E8300DBF82EE92E80E395E049
:10580000F7DA182F092F80E395E0E6DA1F92E1E03E
:10581000EF935E815F934D814F933C813F932B814A
:105820002F932F923F924F925F92AF92BF92CF925F
:10583000DF92EF92FF920F931F939F938F937F932B
:105840006F931F928BE78F931F928AE68F938091BD
:10585000AA058F938091A9058F938091A8058F93B6
:105860008091A7058F9380E098E09F938F938CE3BE
:1058700092E09F938F930E94B4340FB6F894DEBFEA
:105880000FBECDBF80E395E0C5DA5C0180E395E013
:10589000B9DA6C018DE7E82E88E2F82E00E010E01E
:1058A00025E036E04BEE57E06CE372E087ED97E0E1
:1058B0000E94411A80E395E0DBDA60E080E395E046
:1058C0006EDA11CF009731F4B70184EB92E00E94B9
:1058D000761209CF8C549D4F7C0146E050E0BC010C
:1058E00089EC91E0A2D7892B09F0BEC048E957E0C6
:1058F00060E070E084EB92E00E94F8168C0180E397
:1059000095E013DA9F938F937F936F937F926F92BB
:105910009F928F920E94B434D4010D900020E9F739
:105920009D01215031092550364045E056E0B8012F
:1059300084EB92E00E940A178C0180E395E04CDA38
:10594000F82EE92E81E06B837C830E949B20EF92EE
:10595000FF927C817F936B816F939F938F931F92B4
:1059600083E18F9329E537E03F932F939F928F92A6
:10597000FBD7F40101900020E9F79F012150310984
:105980002550364045E056E0B80184EB92E00E9495
:105990000A178C018091A4058F938091A3058F93A2
:1059A0008091A2058F938091A1058F938091A0058E
:1059B0008F9380919F058F9380919E058F93809107
:1059C0009D058F9380919C058F9380919B058F936C
:1059D00080919A058F93809199058F9326E237E005
:1059E0003F932F939F928F92BFD7D4010D900020A9
:1059F000E9F79D0121503109255036400FB6F89442
:105A0000DEBF0FBECDBF45E056E0B80184EB92E0AB
:105A10000E940A178C018091AA058F938091A90595
:105A20008F938091A8058F938091A7058F9326E18E
:105A300037E03F932F939F928F9296D7D4010D908A
:105A40000020E9F79D01215031092550364045E0FD
:105A500056E0B80184EB92E00E940A170FB6F89462
:105A6000DEBF0FBECDBFE7C144E050E0B70180ED1F
:105A700091E0DBD6892B59F4B80168547D4F42E0A0
:105A800050E085ED91E0D1D6892B09F0CCC147EDEE
:105A900056E060E070E084EB92E00E94F8168C0122
:105AA00080E395E042D99F938F937F936F93AAEB06
:105AB000B6E0BF93AF939F928F9256D7D4010D90CB
:105AC0000020E9F79D01215031092550364045E07D
:105AD00056E0B80184EB92E00E940A178C0181E045
