:1000000052C300000C94951978C3000076C3000019
:1000100074C3000072C300000C94E8186EC30000A3
:100020006CC300006AC3000068C3000066C3000020
:1000300064C3000062C3000060C300005EC3000030
:100040000C941E195AC3000058C3000056C3000088
:1000500054C3000052C3000050C300004EC3000050
:100060004CC300004AC300006B14701450145414A5
:1000700058145D14621467146E616E00696E660038
:100080000001080006040001450000820000400055
:1000900020000000000000002F0000000700070003
:1000A000147F147F14242A7F2A123234081626362D
:1000B000495522500005030000001C224100004168
:1000C000221C0014083E081408083E0808000050CE
:1000D00030001010101010006060000020100804A4
:1000E000023E5149453E00427F400042615149462F
:1000F0002141454B311814127F1027454545393CA5
:100100004A494930017109050336494949360649CA
:1001100049291E0036360000005636000008142219
:10012000410014141414140041221408020151094E
:1001300006324959513E7E1111117E7F4949493697
:100140003E414141227F4141221C7F494949417F33
:10015000090909013E4149497A7F0808087F0041A1
:100160007F41002040413F017F081422417F4040F1
:1001700040407F020C027F7F0408107F3E414141D6
:100180003E7F090909063E4151215E7F0919294632
:10019000464949493101017F01013F40403F001F6D
:1001A0002040201F3F4038403F6314081463070875
:1001B0007008076151494543007F414100552A5568
:1001C0002A550041417F00040201020440404040A2
:1001D00040000102040020545454787F48444438BD
:1001E0003844444420384444487F38545454180810
:1001F0007E0901020C5252523E7F080404780044EA
:100200007D40002040443D007F1028440000417F95
:1002100040007C041804787C080404783844444482
:10022000387C14141408081414187C7C080404087E
:100230004854545420043F4440203C4040207C1CFF
:100240002040201C3C4030403C44281028440C50A6
:1002500050503C4464544C44007F3E1C08081C3EF3
:100260007F00087C7E7C08103E7E3E103E3E3E3E77
:100270003E007F3E1C087F415D55554949495D4917
:100280004141417F1C7F415D5D5D5D5D5D5D5D5D0B
:100290005D417F1C7F415D5D5D5D5D595141414127
:1002A000417F1C7F415D59514141414141414141A3
:1002B0007F1C403C101C000426382604671560177C
:1002C000637C7C0C0C0C0C0C0C7C7C7F7F00000095
:1002D0000000007F7F0C0C0C0C0C0F0F0C0C0C0C96
:1002E0000C0C0F0F485454502F312E302034303125
:1002F00020556E617574686F72697A65640D0A4382
:100300006F6E74656E742D547970653A20746578DB
:10031000742F68746D6C0D0A0D0A3C68313E3430E0
:100320003120556E617574686F72697A65643C2F0F
:1003300068313E00485454502F312E302032303036
:10034000204F4B0D0A436F6E74656E742D54797097
:10035000653A20746578742F68746D6C0D0A50725C
:1003600061676D613A206E6F2D63616368650D0A88
:100370000D0A00485454502F312E30203230302096
:100380004F4B0D0A436F6E74656E742D5479706512
:100390003A20746578742F68746D6C0D0A50726120
:1003A000676D613A206E6F2D63616368650D0A0D9C
:1003B0000A00000000000000000000000000000033
:1003C000000000000000008080C0C0E0E0F0F0F815
:1003D000F8F8FCFCFCFCFEFE7E7E7E3F3FBFBFBF0C
:1003E0009FDFDFDF5F5F5FDF9F1E1E1E1E1E1C1C68
:1003F0001C1C18183838303030606040C080808055
:1004000000000000000000000000000000000000EC
:100410000080C0E0F0F8FCFCFEFFFFFFFFFF7F3F25
:10042000BFDF4F6F27131B090D050C1E7EFFFFFF5B
:10043000FFFFFF3F1F0701000000000001030E3C0B
:10044000F0C00000000000000000000000000000FC
:10045000000000010100020000000000000080E038
:10046000F0F8FCFEFFFFFFFFFFFF7F3F1F0F0703BA
:1004700001FCFEE3E1E0E0E0E0E0E0E0E0E0F0FCF1
:10048000FEFFFFFFFFFFFFFEF8E0E0E0E0E0E0E05E
:10049000E0E0E0E0E0FFFE000000000000000000FF
:1004A00000000000000000000000000000000070DC
:1004B000FCFFFFFFFFFFFFFFFFFF7F0F07010000B3
:1004C0000000000000010F3FFFFFFFFFFFFFFFFFE5
:1004D000FFFF3F0F03030303030303071F7FFFFF18
:1004E000FFFFFFFFFFFFFF7F3F070000000000004E
:1004F00000000000000000000000000000000000FC
:10050000000000000000010103030707070F0F0EA2
:100510001E1C38303060604040800000000103073E
:100520000F1F1F373160606040C0C0C0C0C0C040F6
:10053000606020333F1F0F0F070301000000000021
:1005400000000000000000000000000000000000AB
:10055000000000000000000000000000000000009B
:100560000000384040380000007E324C00601C1211
:100570001C6000007E4224180000007806384038D5
:100580000678000030484830000078080870007A8B
:100590000000087E0800003048483000007808005D
:1005A0000000000000000000000000407A10F35A34
:1005B00000A0724E18090010A5D4E80000E87648A3
:1005C000170000E40B54020000CA9A3B000000E14F
:1005D000F505000080969800000040420F000000E2
:1005E000A08601000000102700000000E8030000C2
:1005F00000006400000000000A000000000001008C
:10060000000000002C76D888DC674F0823DFC1DFAC
:10061000AE59E1B1B796E5E3E453C63AE6519976AF
:1006200096E8E6C28426EB898C9B62ED407C6FFCE9
:10063000EFBC9C9F40F2BAA56FA5F490055A2AF72B
:100640005C936B6CF9676DC11BFCE0E40D47FEF534
:1006500020E6B500D0ED902E03009435770500809C
:10066000841E080000204E0A000000C80C333333FB
:10067000330F986E12831141EF8D2114893BE6559B
:1006800016CFFEE6DB18D1844B381BF77C1D901D7E
:10069000A4BBE424203284725E228100C9F124ECE0
:1006A000A1E53D27F72011241FBECFEFD8E0DEBF24
:1006B000CDBF0E94102114E0A0E0B1E0E2E2FCE432
:1006C00002C005900D92A634B107D9F726E0A6E442
:1006D000B4E001C01D92A83DB207E1F716E0C6EAFA
:1006E000D6E004C02297FE010E94B221C43AD1078D
:1006F000C9F70E94DC1A0C940F2682CCA3E1B0E06B
:10070000E4E8F3E00C94CF217C011B016A01FC01B9
:1007100017821682838181FF66C3BE016F5F7F4FA0
:100720004B01F7019381F10193FD859193FF819135
:100730001F01882309F453C3853239F493FD859151
:1007400093FF81911F01853239F4B70190E00E9437
:10075000352556016501E5CF10E0512C20E020320F
:10076000A0F48B3269F030F4803259F0833269F4AE
:1007700020612CC08D3239F0803339F4216026C0DD
:100780002260246023C0286021C027FD27C030EDEF
:10079000380F3A3078F426FF06C0FAE01F9F300D7C
:1007A0001124132F13C06AE0569E300D1124532ECE
:1007B00020620CC08E3221F426FD11C3206406C0D5
:1007C0008C3611F4206802C0883641F4F10193FDA3
:1007D000859193FF81911F018111C1CF9BEB980FF0
:1007E000933018F42061805E06C09BE9980F933027
:1007F00008F0AAC12F7E26FF16E02F73722E8536D1
:1008000021F4F22FF0647F2E08C0863621F4622F87
:100810006068762E02C01111115077FE07C01C339C
:1008200048F444244394410E27E00BC0183030F4C0
:10083000212F06C027E04CE3442E03C027E017E039
:10084000412C560174E0A70EB11CF6016081718144
:1008500082819381042DA4010E941C246C010981D2
:1008600000FF02C003FF06C071FC07C072FC08C095
:10087000612C08C03DE2632E05C02BE2622E02C04F
:1008800090E2692E802F8C7099F1662011F084E03F
:1008900001C083E0851510F0512C0BC0581A73FC71
:1008A00008C0B70180E290E00E9435255A94C9F74C
:1008B000F3CF662029F0B701862D90E00E94352500
:1008C00003FD03C00CE710E002C008E710E0F72DBD
:1008D000F0717F2EF8018491882309F476C271109B
:1008E0008052B70190E00E9435250F5F1F4FF2CF75
:1008F00077FE0FC04C0C04FF04C08A81813309F4D9
:100900004A94141474F5F8E0F41578F588E0482E4C
:100910002CC076FC2AC0812F90E08C159D059CF0A0
:100920006CEFC6166FEFD60674F0772D7068772ED1
:100930000AC0E2E0F0E0EC0FFD1FE10FF11D808145
:10094000803319F411501111F4CF77FE0EC04424F6
:100950004394410E812F90E0C816D9062CF41C193F
:1009600004C04424439401C010E077FE07C01C1467
:100970001D043CF496012F5F3F4F05C025E030E099
:1009800002C021E030E0662011F02F5F3F4F1123BD
:1009900031F0412F50E04F5F5F4F240F351F452D41
:1009A00050E02417350714F4521A01C0512C872D3A
:1009B000897049F4552039F0B70180E290E00E9437
:1009C00035255A94F7CF662029F0B701862D90E09F
:1009D0000E94352573FC09C0552039F0B70180E32A
:1009E00090E00E9435255A94F7CF77FE5FC09C2D8A
:1009F0008D2DD7FE02C090E080E0692E782E40E079
:100A000050E0C601841991099D878C8796012619AB
:100A10003709280D391D812F90E0EE27FF27E81BAD
:100A2000F90BFF87EE87FFEF6F167F0669F4B701BA
:100A30008EE290E02B8B3A8B488B598B0E943525A8
:100A4000598948893A892B89C614D70454F06C8592
:100A50007D85661577052CF4F901E40FF51F81817A
:100A600001C080E371E0671A71084F5F5F4FEE8548
:100A7000FF856E167F066CF0B70190E02B8B3A8BEA
:100A8000488B598B0E9435252B893A894889598989
:100A9000CACF6C147D0439F49A81963318F49533D7
:100AA00011F404FF81E3B70190E04BC08A818133E8
:100AB00009F00F7EB70190E00E943525111105C0A5
:100AC00074FE18C085E490E017C0B7018EE290E094
:100AD0000E94352582E066246394680EF401E80FD5
:100AE000F11D8081B70190E00E943525115041F33E
:100AF000862DF1CF85E690E0B7010E943525D7FC21
:100B000005C0C114D10439F404FF05C0D194C194C7
:100B1000D1088DE201C08BE2B70190E00E9435253B
:100B200080E36AE0C616D1042CF08F5FFAE0CF1A9A
:100B3000D108F7CFB70190E00E943525B701C60173
:100B4000C0960E94352541C1833631F0833779F054
:100B5000833509F058C021C0560172E0A70EB11CC0
:100B6000F6018081898301E010E0640114C0560120
:100B7000F2E0AF0EB11CF601C080D18026FF03C0A9
:100B8000612F70E002C06FEF7FEFC6012B8B0E94D8
:100B90002A258C012B892F7715C05601F2E0AF0E64
:100BA000B11CF601C080D18026FF03C0612F70E028
:100BB00002C06FEF7FEFC6012B8B0E94F4248C01E3
:100BC0002B892068722E23FD1AC0852D90E008170E
:100BD0001907A8F4B70180E290E00E9435255A94E5
:100BE000F4CFF60177FC859177FE81916F01B70113
:100BF00090E00E94352551105A94015011090115B9
:100C0000110579F7E2C0843611F0893651F55601A5
:100C100027FF09C0F4E0AF0EB11CF60160817181BD
:100C2000828193810AC0F2E0AF0EB11CF6016081AF
:100C30007181882777FD8095982F022F0F7697FF77
:100C400008C090958095709561957F4F8F4F9F4F0D
:100C500000682AE030E0A4010E94B125C82EC8181F
:100C60003EC0022F853721F40F7E2AE030E01DC000
:100C7000097F8F3691F018F4883559F0B0C080376D
:100C800019F0883711F0ABC0006104FF09C004609F
:100C900007C024FF08C0066006C028E030E005C099
:100CA00020E130E002C020E132E0560107FF09C038
:100CB000F4E0AF0EB11CF6016081718182819381F5
:100CC00008C0F2E0AF0EB11CF6016081718180E0D6
:100CD00090E0A4010E94B125C82EC8180F7706FF26
:100CE0000BC0202F2E7FC11650F404FF0AC002FD56
:100CF00008C0202F2E7E05C0DC2C202F03C0DC2C4A
:100D000001C0D12E24FF0DC0FE01EC0DF11D80812C
:100D1000803311F4297E09C022FF06C0D394D394F6
:100D200004C0822F867809F0D39423FD13C020FFDE
:100D300006C01C2DD51418F4150D1D19D52CD5146D
:100D400068F4B70180E290E02B8B0E943525D394A4
:100D50002B89F5CFD51410F45D1801C0512C24FF58
:100D600012C0B70180E390E02B8B0E9435252B89C0
:100D700022FF17C021FF03C088E590E002C088E78A
:100D800090E0B7010CC0822F867859F021FD02C097
:100D900080E201C08BE227FD8DE2B70190E00E9466
:100DA0003525C11638F4B70180E390E00E9435255F
:100DB0001150F7CFCA94F401EC0DF11D8081B701F9
:100DC00090E00E943525C110F5CF552009F4C2CC22
:100DD000B70180E290E00E9435255A94F6CFF701E2
:100DE0008681978102C08FEF9FEF6396E2E10C94BA
:100DF000EB21FC017387628755874487EEE6F0E0BC
:100E0000808181608083789485B5836085BD0895F5
:100E1000FC0162817381848195812CE330E040E0A4
:100E200050E00E947221862F0895CF92DF92EF92B8
:100E3000FF92FC0162817381848195812CE3C22E33
:100E4000D12CE12CF12CA70196010E947221CA013C
:100E5000B901A70196010E947221862FFF90EF90A1
:100E6000DF90CF900895FC01628173818481958128
:100E700020E13EE040E050E00E947221CA01B90149
:100E800028E130E040E050E00E947221862F089572
:100E9000DF92EF92FF920F931F93CF93DF9300D0D7
:100EA00000D000D0CDB7DEB77C01D62E86E0EBE2D5
:100EB000F1E0DE01119601900D928A95E1F78E0125
:100EC0000F5F1F4F23E430E0A80164E470E0C70126
:100ED0000E943210D7015A961D921D921D921C92AB
:100EE0005D9781E09A968C939A979B968C939B97AB
:100EF00096E09C969C939C979E968C932D2D30E02B
:100F000040E061E071E081E00E943621F70167A7CF
:100F100070AB81ABF29684E1DF011D928A95E9F70F
:100F2000D701AA5BBF4FBC9786E001900D928A95CE
:100F3000E1F7F701E45BFF4F8AECDF011D928A9530
:100F4000E9F7E653FF4F83E68083319692E890837A
:100F5000319693E590833196808326960FB6F89468
:100F6000DEBF0FBECDBFDF91CF911F910F91FF90DC
:100F7000EF90DF9008950F931F93CF93DF93EC01D1
:100F800087DFFE01E65EFE4F85E38083319681E0D8
:100F9000808331968083319697E39083319692E0F7
:100FA000908331968083319683E0808360914604FC
:100FB00070914704FB0101900020E9F78F01015077
:100FC0001109061B170B0932110524F4101611061E
:100FD00094F402C008E210E08CE0FE01EF5DFE4FE9
:100FE000808331960083A801CE018D5D9E4F0E94C3
:100FF0000C250E5F1F4FCE01800F911FFC01EF5D8E
:10100000FE4F2FEF208331961082B80168507F4F3A
:10101000CE010E94AB1080E0DF91CF911F910F9124
:1010200008956D3121E0720700F12AE131E0A90154
:101030004E5F5F4F46175707C0F4FC01E20FF31FE6
:10104000A181AA2391F02A0F311DD90111966A17A7
:101050007B0758F0E081E53329F4FC01E40FF51F2C
:10106000808108952E5F3F4FE2CF80E008956F3F6B
:10107000710599F090F0FC0122AD222371F082AD50
:1010800093ADA4ADB5AD8093580490935904A0934B
:101090005A04B0935B0481E0089580E00895FC0158
:1010A0006F3F710569F060F083A1833449F482A534
:1010B000823031F497A5941303C081E020A929134D
:1010C00080E00895FC016F3F710529F020F081E078
:1010D00096A5923009F080E008958F929F92AF928A
:1010E000BF92CF92DF92EF92FF920F931F93CF9315
:1010F000DF93EB016D3111E0710708F4CEC0209150
:10110000480430914904D0904B0440E050E0BA01CB
:10111000EAE1F1E04F0112E0810E911C8C169D0670
:1011200058F47F01AFEFEA1AFA0A8C010E0D1F1D69
:10113000D801BC90B11008C03093490420934804F2
:10114000D0924B0481E0AAC00B2D10E0E00EF11EFE
:10115000CE15DF0588F37C01EE0EFF1ED701CC9083
:10116000B3E0CB1659F1BC1538F0CC2009F486C099
:10117000A1E0CA1669F08CC0B5E3CB1609F463C0D0
:10118000A6E3CA1609F464C0B3E3CB1281C02CC035
:10119000A4E0BA127DC07C01E80CF91CA0E5AA2EDF
:1011A000A4E0BA2ED701CD907D01D501CD925D018D
:1011B000B4E5AB16B4E0BB06A9F76AC0A4E0BA1266
:1011C00067C07C01E80CF91CB4E5AB2EB4E0BB2E83
:1011D000D701CD907D01D501CD925D01B8E5AB166B
:1011E000B4E0BB06A9F754C024E0B21249C020E025
:1011F00030E0762F652F542F4427D701A20FB31F5D
:101200001296AC914A2B2F5F3F4F2430310589F75E
:101210004F3FAFEF5A076A077A07A9F1B6E0769514
:10122000679557954795BA95D1F74E3FBFEF5B0746
:101230006105710528F44530510540F19A0128C037
:101240002DEF3FEF25C0D401A80FB91FDC9020C0BF
:10125000A4E0BA121DC07C01E80CF91CACE4AA2E73
:10126000A4E0BA2ED701CD907D01D501CD925D01CC
:10127000B0E5AB16B4E0BB06A9F70AC0FE0108C092
:1012800020EA35E005C02FEF3FEF02C025E030E057
:101290000E5F1F4FE00FF11F3DCF80E0DF91CF9138
:1012A0001F910F91FF90EF90DF90CF90BF90AF9084
:1012B0009F908F900895EF92FF920F931F93CF937B
:1012C000DF93EC01E5DDFE01E65EFE4F85E3808302
:1012D000319681E08083319683E0808380914C0455
:1012E0008823A9F086E33196808384E03196808359
:1012F00040914C0450914D0460914E0470914F0404
:101300003196408351836283738329E001C023E0D7
:10131000809158048823C9F0CE01820F911DFC01F1
:10132000E65EFE4F32E33083319634E0308331960F
:10133000409158045091590460915A0470915B0493
:1013400040835183628373832A5FE22EF12CCE01A6
:101350008E0D9F1DFC01E65EFE4F27E32083319634
:1013600022E02083319621E02083319623E0208300
:10137000E0914604F0914704DF010D900020E9F769
:101380008D01015011090E1B1F0B0932110524F4A8
:1013900010161106C4F402C008E210E0FC01E25E7F
:1013A000FE4F2CE0208331960083609146047091BB
:1013B0004704A801C701805E9E4F8C0F9D1F0E94AD
:1013C0000C250E5F1F4FCE01800F911F8E0D9F1DAC
:1013D000FC01E25EFE4F2FEF208331961082B701B1
:1013E0006B507F4F600F711FCE01B5D680E0DF914B
:1013F000CF911F910F91FF90EF900895CF92DF92C0
:10140000FF920F931F93CF93DF931F92CDB7DEB759
:101410006C018B0130934704209346044983FDD22D
:101420004981882309F461C00115110519F58091DE
:101430000001909101018230910559F481E090E022
:10144000909301018093000110925C0440934A0440
:101450003EC020915804211140C020915C042630E8
:1014600008F43BC080914A048F5F80934A04109235
:101470005C042DC0F0904A044F2DB801C6010FDE68
:10148000882399F1B801C6011DDE813071F1B801E0
:10149000C601C7DD823081F481E090E090930101C4
:1014A00080930001B801C601E2DDB801C60115DE76
:1014B0006F2DC60100DF19C08530B9F481E090E0DE
:1014C0009093010180930001A2D281E00FC099D2D4
:1014D00060914A04C6014FDD08C08330910528F0B1
:1014E0000197909301018093000180E00F90DF91BC
:1014F000CF911F910F91FF90DF90CF9008950F93A0
:101500001F93009769F0009158041091590420919D
:101510005A0430915B04FC010083118322833383DE
:101520006115710569F08091500490915104A0916A
:101530005204B0915304FB0180839183A283B3834F
:101540004115510569F08091540490915504A09182
:101550005604B0915704FA0180839183A283B38328
:101560001F910F910895809162040895EEE5F4E0D3
:101570002191DC012D93CD01B4E0E236FB07C1F7E8
:101580000895EF92FF920F931F93CF93DF93EC0197
:10159000F62EE72E8A01109262043FD2811105C017
:1015A00084E080935D0481E067C010925D048091C7
:1015B00063048F5F80936304682F70E0706E25E38F
:1015C00030E042E051E0CE014DD5809163048BA71D
:1015D00081E08CA7FE01BD9683E011928F5F8C3075
:1015E000E1F781E08FA7EF2DFE2D21E03CE04DE0FB
:1015F0004F19642F6E0F5081862F90E0552391F084
:101600005E3241F4DE01A30FB11D21509A962C9356
:10161000362F20E05191DE01A80FB91F9A965C93F6
:101620002F5FE7CFFE01E30FF11D215022A7FE013E
:10163000E80FF91F12A681E0860FFE01E80FF11DE9
:1016400012A682E0860FFE01E80FF11D81E082A75D
:1016500093E0960FFE01E90FF11D12A694E0960F9C
:10166000FE01E90FF11D82A789EF860F8AA76B5F44
:1016700070E0CE0170D580E0DF91CF911F910F9186
:10168000FF90EF900895CF93DF93FC0166347105CE
:1016900008F466C083A1853309F062C084A1803E4E
:1016A00009F05EC085A190916304891359C093A588
:1016B000981356C085A58F78803811F081E039C025
:1016C00022A5245F61537109DF01A20FB11D9A9613
:1016D0008C91807C61F02E5F0FC081E0820FDF0172
:1016E000A80FB11D9A969C919923A9F3282F822FB8
:1016F00090E08617970788F3DF01A20FB11D9B9634
:101700008C919B97813081F088E0820FDF01A80FD8
:10171000B11D9B968C91265F280F822F90E0861733
:10172000970790F283E005C0D3968C91843021F026
:1017300082E080935D0414C0265FAEE5B4E080E0F3
:1017400090E0E20FF11DEF01C80FD91F2AA52D93DC
:10175000019684309105B9F781E08093620401C05D
:1017600080E0DF91CF9108952A98962F9F71982B52
:101770009EBD0DB407FEFDCF1EBC0DB407FEFDCF10
:1017800067FD03C02A9A8EB508951EBC0DB407FEEE
:10179000FDCFF8CF2A986F71682B6EBD0DB407FE90
:1017A000FDCF4EBD0DB407FEFDCF2A9A0895FB0173
:1017B0002A982AE32EBD0DB407FEFDCF8E0F9F1F82
:1017C000E817F90739F01EBC0DB407FEFDCF2EB5A2
:1017D0002193F6CF10822A9A08952A982AE72EBDDF
:1017E0000DB407FEFDCF860F971F6817790741F0EC
:1017F000FB012191BF012EBD0DB407FEFDCFF5CF3A
:101800002A9A08951F93CF93DF93182F1076C12F34
:10181000D0E02091660430E0C217D30779F043E0AE
:101820006FE180EAB7DFAE0185E0559547958A956F
:10183000E1F76FE180E8AEDF10936604DF91CF91AE
:101840001F910895CF93DF931F92CDB7DEB7682F16
:101850006983D8DF698180E00F90DF91CF9184CFD9
:101860001F93CF93DF931F92CDB7DEB7182F6983F5
:10187000C9DF4981612F80E40F90DF91CF911F91E3
:1018800089CFCF93682F84EDEBDF61E082EDE8DF55
:101890008AEED8DF80FDFCCF60E082EDE1DF89EDEC
:1018A000D1DFC82F88EDCEDF2C2F30E0322F22275A
:1018B000A901482BCA01CF9108951F93CF93DF93BD
:1018C0001F92CDB7DEB7162F682F84ED7983C8DF5E
:1018D000612F86EDC5DF7981672F87EDC1DF18E2C3
:1018E0008AEEB0DF80FF04C0812F8A95F1F7F8CF30
:1018F0000F90DF91CF911F910895CF93DF93EC016B
:10190000229A2A9A84B1886284B924982B982D98B7
:1019100080E58CBD8DB581608DBD4FEF60E08FEFB0
:1019200039DF80E090E00197F1F7109265041092A2
:10193000640460E088E094DF60E089E091DF60E0CB
:101940008CE08EDF60E08DE08BDF6FEF8AE088DF78
:1019500069E18BE085DF60E084E082DF6AE185E0B9
:101960007FDF6FEF86E07CDF6FE187E079DF60EBA0
:1019700088E376DF6FE388E273DF60E389E270DF9C
:1019800069EF80E36DDF67EF81E36ADF6DE080EC94
:1019900067DF60E081EC64DF42E362EC80E8FADE5E
:1019A00062E186EC5DDF6CE087EC5ADF62E184EC9B
:1019B00057DF6CED8AEC54DF65E08BEC51DF68811A
:1019C00084EE4EDF698185EE4BDF6A8182EE48DF6F
:1019D0006B8183EE45DF6C8180EE42DF6D8181EEAD
:1019E0003FDF60E071E080E168DF8FE10BDF40EC1A
:1019F0006BE180E8CFDE44E06FE180E8DF91CF91DA
:101A0000C9CE88E31FDF682F616088E329CF88E3B0
:101A100019DF682F6E7F88E323CF81E132DF92FBED
:101A2000882780F908950F931F93CF93DF93EC01DC
:101A30008B016FE180E098DE83FDFBCF8CE102DF5C
:101A400081FF10C040E86FE180E8A4DE40E86FE16C
:101A500080EAA0DE42E06CE180EA9CDE80E395E76C
:101A60000197F1F760E082E0FBDE6AE183E0F8DEF7
:101A70006C2F86E0F5DECE01965E692F87E0F0DE02
:101A800040E060E08AE786DEB801CE01A6DE48E0ED
:101A90006FE180E8DF91CF911F910F917BCE9F92F4
:101AA000AF92BF92CF92DF92EF92FF920F931F936C
:101AB000CF93DF937C016B0189E3C4DE882309F4B3
:101AC0004EC060916404C091650480E0C9DE6C2F53
:101AD00081E0C6DE60E08AE347DE082F60E08AE34B
:101AE00043DE10E0182B109365040093640460E05B
:101AF0008AE33ADEC82F60E08AE336DE982E60E0A3
:101B00008AE332DEA82E60E08AE32EDEA7FE0EC056
:101B1000970121503109D0E0D92924972C173D078E
:101B200008F4E901B601CE0142DE02C0C0E0D0E017
:101B30006FEF01308AE1180724F08CE091DE69E153
:101B400006C0600F8CE08CDE01501109612F8DE022
:101B500087DE40E46EE180E81DDECE0102C080E059
:101B600090E0DF91CF911F910F91FF90EF90DF9068
:101B7000CF90BF90AF909F90089544E06FE180EACE
:101B800009DE84E05FDE8111FCCF8FE15BDE83FD47
:101B9000FCCF48E06EE180E8FDDD40E26EE180E8E8
:101BA000F9CDFF920F931F93CF93DF93FB01413049
:101BB00051F4AB014850510960E070E04F5E5F4F57
:101BC0006F4F7F4F0FC0423051F4AB014850510965
:101BD00060E070E04A5F5F4F6F4F7F4F03C040E0AF
:101BE00050E0BA01EF01DC01C230D10598F00C9150
:101BF00010E020E030E0322F212F102F0027119627
:101C0000FC9011970F29400F511F621F731F1296EE
:101C10002297EACFDF01AE7FA80FB91FE0FF0CC00B
:101C20008C9190E0A0E0B0E0BA2FA92F982F8827E0
:101C3000480F591F6A1F7B1FCB01AA27BB2700979C
:101C4000A105B10519F066277727F2CFCA01809563
:101C50009095DF91CF911F910F91FF90089500977C
:101C600041F026E0FC01ACE8B4E001900D922A9529
:101C7000E1F70895009721F46115710559F408956D
:101C8000DC01E8E8F4E08D91819384E0EC38F8071A
:101C9000D1F7F2CFDB01E7E0F1E08D91819381E0B4
:101CA000EB30F807D1F70895DC015A96FB0180E08C
:101CB0002D919191291305C08F5F8430C9F781E080
:101CC000089580E0089569327105A8F0FC0124852B
:101CD000283089F42585263071F4DC019696E8E8F1
:101CE000F4E09D918191981306C084E0EC38F807E8
:101CF000C1F781E0089580E00895FC016A32710522
:101D0000B0F08485883099F48585811110C086856E
:101D1000853469F47E96A8E8B4E091918D9198138A
:101D200006C084E0AC38B807C1F781E0089580E0D0
:101D30000895CF93DF93ECE8F4E0DC0116962C9144
:101D4000EC012993CE0121912D93D4E0E239FD07D6
:101D5000B1F7DF91CF910895CF93DF93EC01188E07
:101D6000198E80E48C8B1D8A8E8B40E064E170E0DC
:101D7000CE010E9616DF988F898FDF91CF9108954F
:101D8000CF93DF93EC016E96E8E8F4E0DC015A961D
:101D90002C91299321912D9324E0EC38F207C1F77F
:101DA000DF91CF91D9CFFC01BA96DC019E96869641
:101DB0002291620F711D2E916C93442311F02083A8
:101DC00001C01082672F7727E817F90789F7089570
:101DD000CF93DF93EC018CA19AA19CA38AA38DA140
:101DE0009BA19DA38BA3CE01DEDF1AAA1BAA80E5CF
:101DF0008EA7DF91CF910895CF93DF93EC0199DF08
:101E00001C8A82E08D8BCE0180964CE854E0DE0186
:101E100056962C91FC012193CF01FA012191AF013B
:101E20002D93F4E042395F07A1F7CE01869648E88A
:101E300054E0DE015C962C91FC012193CF01FA0164
:101E40002191AF012D93F4E04C385F07A1F7BE015B
:101E50008AE290E0DF91CF91E6CD0F931F93CF936D
:101E6000DF93EC018B0165DFCE018ADF1AA29CA112
:101E7000983F18F08DA18F5F8DA3985F9CA3BE0142
:101E8000C801DF91CF911F910F91CDCDFC018089C9
:101E900090E0982F88272189822B449726A530E04F
:101EA00044E0359527954A95E1F7220F331F220F1D
:101EB000331F821B930B97FF02C080E090E00895D0
:101EC0009C01CB01461B570BFA01E80FF91FE49167
:101ED000EE2339F0D901A80FB91FD696EC930196DD
:101EE000F3CF0895DB01D696A80FB91FFA01420F70
:101EF0004E1719F081918D93FBCFCB01820F911D6D
:101F000008950F931F93CF93DF9300D01F92CDB707
:101F1000DEB78C014B8369837A830BDF4B81842F7F
:101F20008061F80187A769817A81443029F06115C1
:101F3000710511F461E070E041E0C80149DFF8018A
:101F4000108A88E2818BC8011BDF84E0F80180AB36
:101F500011AA42E06CE170E0C8014A9622DEF80165
:101F600092AB83ABB80186E390E00F900F900F9097
:101F7000DF91CF911F910F9156CD0F931F93CF9368
:101F8000DF93EC018B01CB018896988B898BCE0176
:101F9000E3DE1AAA1BAAB801645E7F4F42E0CE01BD
:101FA0004A96FFDD9AAB8BABBE01C801C696DF91A6
:101FB000CF911F910F9137CDCF93DF93EC01B9DE15
:101FC000188A8CE2898BCE01DBDE82E18FA740E0AC
:101FD00061E070E0CE01FCDE1EA21FA280910F0125
:101FE00088A719A68D5F80930F0182E08EAB84E0F5
:101FF0008FAB85E088AF19AE80E68EA78AE088AB0C
:1020000019AA42E060E270E0CE014A96CADD9AABBE
:102010008BABBE018AE390E0DF91CF9104CD0F93AB
:102020001F93CF93DF93EC018B0160916704709154
:10203000680440E066DF89E18FA7B801CE01DF9137
:10204000CF911F910F9199CF640F751F46175707B6
:1020500041F0FA012491FC012193CF014F5F5F4FC2
:10206000F5CF0895AF92BF92CF92DF92EF92FF9299
:102070000F931F93CF93DF9300D0CDB7DEB75C01F2
:10208000F62EE72E6A01ECE8F4E0B5016A5F7F4FB7
:10209000D8014D918D01DC014D93CD014191DB01C2
:1020A0004D93BD01B4E0E239FB0791F788E0F501FB
:1020B0008487158648E850E069E070E0C5010E9617
:1020C00029833A83C1DF80910601D50153968C9311
:1020D00053978F5F8093060150961C92509781E131
:1020E00057968C938601C5014E96A8E8B4E03A81D4
:1020F0002981F80141918F01FC014193CF016D913C
:10210000AF0145505109FA016083F4E0AC38BF07D4
:1021100081F7D50194963C93949795962C93959737
:102120009296EC9292979396FC92939796961C9225
:10213000969798961C92989799961C920F900F904C
:10214000DF91CF911F910F91FF90EF90DF90CF9093
:10215000BF90AF9008950F931F93CF93DF93EC013F
:102160008B01CB014C96898B988BCE01F5DDC80194
:1021700008968FA39EA3B801605F7F4F41E0CE0118
:102180004A960FDD89A798A7BE01C8018A96DF91FC
:10219000CF911F910F9147CC0F931F93CF93DF9354
:1021A000EC018B0180918804882309F44AC0CE0198
:1021B000AE014A5F5F4FECE8F4E03FEFDC013D9396
:1021C000CD012191DA012D93AD01B4E0E239FB0795
:1021D000A9F788E08C8786E08D8740E850E068E0CA
:1021E00070E0CE010E9630DFDE0190964CE854E0B0
:1021F000FA012191AF01CD010A97FC0120831D92C4
:10220000F4E042395F07A1F7B801CE018696A8E84D
:10221000B4E0FB012191BF01FC012193CF014D915D
:102220009F012B503109F9014083F4E0AC38BF071E
:1022300081F7BE018AE290E0DF91CF911F910F916B
:10224000F2CBDF91CF911F910F91089581E0909192
:102250006B04923009F480E0089550937104409328
:10226000700421E020936B0460936A04ECE6F4E0D0
:10227000DC012D91CD012193B4E0E037FB07C1F7DC
:102280000895FF920F931F93CF93DF93EC01162FC6
:10229000042FF52EEBE7F4E09C018CE894E0BE01FE
:1022A0006A5F7F4F4191D9014D939D01DC014D91B2
:1022B000CD01DB014D93BD01B4E0E138FB0791F79F
:1022C00088E08C871D8648E850E069E070E0CE0128
:1022D0000E96BADE8CE2898B809106018B8B8F5F24
:1022E0008093060186E08F8B61E874E0DE015E96E4
:1022F00088E894E0FB012191BF012D93FC014191FD
:10230000CF019D0125503109F9014083F4E0653882
:102310007F0781F7CE0120DDFCA20DA38BE08AA30D
:102320001BA3FE01B69688E011928150E9F78091D7
:102330000F0188A78D5F80930F0180E68EA782E052
:102340008FA793E098AB19AA1AAA1BAA1CAA1DAAC8
:102350008EAB94E09FAB88AF8EEE89AF42E060E237
:1023600070E0CE014A961DDC9AAB8BABBE018AE3CE
:1023700090E0DF91CF911F910F91FF9054CB9093FC
:102380008704809386040895CF92DF92EF92FF92A4
:102390000F931F93CF93DF931F92CDB7DEB76C01DE
:1023A0008B016115710509F041C080916B04893082
:1023B00069F480910C0190910D01892B39F42DDB8A
:1023C000882321F06CE674E0C601E6DE80916B04A0
:1023D000813019F422DB81117BC180910C01909135
:1023E0000D01019690930D0180930C0180917A0468
:1023F000813009F07BC111DB882309F477C182E0C9
:1024000080937A0460910E016F5F60930E0140919A
:102410007804509179046F7180918504F0E28F9F68
:10242000C0011124682BC6012CDF60C14CDC88235D
:1024300051F1D60155968C91813011F4C601DCDC46
:1024400080916B0483FF52C1F6011589123009F0A7
:102450004DC144E050E06CE674E0C6014C960E9429
:10246000FF24892B09F042C1A6014A5E5F4FE0912B
:102470007004F091710460916A048CE694E009950F
:1024800010936B0433C1B801C60137DC882309F40B
:102490002DC1D60157968C915797813091F4929621
:1024A0008C91883009F022C1E0918604F091870474
:1024B000309719F0C6014A960995B801C601CDDCDE
:1024C00015C10633110508F411C1863009F00EC19B
:1024D000F60184A18B3009F0C5C0D0927304C0927C
:1024E000720461E874E0C601DFDB882309F4FEC0F2
:1024F000D6019F962C919F9722FF13C0E0917604FE
:10250000F0917704309709F489C095968C9120E07A
:1025100030E040E050E063E0829586958770099551
:102520007DC0C6012983B2DC7C0180917A042981B7
:10253000823089F5822F807122712231F9F440E0D6
:1025400060E070E0C601DDDC88E1F60187A7E0917C
:102550007404F0917504309741F0D60193968C91F4
:10256000829586958770099502C080E090E023E00F
:1025700020937A04BC01C60100DDB8C091E09093BD
:102580007A04811104C0B7016F5F7F4F02C060E021
:1025900070E044E085C08330C9F5E114F104B1F185
:1025A00084E080937A04E0917604F0917704309788
:1025B00069F1D6019E964C9150E0A4E0559547955F
:1025C000AA95E1F7440F551F440F551FC8010897FE
:1025D0004E5D5F4F8417950708F4AC01C701840F67
:1025E000951F0817190720F49801241B350B01C00B
:1025F0009701D60195968C9160E0829586958770BB
:102600000995882319F049E0B7011FC090917A0419
:10261000F60187A5953021F484FF68C086E018C0D4
:10262000963069F484FD04C0B7016F5F7F4F02C02C
:1026300060E070E044E0C60164DC87E009C080FF30
:102640000AC0B7016F5F7F4F41E0C6015ADC85E0E9
:1026500080937A044BC0E114F10409F447C040E0D0
:10266000B7011EC090916904891340C095A1809163
:102670000B0198133BC0F7A4F1FE03C0C6019CDC1C
:1026800035C0F4FE33C0C60101DC9093680480932A
:102690006704892B41F4F0FE29C040E060E070E05F
:1026A000C6012FDC23C0F60126A530E064E0359595
:1026B00027956A95E1F7220F331F220F331F2E5DF6
:1026C0003F4F085011090217130780F0C90110C0CD
:1026D0006CE674E0C60160DD80916B0488608093D5
:1026E0006B0410920D0110920C0177CE80E090E007
:1026F0000F90DF91CF911F910F91FF90EF90DF909E
:10270000CF90089580937C008FEC97E00197F1F7CC
:1027100000C0000084EC80937A008FEC97E0019772
:10272000F1F700C0000080917A0086FDFCCF809117
:1027300078002091790090E0922B08958EE48093A8
:102740007C008FEC97E00197F1F700C0000084EC6B
:1027500080937A008FEC97E00197F1F700C00000BA
:1027600080917A0086FDFCCF2091780080917900DD
:1027700030E0382B40E050E060E070E381E190E031
:102780000E949421C90108954F925F926F927F92A7
:102790008F929F92AF92BF92CF92DF92EF92FF9271
:1027A0000F93CF93DF936B017C015A01E901802FD6
:1027B000A9DFBC0180E090E00E94032320E030E02C
:1027C00040E85AE30E94B9232B013C01B5016C0F8C
:1027D0007D1F80E090E00E9403239B01AC01C301B8
:1027E000B2010E94B9234B015C01BE0180E090E080
:1027F0000E9403239B01AC01C501B4010E946F221A
:10280000A70196010E94B9230E94D722CB01DF9134
:10281000CF910F91FF90EF90DF90CF90BF90AF904E
:102820009F908F907F906F905F904F9008958F92C0
:102830009F92AF92BF92CF92DF92EF92FF924A01A6
:102840005B0124D06B017C01C501B4010E9403230C
:102850009B01AC01C701B6010E94B923FF90EF9024
:10286000DF90CF90BF90AF909F908F900895815050
:10287000883048F4E82FF0E0EE0FFF1FE659FE4FD6
:1028800080819181089581E391E0089590E0FC01B9
:102890003197E830F10548F5EC5CFF4F0C94B0211E
:1028A00036EA2BE994EC07C036E72EE69AED16C01F
:1028B0003CE428EA90EE8AE317C039E12FEA91E27E
:1028C0008FE312C036EA2BE994E48DE30DC036EABB
:1028D0002BE994EC03C03FE02EEE9EEC8BE304C0AA
:1028E0003AE027ED93E28CE3AC01632F722F852F42
:1028F000942F0895FC01408121E030E0062E01C0B4
:10290000220F0A94EAF72095242320830895452B6B
:1029100061F0FC01408121E030E0062E01C0220F71
:102920000A94EAF7422B40830895E4CF24E5429FBE
:10293000A0011124E6E06E9F400D511D1124FC0101
:10294000508B478708958F929F92AF92BF92CF92FC
:10295000DF92EF92FF920F931F93CF93DF931F921B
:10296000CDB7DEB74C01A62EDC011B96ED91FC9194
:102970001C97529181E090E09C0113960C90139764
:1029800002C0220F331F0A94E2F7522B508319968C
:10299000ED91FC911A97229112960C90129702C019
:1029A000880F991F0A94E2F7282B20836C911596C3
:1029B0008D919C91169749839DDF81E090E049813C
:1029C000413011F080E090E0AC01F401628181853A
:1029D00092859DDF07E010E0B12CCC24C394D12C6C
:1029E000A501002E02C0559547950A94E2F7417063
:1029F0005527D40113966C9113971B968D919C913A
:102A00001C9785DFD4011D96ED91FC911E972081C6
:102A1000EE24E394F12CC60114960C90149702C096
:102A2000880F991F0A94E2F7282B208314966C9143
:102A300014971D968D919C911E975CDF0150110992
:102A400078F6D4011596ED91FC9116972081C70177
:102A50000C9002C0880F991F0A94E2F7282B20835C
:102A60001B968D919C911C9713966C91019742DF58
:102A7000F40181859285628101973CDFD4011B9628
:102A8000ED91FC911C972081C70113960C90139730
:102A900002C0880F991F0A94E2F7282B2083199609
:102AA000ED91FC911A97808112960C9002C0EE0C69
:102AB000FF1C0A94E2F78E2980830F90DF91CF915B
:102AC0001F910F91FF90EF90DF90CF90BF90AF904C
:102AD0009F908F9008951F93CF93DF93EC01CB01CC
:102AE00064E570E00E944B21162F682F606840E07B
:102AF000CE0129DF612F606440E0CE01DF91CF91EC
:102B00001F9121CF0F931F93CF93DF93EC01188A6E
:102B10001F8660E070E0DFDF08EF11E041E060E079
:102B2000CE0111DF0150110901151105B9F7DF912F
:102B3000CF911F910F9108956F927F928F92AF92D4
:102B4000BF92CF92EF92FF920F93CF93DF93CDB7C7
:102B5000DEB73C018E859F855889D30118967C93FA
:102B60006E93179711964C93119716963C932E934C
:102B700015970C931A96FC92EE9219971296CC9296
:102B800012971C96BC92AE921B9713968C92139739
:102B90001E969C938E931D9714965C93FB01208147
:102BA00081E090E0DC0102C0AA0FBB1F4A95E2F76A
:102BB0002A2B2083D3011796ED91FC91189742910F
:102BC0009C0111960C90119702C0220F331F0A949A
:102BD000E2F7422B40831596ED91FC9116974291B6
:102BE0009C010C9002C0220F331F0A94E2F7422B83
:102BF00040831996ED91FC911A9742919C0112968F
:102C00000C90129702C0220F331F0A94E2F7422B56
:102C100040831B96ED91FC911C9742919C01139669
:102C20000C90139702C0220F331F0A94E2F7422B35
:102C300040831D96ED91FC911E97229114960C9065
:102C400002C0880F991F0A94E2F7282B2083EFE235
:102C5000F5E73197F1F700C00000D30111966C91B0
:102C6000119717968D919C91189744DEBFEFEFE86E
:102C7000F1E0B150E040F040E1F700C00000D301C6
:102C80001796ED91FC911897208181E090E01196C4
:102C90000C90119702C0880F991F0A94E2F7282B15
:102CA00020836C9115968D919C91169723DE40E0C0
:102CB00061E2C30148DE40E068ECC30144DE40E06D
:102CC00066E0C30140DE40E063E1C3013CDE40E07A
:102CD00060E2C30138DE40E06CE0C30134DEC301D2
:102CE00011DF40E061E2C3012EDE40E060ECC30191
:102CF0002ADE40E060E2C301DF91CF910F91FF90A7
:102D0000EF90CF90BF90AF908F907F906F901BCE41
:102D1000EF92FF920F931F93CF93DF93EC01162F47
:102D20008F8598896A3061F49C012C5A3F4F64E585
:102D300070E00E945F21281B390B388B2F8723C03E
:102D4000BC01CE01C8DE85E0189F7001112400E0AF
:102D500010E0C7018F5090407C01F701E00FF11F98
:102D60006491660F41E0CE01EEDD0F5F1F4F05302D
:102D7000110599F741E060E0CE01E5DD8F85988986
:102D80000696988B8F87DF91CF911F910F91FF90BF
:102D9000EF9008950F931F93CF93DF938C01EB0176
:102DA0006991662319F0C801B3DFFACFDF91CF91A3
:102DB0001F910F910895CF93DF93CDB7DEB7C4561F
:102DC000D1090FB6F894DEBF0FBECDBF9E012359C7
:102DD0003F4FAD964EAD5FADAD9763E670E0CE016F
:102DE00001960E948725BE016F5F7F4FAB968EAD27
:102DF0009FADAB97CFDFCC59DF4F0FB6F894DEBF56
:102E00000FBECDBFDF91CF9108951F93CF93DF9376
:102E1000EC01162F6F8578895EDE41E0612FCE01CF
:102E200092DD8F8598890196988B8F87DF91CF915E
:102E30001F910895EF92FF920F931F93CF93DF930B
:102E40008C017B01FC01108A1786C0E0D0E0F701FD
:102E5000EC0FFD1F6491C801D8DF2196C83FF1E057
:102E6000DF07A9F7DF91CF911F910F91FF90EF90AE
:102E70000895FC01628373834583FB01229181E005
:102E800090E0042E01C0880F0A94EAF7809582230F
:102E900080830895DC011296ED91FC91139732978F
:102EA000208130E015960C9002C0359527950A9444
:102EB000E2F7822F81700895FC016283738345835A
:102EC000FB01229181E090E0042E01C0880F0A945A
:102ED000EAF7282B20830895DC0114966C9314974D
:102EE0001296ED91FC91139715963C91208181E00B
:102EF00090E0032E01C0880F0A94EAF7662319F0C8
:102F0000282B20830895809582238083089561E093
:102F1000FC012481621BE0CFCF92DF92EF92FF92FF
:102F2000CF93DF93EB01FC01718360836091860096
:102F30007091870080E090E00E9403236B017C0188
:102F4000BE0180E090E00E9403239B01AC01C70119
:102F5000B6010E94B92320E030E04AE754E40E9421
:102F60006F220E94D7227093890060938800DF91BE
:102F7000CF91FF90EF90DF90CF900895CF93DF93A4
:102F8000C0E8D0E01882219A20E832E03093870030
:102F9000209386006BE070E0BFDF89E180938100C1
:102FA000888182688883DF91CF910895EF92FF92A4
:102FB0000F931F93CF93DF93EC018B017A01CA012A
:102FC00005966817790748F0688179816B3071053B
:102FD00020F061507109CE019FDF85E0E81AF10809
:102FE000E016F10650F068817981603293E079074C
:102FF00020F46F5F7F4FCE018FDF81E02881398120
:103000002032334009F480E0DF91CF911F910F917E
:10301000FF90EF900895FC01808191810895809147
:10302000A0049091A10401969093A1048093A00420
:10303000089580916B0690916C06A0916D06B091F9
:103040006E068093670690936806A0936906B09316
:103050006A06409167065091680660916906709112
:103060006A068091630690916406A0916506B0910E
:10307000660684179507A607B70780F48091670650
:1030800090916806A0916906B0916A0680936306E4
:1030900090936406A0936506B093660610926B0643
:1030A00010926C0610926D0610926E0640916706A3
:1030B000509168066091690670916A0681E0B7DBFD
:1030C00020E030E040E752E40E946F229B01AC0117
:1030D00060914D0670914E0680914F06909150067A
:1030E0000E94072260934D0670934E0680934F0610
:1030F0009093500610923406109233068FE696E0B5
:103100000C942A21CF9386E896E00E940807C5E038
:103110006C2F0E943F21911138C086E896E00E94F2
:103120000807882391F186E896E00E9408074091FD
:103130006B0650916C0660916D0670916E06452B82
:10314000462B472B11F120916B0630916C06409174
:103150006D0650916E066C2F0E943F21E82FACE364
:10316000B0E00E94C52145E0E49F9001112444276E
:1031700037FD4095542F0E947221209367063093AB
:1031800068064093690650936A0681E0809355066D
:1031900080915406882351F080915206811103C01A
:1031A00080EA96E0B4DE8AE996E0B1DE80912601FD
:1031B0008F5F80932601CF9108956A3041F486E0B5
:1031C000FA01A5E3B6E001900D928A95E1F7089522
:1031D0001F920F920FB60F9211242F933F934F938C
:1031E0005F936F937F938F939F93AF93BF93EF936F
:1031F000FF938091710690917206019690937206EA
:103200008093710620916F063091700682179307A4
:1032100014F4A89502C00E942F21FF91EF91BF9155
:10322000AF919F918F917F916F915F914F913F915E
:103230002F910F900FBE0F901F9018951F920F9215
:103240000FB60F9211242F933F934F935F936F9379
:103250007F938F939F93AF93BF93EF93FF9380914F
:10326000860690918706019690938706809386063E
:10327000883E914008F448C06091880670918906A4
:1032800080918A0690918B066F5F7F4F8F4F9F4F83
:10329000609388067093890680938A0690938B06C4
:1032A000611571058105910521F12CE330E040E0C5
:1032B00050E00E947221672B682B692BD1F480911A
:1032C0008C0690918D06A0918E06B0918F06019686
:1032D000A11DB11D80938C0690938D06A0938E0640
:1032E000B0938F06E0919206F0919306309709F023
:1032F0000995E0919006F0919106309709F00995B3
:103300001092870610928606FF91EF91BF91AF91C0
:103310009F918F917F916F915F914F913F912F91ED
:103320000F900FBE0F901F9018951F920F920FB61F
:103330000F921124CF92DF92EF92FF922F933F933F
:103340004F935F936F937F938F939F93AF93BF93AD
:10335000EF93FF9380916B0690916C06A0916D06A0
:10336000B0916E068F3F9F4FAF4FBF4F99F0809146
:103370006B0690916C06A0916D06B0916E06019659
:10338000A11DB11D80936B0690936C06A0936D06F2
:10339000B0936E0680915F0690916006A0916106E1
:1033A000B09162060196A11DB11D80935F069093B6
:1033B0006006A0936106B0936206C0908806D09024
:1033C0008906E0908A06F0908B06C114D104E104CE
:1033D000F104B1F020915F063091600640916106E2
:1033E00050916206ACE3B0E0D0D7A70196017AD73E
:1033F00020935B0630935C0640935D0650935E0617
:1034000081E080935606FF91EF91BF91AF919F911C
:103410008F917F916F915F914F913F912F91FF908D
:10342000EF90DF90CF900F900FBE0F901F901895E8
:103430008D312CE0920754F4813F2AE092074CF43E
:10344000853C99404CF088E191E0089580E191E05D
:10345000089584E191E008958CE191E00895CF9280
:10346000DF92EF92FF926B017C0120E030E040E2BE
:1034700051E40E946B2287FD0FC020E030E44CE154
:1034800056E4C701B6010E946B2287FF0AC06FE6AF
:1034900072E183E89AE309C060E070E080E89FE3AE
:1034A00004C06DEB77E386E895E3FF90EF90DF9043
:1034B000CF900895CF92DF92EF92FF926B017C0143
:1034C00020E030E040E251E40E946B2287FD0BC017
:1034D00020E030E44CE156E4C701B601FCD787FF99
:1034E00004C08DE603C08DE801C080E2FF90EF903C
:1034F000DF90CF900895683E23E072078105910523
:1035000010F4CB010895603422E472072FE08207A3
:10351000910528F428EE33E040E050E004C020E4B8
:1035200032E44FE050E0DED6C9010895683E23E062
:1035300072078105910538F0603472448F4091051F
:1035400020F48BE4089580E208958DE40895CF92ED
:10355000DF92EF92FF926B017C012DEC3CEC4CEC86
:103560005DE3B9D787FF03C06AE771E01AC02DECAD
:103570003CEC4CE45EE3C701B601ADD787FF03C066
:1035800065E871E00EC020E030E040E85FE3C7018D
:10359000B601A1D787FF03C060E971E002C06BE903
:1035A00071E082E994E00E94152582E994E0FF90A1
:1035B000EF90DF90CF900895CF93DF93CDB7DEB734
:1035C00066970FB6F894DEBF0FBECDBF2FE739EA7E
:1035D00083E0215030408040E1F700C0000068E502
:1035E00072E08FE696E026D6809169008360809332
:1035F0006900E89A49E158E162E878E186E896E0F6
:103600000E94F90684E896E0B9DC43E06BE270E0E2
:1036100080EA96E051DC43E068E270E084E996E0FD
:1036200028DC44E06BE270E08AE996E045DC81E06A
:103630008F931F9288E28F9325E0822E3BE2A32E88
:10364000B12C46E0C42E5BE2E52EF12C07E02BE224
:1036500030E040E065E270E083E796E06DDA83E712
:1036600096E050DA62EB73E083E796E0E3DB9FEFEE
:10367000A9E6B8E19150A040B040E1F700C00000D9
:1036800083E796E03FDA61E08AE996E025DC60EBCB
:1036900071E083E796E07EDB80E291E00E947D0CA2
:1036A000EFEFF0E722E0E150F0402040E1F700C00A
:1036B000000066E774E084E10E945D0C80E291E026
:1036C0000E942F0E0F900F900F9068EBA62E68E8C7
:1036D000B62E00ED11E076EAE72E76E0F72E62EAEC
:1036E00074E080E991E00E944F0D6C011092320667
:1036F000809125011F928F931F930F93FF92EF925A
:103700000E94672526EA36E040912501B60182EA4B
:1037100094E00E94FE090F900F900F900F900F9071
:103720000F90811106C031E0A31AB108A114B104B1
:10373000B1F691E0811101C090E090935306992376
:1037400009F443C04FE356E06BE376E087E496E08C
:103750000E947F0A6BE376E087E496E00E943A0ECF
:1037600080913F06811115C020EC2093470698EA0E
:103770009093480682E08093490638E130934A06E8
:1037800020933F06909340068093410681E080930A
:1037900042064DED58E16AE08FE396E00E942D115C
:1037A0000E942611882361F062EA74E080E991E0CA
:1037B0000E944F0DBC0182EA94E00E94C411F0CF38
:1037C0008FE098E10E94BF1102C00E94BD0D61E030
:1037D0008AE996E081DB109226010E949E133C014B
:1037E000BC01882777FD8095982F0FD720E030E027
:1037F0004AE754E474D66D8B7D83582E492E02E03F
:103800002FE230E040E157E2F2018F2F9E2F0E941D
:10381000C4138B839C834CE751E0BC0184E896E0A1
:10382000C5DB809151068111A6C484E996E032DBA4
:103830008111A1C431E030935106809188069091A6
:103840008906A0918A06B0918B06809357069093C3
:103850005806A0935906B0935A06212C809152061F
:10386000882321F060E080EA96E036DB409167062D
:10387000509168066091690670916A0681E00E9425
:1038800017146B017C0180915506882309F4F6C159
:103890001092550640E060E083E796E047D88091BB
:1038A0004C068111F1C060916706709168068091A5
:1038B000690690916A063ADE8E8360916706709180
:1038C00068068091690690916A0615DE8887998757
:1038D00084E896E0A0DB6AE070E0DDD46C87372EE8
:1038E000C701B60134DE8A879B8720E030E0A9015A
:1038F000C701B6013AD718163CF0A6EAB1E0BA8380
:10390000A98300E210E009C0EBEAF1E0FA83E98361
:10391000C701B601CFDD082F10E0C701B6019FDD5A
:103920009B01AC01C701B60124D76D877E878F87C5
:10393000988B80904D0690904E06A0904F06B090C8
:103940005006C501B401B6DD8F83C501B40187DD22
:103950009B01AC01C501B4010CD7B82EA92EC3013F
:103960006C8B7E8B65DD782E692E6C897E8922209A
:1039700011F048E701C040E286E896E04B8B6C8B83
:103980007E8B0E940807882E86E896E00E94150725
:10399000982E86E896E00E9433071F92FFE8FF9377
:1039A0001F922E812F9339853F9398859F933F9245
:1039B000AC85AF93BC81BF93EB81EF931F92F6E987
:1039C000FF931F9224E92F933B853F939A859F9302
:1039D0001F922F931F92A5E9AF931F9293E99F9394
:1039E000BA81BF93E981EF931F930F93F889FF93F7
:1039F0002F852F933E853F939D859F931F9292E93C
:103A00009F931F9291E99F931F92A4E9AF931F92F6
:103A1000AF931F92AF931F92AF931F92AF931F92DA
:103A2000AF931F92AF931F92AF931F92AF931F92CA
:103A3000AF931F92AF931F92AF931F9290E99F9302
:103A40004F925F92BD81BF93ED89EF931F92FF81EB
:103A5000FF93AF92BF927E897F936C896F936F9231
:103A60007F921F924B894F931F928F921F929F922A
:103A70001F928F93A1EEB1E0BF93AF9383E796E0DF
:103A80009F938F9398D97FC0813009F082C0409175
:103A90005B0650915C0660915D0670915E068091B8
:103AA000630690916406A0916506B091660684173E
:103AB0009507A607B70780F480915B0690915C0696
:103AC000A0915D06B0915E068093630690936406B4
:103AD000A0936506B093660681E00E943714082F14
:103AE000392E40916306509164066091650670918D
:103AF000660640905B0650905C0660905D06709094
:103B00005E0680905F0690906006A0906106B0907F
:103B1000620686E896E04B8B5A8B6C8B7E8B0E94FC
:103B20000807182F86E896E00E941507282F86E8D8
:103B300096E0298B0E9433073F920F934B895A8955
:103B40006C897E897F936F935F934F931F923FE8B9
:103B50003F937F926F925F924F921F923F93BF92DB
:103B6000AF929F928F921F921F931F9229892F933A
:103B70001F928F93A0E5B2E0BF93AF9383E796E0E7
:103B80009F938F9318D90FB6F894DEBF0FBECDBFA9
:103B900075C0823009F072C080915306882309F401
:103BA00068C080919D048F9380919C048F93809135
:103BB0009F048F9380919E048F938091A1048F9393
:103BC0008091A0048F9380912A018F938091290185
:103BD0008F93809128018F93809127018F938091FB
:103BE00046061F928F93809145061F928F93809176
:103BF00044061F928F93809143061F928F9380916A
:103C00003E061F928F9380913D061F928F93809165
:103C10003C061F928F9380913B061F928F93809159
:103C200042061F928F93809141061F928F9380913D
:103C300040061F928F9380913F061F928F93809131
:103C40004A061F928F93809149061F928F9380910D
:103C500048061F928F93809147061F928F93ADE97C
:103C6000B2E0BF93AF9383E796E09F938F93A3D87F
:103C70008ACF6CEE72E083E796E08CD880912601C3
:103C80008B3030F060E08AE996E026D91092260168
:103C9000222029F180915406882371F01092540655
:103CA00060E080EA96E018D91092670610926806E4
:103CB0001092690610926A0661E08AE996E00CD9D2
:103CC0001092260180914C0690E0019663E070E02E
:103CD000F6D280934C0683E796E00E94821520E09E
:103CE00030E040E85FE3C701B6013FD587FD06C07D
:103CF00031E03093540610924C0606C010925406E0
:103D000060E080EA96E0E8D880915606882359F171
:103D100080914C06811125C040E069E083E796E080
:103D20000E9496146EE883E796E00E9488168091C0
:103D30005406811116C080915306811112C08091E2
:103D4000520681110EC061E080EA96E0C5D88FE18D
:103D50009EE40197F1F700C0000060E080EA96E081
:103D6000BBD81092560680915306882309F435CDAE
:103D700062EA74E080E991E00E944F0D8C0110929C
:103D80003206BC0182EA94E00E94C4117C01011554
:103D9000110541F580914B06823009F41ECD811149
:103DA00011C00E940D0D882309F417CD81E0809386
:103DB0004B0645E356E064E173E082EA94E00E943A
:103DC000C10A0BCD813021F40E94B30A811107C2D0
:103DD00086E896E00E9408078C3309F0FECC10922A
:103DE0004B06FBCC009731F4B80182EA94E00E94C4
:103DF000430BF3CC8C010E551B4F46E050E0B8014D
:103E000089E293E019D6892B09F087C043E753E094
:103E100060E070E082EA94E00E94600F8C01809183
:103E20002A018F93809129018F93809128018F938C
:103E3000809127018F9380E393E09F938F9396EA7D
:103E4000E92E96E0F92EFF92EF9241D6D7010D9020
:103E50000020E9F79D0121503109265A3640A7017B
:103E6000B80182EA94E00E94720F8C0181E00E9406
:103E700037149F938F931F9285E08F9388E493E08C
:103E80009F938F93FF92EF9222D6F701019000202B
:103E9000E9F79F0121503109265A3640A701B801A0
:103EA00082EA94E00E94720F8C01809167069091E3
:103EB0006806A0916906B0916A0620918B062F933F
:103EC00020918A062F93209189062F9320918806AE
:103ED0002F931F921F921F921F92BF93AF939F9396
:103EE0008F9385E693E09F938F93FF92EF92EFD5A8
:103EF000D7010D900020E9F79D0121503109265A84
:103F000036400FB6F894DEBF0FBECDBFA701B80193
:103F100082EA94E00E94720F28C144E050E0B801A8
:103F200082E993E089D5892B59F4B7016A557B4F13
:103F300042E050E087E993E07FD5892B09F00DC17D
:103F400044E353E060E070E082EA94E00E94600F96
:103F50008C0180912A018F93809129018F93809108
:103F600028018F93809127018F93AAE9B3E0BF9333
:103F7000AF9386EAE82E86E0F82EFF92EF92A7D55F
:103F8000D7010D900020E9F79D0121503109265AF3
:103F90003640A701B80182EA94E00E94720F8C01BA
:103FA00081E00E9437149F938F931F9282E78F9333
:103FB0001F9285E68F931F9285E08F9387EB93E0A6
:103FC0009F938F93FF92EF9282D5F701019000208B
:103FD000E9F79F0121503109265A3640A701B8015F
:103FE00082EA94E00E94720F8C01809167069091A2
:103FF0006806A0916906B0916A06BF93AF939F933C
:104000008F9382ED93E09F938F93FF92EF925FD512
:10401000D7010D900020E9F79D0121503109265A62
:104020003640A701B80182EA94E00E94720F8C0129
:1040300080915B0690915C06A0915D06B0915E0652
:10404000BF93AF939F938F9387EE93E09F938F934C
:10405000FF92EF923CD5F70101900020E9F79F0114
:1040600021503109265A36400FB6F894DEBF0FBEF4
:10407000CDBFA701B80182EA94E00E94720F8C01C3
:1040800084E896E00E940B186AE070E004D17F9308
:104090006F939C819F93AB81AF938AEF93E09F9343
:1040A0008F93FF92EF9213D5F70101900020E9F76B
:1040B0009F0121503109265A3640A701B80182EAF2
:1040C00094E00E94720F8C0180914A061F928F9398
:1040D000809149061F928F93809148061F928F937B
:1040E000809147061F928F9381E194E09F938F9375
:1040F000FF92EF92ECD4D7010D900020E9F79D01DB
:1041000021503109265A3640A701B80182EA94E0CD
:104110000E94720F8C01809134068F938091330638
:104120008F9384E294E09F938F93FF92EF92CFD48A
:10413000F70101900020E9F79F0121503109265A2B
:104140003640A701B80182EA94E00E94720F0FB6D0
:10415000F894DEBF0FBECDBF08C044EE52E060E071
:1041600070E082EA94E00E94600FBC0182EA94E071
:104170000E940F1032CB80915106882309F46DCB39
:1041800084E996E00E944A17882309F466CB1092CE
:1041900051068091880690918906A0918A06B09177
:1041A0008B064091570650915806609159067091C0
:1041B0005A06841B950BA60BB70B0397A105B105F7
:1041C00058F080915206882319F01092520645CB80
:1041D00081E08093520641CB222423943FCB82E09E
:1041E00080934B0683E496E00E94B60AF1CD1092CC
:1041F000910610929006109293061092920680916A
:104200002701909128012091290130912A013093B2
:104210002201209323019093240180932501089586
:1042200014BE88E10FB6F89480936000109260008D
:104230000FBE0895FC01138212827183608384B7DC
:10424000877F84BFE0E6F0E088E1808386E48083B6
:1042500078940895FC0113821282A8950895E0E6EF
:10426000F0E088E1808389E080830895DB01582FA6
:104270007DD0529F800DA49F800D11240895991B1D
:1042800079E004C0991F961708F0961B881F7A954D
:10429000C9F780950895AA1BBB1B51E107C0AA1F4F
:1042A000BB1FA617B70710F0A61BB70B881F991FD7
:1042B0005A95A9F780959095BC01CD01089597FB7B
:1042C000072E16F4009406D077FD08D0E4DF07FC33
:1042D00005D03EF4909581959F4F08957095619516
:1042E0007F4F0895A1E21A2EAA1BBB1BFD010DC032
:1042F000AA1FBB1FEE1FFF1FA217B307E407F50796
:1043000020F0A21BB30BE40BF50B661F771F881F71
:10431000991F1A9469F760957095809590959B0107
:10432000AC01BD01CF010895052E97FB16F4009452
:104330000FD057FD05D0D6DF07FC02D046F408C0E9
:1043400050954095309521953F4F4F4F5F4F0895C1
:1043500090958095709561957F4F8F4F9F4F0895F1
:10436000EE0FFF1F0590F491E02D0994A29FB0017C
:10437000B39FC001A39F700D811D1124911DB29F99
:10438000700D811D1124911D0895F0DFA59F900DE2
:10439000B49F900DA49F800D911D112408952F921C
:1043A0003F924F925F926F927F928F929F92AF92C5
:1043B000BF92CF92DF92EF92FF920F931F93CF9312
:1043C000DF93CDB7DEB7CA1BDB0B0FB6F894DEBFA9
:1043D0000FBECDBF09942A88398848885F846E84CF
:1043E0007D848C849B84AA84B984C884DF80EE8019
:1043F000FD800C811B81AA81B981CE0FD11D0FB622
:10440000F894DEBF0FBECDBFED0108955058BB2715
:10441000AA270ED070C161D130F066D120F031F4FE
:104420009F3F11F41EF456C10EF4E095E7FB4CC11A
:10443000E92F72D180F3BA176207730784079507D3
:1044400018F071F49EF58AC10EF4E0950B2EBA2F88
:10445000A02D0B01B90190010C01CA01A00111248A
:10446000FF27591B99F0593F50F4503E68F11A1636
:10447000F040A22F232F342F4427585FF3CF4695C7
:1044800037952795A795F0405395C9F77EF41F16E9
:10449000BA0B620B730B840BBAF09150A1F0FF0FB3
:1044A000BB1F661F771F881FC2F70EC0BA0F621F9F
:1044B000731F841F48F4879577956795B795F7958F
:1044C0009E3F08F0B3CF9395880F08F09927EE0F21
:1044D000979587950895D4D008F481E008950CD07D
:1044E0000AC102D140F0F9D030F021F45F3F19F059
:1044F000EBC0511134C1EEC00FD198F39923C9F329
:104500005523B1F3951B550BBB27AA2762177307D9
:10451000840738F09F5F5F4F220F331F441FAA1F8D
:10452000A9F333D00E2E3AF0E0E830D0915050404D
:10453000E695001CCAF729D0FE2F27D0660F771FFB
:10454000881FBB1F261737074807AB07B0E809F0DD
:10455000BB0B802DBF01FF2793585F4F2AF09E3F72
:10456000510568F0B1C0FBC05F3FECF3983EDCF34F
:10457000869577956795B795F7959F5FC9F7880FEB
:10458000911D9695879597F90895E1E0660F771F3D
:10459000881FBB1F621773078407BA0720F0621BCE
:1045A000730B840BBA0BEE1F88F7E0950895BCD00F
:1045B00088F09F5790F0B92F9927B751A0F0D1F00C
:1045C000660F771F881F991F1AF0BA95C9F712C096
:1045D000B13081F0C3D0B1E00895C0C0672F782F0B
:1045E0008827B85F39F0B93FCCF386957795679502
:1045F000B395D9F73EF490958095709561957F4F6E
:104600008F4F9F4F0895E89409C097FB3EF4909513
:104610008095709561957F4F8F4F9F4F9923A9F09B
:10462000F92F96E9BB279395F6958795779567952A
:10463000B795F111F8CFFAF4BB0F11F460FF1BC06E
:104640006F5F7F4F8F4F9F4F16C0882311F096E901
:1046500011C0772321F09EE8872F762F05C06623AF
:1046600071F096E8862F70E060E02AF09A95660F68
:10467000771F881FDAF7880F9695879597F9089521
:10468000990F0008550FAA0BE0E8FEEF1616170663
:10469000E807F907C0F012161306E407F50798F0CB
:1046A000621B730B840B950B39F40A2661F0232BE4
:1046B000242B252B21F408950A2609F4A140A69560
:1046C0008FEF811D811D089597F99F6780E870E045
:1046D00060E008959FEF80EC089500240A94161678
:1046E000170618060906089500240A9412161306E0
:1046F000140605060895092E0394000C11F488236E
:1047000052F0BB0F40F4BF2B11F460FF04C06F5F89
:104710007F4F8F4F9F4F089557FD9058440F551F5F
:1047200059F05F3F71F04795880F97FB991F61F033
:104730009F3F79F087950895121613061406551FAA
:10474000F2CF4695F1DF08C0161617061806991F16
:10475000F1CF86957105610508940895E894BB270B
:1047600066277727CB0197F908958ADF08F48FEF42
:1047700008950BD0C0CFB1DF28F0B6DF18F0952335
:1047800009F0A2CFA7CF1124EACFC6DFA0F3959FEF
:10479000D1F3950F50E0551F629FF001729FBB2728
:1047A000F00DB11D639FAA27F00DB11DAA1F649FD4
:1047B0006627B00DA11D661F829F2227B00DA11D87
:1047C000621F739FB00DA11D621F839FA00D611D0D
:1047D000221F749F3327A00D611D231F849F600D2E
:1047E000211D822F762F6A2F11249F5750408AF067
:1047F000E1F088234AF0EE0FFF1FBB1F661F771FF3
:10480000881F91505040A9F79E3F510570F05CCF32
:10481000A6CF5F3FECF3983EDCF3869577956795DE
:10482000B795F795E7959F5FC1F7FE2B880F911D10
:104830009695879597F90895283008F027E0332753
:10484000DA01990F311D87FD9160009661057105B0
:1048500039F432602E5F3D9330E32A95E1F70895F5
:104860009F3F30F080387105610509F03C5F3C5F87
:104870003D93913008F08068911DDF93CF931F9393
:104880000F93FF92EF92192F987F9695E92F9695A7
:104890009695E90FFF27EC5FF94F99273327EE2410
:1048A000FF24A701E70105900894079428F4360F28
:1048B000E71EF81E491F511D660F771F881F991F9D
:1048C0000694A1F70590079428F4E70EF81E491FF7
:1048D000561FC11D770F881F991F661F0694A1F7E9
:1048E0000590079428F4F80E491F561FC71FD11DC5
:1048F000880F991F661F771F0694A1F705900794EC
:1049000020F4490F561FC71FD81F990F661F771F26
:10491000881F0694A9F784911095177041F0D695D9
:10492000C79557954795F794E7941A95C1F7EAEA22
:10493000F5E06894159015913591659195910590E4
:104940007FE27395E118F10A430B560BC90BD009AE
:10495000C0F7E10CF11E431F561FC91FD01D7EF486
:10496000703311F48A95E6CFE894015030F0080FC7
:104970000AF40027021708F4202F2395022F7A3318
:1049800028F079E37D932A95E9F710C07D932A9565
:1049900089F6069497956795379517951794E118BA
:1049A000F10A430B560BC90BD00998F023957E9161
:1049B00073957A3308F070E37C932013B8F77E91F7
:1049C00070617D9330F0839571E37D9370E32A9558
:1049D000E1F71124EF90FF900F911F91CF91DF919C
:1049E000992787FD90950895FC01059061507040CE
:1049F0000110D8F7809590958E0F9F1F0895FB01A9
:104A0000DC0104C08D910190801921F44150504087
:104A1000C8F7881B990B0895FB01DC0102C00190C7
:104A20000D9241505040D8F70895FB01DC010190F0
:104A30000D920020E1F70895FB01DC014150504048
:104A400030F08D910190801919F40020B9F7881B7E
:104A5000990B0895FC016150704001900110D8F746
:104A6000809590958E0F9F1F08950F931F93CF935E
:104A7000DF93182F092FEB018B8181FD03C08FEF8E
:104A80009FEF20C082FF10C04E815F812C813D814D
:104A9000421753077CF4E881F9819F012F5F3F4F54
:104AA00039832883108306C0E885F985812F09950D
:104AB000892B29F72E813F812F5F3F4F3F832E8324
:104AC000812F902FDF91CF911F910F910895AEE02C
:104AD000B0E0ECE6F5E271CC0D891E8986E08C83AE
:104AE0001A8309838FEF9FE79E838D83AE01475E14
:104AF0005F4F6F89788DCE0101960E947E03EF8112
:104B0000F885E00FF11F10822E96E4E072CCAEE043
:104B1000B0E0ECE8F5E251CC8C01CA0146E04C83F0
:104B20001A83098377FF02C060E070E86150710961
:104B30007E836D83A901BC01CE0101960E947E0394
:104B40004D815E8157FD0AC02F813885421753077A
:104B50000CF49A01F801E20FF31F10822E96E4E0A4
:104B600048CCFA01AA27283051F1203181F1E8948C
:104B70006F936E7F6E5F7F4F8F4F9F4FAF4FB1E050
:104B80003ED0B4E03CD0670F781F891F9A1FA11D4B
:104B9000680F791F8A1F911DA11D6A0F711D811D4C
:104BA000911DA11D20D009F468943F912AE0269F11
:104BB00011243019305D3193DEF6CF010895462F70
:104BC0004770405D4193B3E00FD0C9F7F6CF462F51
:104BD0004F70405D4A3318F0495D31FD40524193BA
:104BE00002D0A9F7EACFB4E0A69597958795779577
:104BF0006795BA95C9F700976105710508959B01FE
:104C0000AC010A2E06945795479537952795BA9586
:104C1000C9F7620F731F841F951FA01D0895F89494
:024C2000FFCFC4
:104C2200FF5F0808080802FFFFFFFF500100010AAA
:104C32008182830084858600878889008A8B8C0024
:104C42000200000000000101000051FFFFFFFFFF12
:104C5200FF756E6B6E6F776E0053424D32300053AC
:104C620049323942470053424D313900205354539F
:104C720035005349323247005349334247005342C9
:104C82004D32310020534931470039013F0146017D
:104C92004C01520158015E0164012020204C4F5703
:104CA200202020200020204E4F524D414C20200039
:104CB2002020204849474820202000202044414EFF
:104CC200474552202000776169740053762F6800AF
:104CD200496E69742045544845524E45540A0A505B
:104CE2006C6561736520776169740A0A2E2E2E0045
:104CF200755241444D6F6E69746F722D2530325872
:104D020000253032643A253032643A25303264204C
:104D1200256320257325312E3366256353762020A3
:104D22002025312E3166256325632563256325639E
:104D32002563256325632563256325632563256331
:104D42002563256320252E326620256325732025C1
:104D52006325632563257325632563253364562004
:104D620025303264252520253033642563256300F0
:104D72004162732E202072656164696E67735469A3
:104D82006D653A20253032643A253032643A253056
:104D9200326450753A20253031306C754176672582
:104DA200633A202530386C754D617825633A2025A9
:104DB20030386C7525732074756265200025337553
:104DC2002E2533752E2533752533752533752E25FE
:104DD20033752E2533752533752533752E25337599
:104DE2002E2533752533752533752E2533752E25DE
:104DF20033752533752530386C582050636B7473C6
:104E02002534752F2534752F253475004E6F2045B6
:104E1200746865726E65742E0A436F6E6E65637494
:104E2200206361626C6520616E64207265737461D7
:104E320072742E00646174612E757261646D6F6E9E
:104E420069746F722E636F6D00474554202F6A009C
:104E52007B2264617461223A7B20226964223A22B5
:104E62002530386C58222C002274797065223A223F
:104E72002558222C226465746563746F72223A226B
:104E82002573222C002263706D223A256C752C2228
:104E920074656D7065726174757265223A252E3281
:104EA200662C22757074696D65223A20256C757DB9
:104EB2007D0047455420002F20003C623E75524140
:104EC200444D6F6E69746F72202530386C583C2FD8
:104ED200623E3C62723E00747970653A25582068E1
:104EE200773A25752073773A25752025733C6872C9
:104EF2003E00726164696174696F6E3A256C754334
:104F0200504D3C62723E00617665726167653A257A
:104F12006C7543504D3C62723E00766F6C746167F3
:104F2200653A257556202825752525293C62723E4D
:104F32000069703A25752E25752E25752E25753C2E
:104F420062723E00687474703A25753C68723E3C29
:104F52006120687265663D222F6A223E4A534F4E97
:064F62003C2F613E00003F
:00000001FF
